{
  "_format": "hh-sol-artifact-1",
  "contractName": "LilypadCaller",
  "sourceName": "contracts/LilypadCaller.sol",
  "abi": [
    {
      "inputs": [],
      "stateMutability": "nonpayable",
      "type": "constructor"
    },
    {
      "anonymous": false,
      "inputs": [
        {
          "indexed": false,
          "internalType": "uint256",
          "name": "jobId",
          "type": "uint256"
        },
        {
          "indexed": false,
          "internalType": "string",
          "name": "jobName",
          "type": "string"
        },
        {
          "indexed": false,
          "internalType": "bool",
          "name": "fulfilled",
          "type": "bool"
        },
        {
          "indexed": false,
          "internalType": "string",
          "name": "jobResult",
          "type": "string"
        }
      ],
      "name": "LilypadResponse",
      "type": "event"
    },
    {
      "inputs": [],
      "name": "LPEvents",
      "outputs": [
        {
          "internalType": "address",
          "name": "",
          "type": "address"
        }
      ],
      "stateMutability": "view",
      "type": "function"
    },
    {
      "inputs": [],
      "name": "LilypadEventsContract",
      "outputs": [
        {
          "internalType": "contract LilypadEvents",
          "name": "",
          "type": "address"
        }
      ],
      "stateMutability": "view",
      "type": "function"
    },
    {
      "inputs": [],
      "name": "fetchAllJobs",
      "outputs": [
        {
          "components": [
            {
              "internalType": "uint256",
              "name": "jobId",
              "type": "uint256"
            },
            {
              "internalType": "string",
              "name": "jobName",
              "type": "string"
            },
            {
              "internalType": "bool",
              "name": "fulfilled",
              "type": "bool"
            },
            {
              "internalType": "string",
              "name": "jobResult",
              "type": "string"
            }
          ],
          "internalType": "struct LilypadCaller.LilypadJob[]",
          "name": "",
          "type": "tuple[]"
        }
      ],
      "stateMutability": "view",
      "type": "function"
    },
    {
      "inputs": [
        {
          "internalType": "address",
          "name": "_from",
          "type": "address"
        },
        {
          "internalType": "uint256",
          "name": "_jobId",
          "type": "uint256"
        },
        {
          "internalType": "string",
          "name": "_jobName",
          "type": "string"
        },
        {
          "internalType": "string",
          "name": "_errorMsg",
          "type": "string"
        }
      ],
      "name": "lilypadCancelled",
      "outputs": [],
      "stateMutability": "nonpayable",
      "type": "function"
    },
    {
      "inputs": [
        {
          "internalType": "address",
          "name": "_from",
          "type": "address"
        },
        {
          "internalType": "uint256",
          "name": "_jobId",
          "type": "uint256"
        },
        {
          "internalType": "string",
          "name": "_jobName",
          "type": "string"
        },
        {
          "internalType": "string",
          "name": "_ipfsResult",
          "type": "string"
        }
      ],
      "name": "lilypadFulfilled",
      "outputs": [],
      "stateMutability": "nonpayable",
      "type": "function"
    },
    {
      "inputs": [
        {
          "internalType": "uint256",
          "name": "",
          "type": "uint256"
        }
      ],
      "name": "lilypadJobs",
      "outputs": [
        {
          "internalType": "uint256",
          "name": "jobId",
          "type": "uint256"
        },
        {
          "internalType": "string",
          "name": "jobName",
          "type": "string"
        },
        {
          "internalType": "bool",
          "name": "fulfilled",
          "type": "bool"
        },
        {
          "internalType": "string",
          "name": "jobResult",
          "type": "string"
        }
      ],
      "stateMutability": "view",
      "type": "function"
    },
    {
      "inputs": [
        {
          "internalType": "string",
          "name": "_jobName",
          "type": "string"
        },
        {
          "internalType": "string",
          "name": "_params",
          "type": "string"
        }
      ],
      "name": "lilypadRequest",
      "outputs": [],
      "stateMutability": "nonpayable",
      "type": "function"
    },
    {
      "inputs": [
        {
          "internalType": "address",
          "name": "_eventsAddress",
          "type": "address"
        }
      ],
      "name": "setLPEventsAddress",
      "outputs": [],
      "stateMutability": "nonpayable",
      "type": "function"
    }
  ],
  "bytecode": "0x60806040523480156200001157600080fd5b506200005d6040518060400160405280601e81526020017f4465706c6f79696e67204c696c7970616443616c6c20636f6e747261637400008152506200011860201b620008ee1760201c565b7350fd7796e9b56c18e5b15f00321241b285ebd3866000806101000a81548173ffffffffffffffffffffffffffffffffffffffff021916908373ffffffffffffffffffffffffffffffffffffffff16021790555060008054906101000a900473ffffffffffffffffffffffffffffffffffffffff16600160006101000a81548173ffffffffffffffffffffffffffffffffffffffff021916908373ffffffffffffffffffffffffffffffffffffffff160217905550620002a2565b620001b8816040516024016200012f91906200027e565b6040516020818303038152906040527f41304fac000000000000000000000000000000000000000000000000000000007bffffffffffffffffffffffffffffffffffffffffffffffffffffffff19166020820180517bffffffffffffffffffffffffffffffffffffffffffffffffffffffff8381831617835250505050620001bb60201b60201c565b50565b60008151905060006a636f6e736f6c652e6c6f679050602083016000808483855afa5050505050565b600081519050919050565b600082825260208201905092915050565b60005b838110156200022057808201518184015260208101905062000203565b60008484015250505050565b6000601f19601f8301169050919050565b60006200024a82620001e4565b620002568185620001ef565b93506200026881856020860162000200565b62000273816200022c565b840191505092915050565b600060208201905081810360008301526200029a81846200023d565b905092915050565b61153b80620002b26000396000f3fe608060405234801561001057600080fd5b50600436106100885760003560e01c8063ce4af1d71161005b578063ce4af1d714610101578063dfc1c90e1461011f578063f1cb28ad1461013b578063f6057cec1461016e57610088565b80630972c2fa1461008d57806335f3cf03146100a95780635fad0a8e146100c75780636df53daf146100e5575b600080fd5b6100a760048036038101906100a29190610abe565b61018a565b005b6100b16101cd565b6040516100be9190610b4a565b60405180910390f35b6100cf6101f3565b6040516100dc9190610b74565b60405180910390f35b6100ff60048036038101906100fa9190610d0b565b610217565b005b610109610396565b6040516101169190610f7f565b60405180910390f35b61013960048036038101906101349190610fa1565b61053e565b005b61015560048036038101906101509190611019565b6105d3565b60405161016594939291906110ae565b60405180910390f35b61018860048036038101906101839190610d0b565b610730565b005b806000806101000a81548173ffffffffffffffffffffffffffffffffffffffff021916908373ffffffffffffffffffffffffffffffffffffffff16021790555050565b600160009054906101000a900473ffffffffffffffffffffffffffffffffffffffff1681565b60008054906101000a900473ffffffffffffffffffffffffffffffffffffffff1681565b60008054906101000a900473ffffffffffffffffffffffffffffffffffffffff1673ffffffffffffffffffffffffffffffffffffffff168473ffffffffffffffffffffffffffffffffffffffff16146102a5576040517f08c379a000000000000000000000000000000000000000000000000000000000815260040161029c90611173565b60405180910390fd5b6000604051806080016040528085815260200184815260200160011515815260200183815250905060028190806001815401808255809150506001900390600052602060002090600402016000909190919091506000820151816000015560208201518160010190816103189190611395565b5060408201518160020160006101000a81548160ff021916908315150217905550606082015181600301908161034e9190611395565b5050507fce372d1c554f049693473a21ed19db61b28cdc3dc2d047020df8de6bf6010b06848460018560405161038794939291906110ae565b60405180910390a15050505050565b60606002805480602002602001604051908101604052809291908181526020016000905b828210156105355783829060005260206000209060040201604051806080016040529081600082015481526020016001820180546103f7906111c2565b80601f0160208091040260200160405190810160405280929190818152602001828054610423906111c2565b80156104705780601f1061044557610100808354040283529160200191610470565b820191906000526020600020905b81548152906001019060200180831161045357829003601f168201915b505050505081526020016002820160009054906101000a900460ff161515151581526020016003820180546104a4906111c2565b80601f01602080910402602001604051908101604052809291908181526020018280546104d0906111c2565b801561051d5780601f106104f25761010080835404028352916020019161051d565b820191906000526020600020905b81548152906001019060200180831161050057829003601f168201915b505050505081525050815260200190600101906103ba565b50505050905090565b600160009054906101000a900473ffffffffffffffffffffffffffffffffffffffff1673ffffffffffffffffffffffffffffffffffffffff1663fe41ff3b3084846040518463ffffffff1660e01b815260040161059d93929190611467565b600060405180830381600087803b1580156105b757600080fd5b505af11580156105cb573d6000803e3d6000fd5b505050505050565b600281815481106105e357600080fd5b906000526020600020906004020160009150905080600001549080600101805461060c906111c2565b80601f0160208091040260200160405190810160405280929190818152602001828054610638906111c2565b80156106855780601f1061065a57610100808354040283529160200191610685565b820191906000526020600020905b81548152906001019060200180831161066857829003601f168201915b5050505050908060020160009054906101000a900460ff16908060030180546106ad906111c2565b80601f01602080910402602001604051908101604052809291908181526020018280546106d9906111c2565b80156107265780601f106106fb57610100808354040283529160200191610726565b820191906000526020600020905b81548152906001019060200180831161070957829003601f168201915b5050505050905084565b60008054906101000a900473ffffffffffffffffffffffffffffffffffffffff1673ffffffffffffffffffffffffffffffffffffffff168473ffffffffffffffffffffffffffffffffffffffff16146107be576040517f08c379a00000000000000000000000000000000000000000000000000000000081526004016107b590611173565b60405180910390fd5b6107fd6040518060400160405280601281526020017f4c696c79706164204a6f62204661696c6564000000000000000000000000000081525082610987565b6000604051806080016040528085815260200184815260200160001515815260200183815250905060028190806001815401808255809150506001900390600052602060002090600402016000909190919091506000820151816000015560208201518160010190816108709190611395565b5060408201518160020160006101000a81548160ff02191690831515021790555060608201518160030190816108a69190611395565b5050507fce372d1c554f049693473a21ed19db61b28cdc3dc2d047020df8de6bf6010b0684846000856040516108df94939291906110ae565b60405180910390a15050505050565b6109848160405160240161090291906114ac565b6040516020818303038152906040527f41304fac000000000000000000000000000000000000000000000000000000007bffffffffffffffffffffffffffffffffffffffffffffffffffffffff19166020820180517bffffffffffffffffffffffffffffffffffffffffffffffffffffffff8381831617835250505050610a23565b50565b610a1f828260405160240161099d9291906114ce565b6040516020818303038152906040527f4b5c4277000000000000000000000000000000000000000000000000000000007bffffffffffffffffffffffffffffffffffffffffffffffffffffffff19166020820180517bffffffffffffffffffffffffffffffffffffffffffffffffffffffff8381831617835250505050610a23565b5050565b60008151905060006a636f6e736f6c652e6c6f679050602083016000808483855afa5050505050565b6000604051905090565b600080fd5b600080fd5b600073ffffffffffffffffffffffffffffffffffffffff82169050919050565b6000610a8b82610a60565b9050919050565b610a9b81610a80565b8114610aa657600080fd5b50565b600081359050610ab881610a92565b92915050565b600060208284031215610ad457610ad3610a56565b5b6000610ae284828501610aa9565b91505092915050565b6000819050919050565b6000610b10610b0b610b0684610a60565b610aeb565b610a60565b9050919050565b6000610b2282610af5565b9050919050565b6000610b3482610b17565b9050919050565b610b4481610b29565b82525050565b6000602082019050610b5f6000830184610b3b565b92915050565b610b6e81610a80565b82525050565b6000602082019050610b896000830184610b65565b92915050565b6000819050919050565b610ba281610b8f565b8114610bad57600080fd5b50565b600081359050610bbf81610b99565b92915050565b600080fd5b600080fd5b6000601f19601f8301169050919050565b7f4e487b7100000000000000000000000000000000000000000000000000000000600052604160045260246000fd5b610c1882610bcf565b810181811067ffffffffffffffff82111715610c3757610c36610be0565b5b80604052505050565b6000610c4a610a4c565b9050610c568282610c0f565b919050565b600067ffffffffffffffff821115610c7657610c75610be0565b5b610c7f82610bcf565b9050602081019050919050565b82818337600083830152505050565b6000610cae610ca984610c5b565b610c40565b905082815260208101848484011115610cca57610cc9610bca565b5b610cd5848285610c8c565b509392505050565b600082601f830112610cf257610cf1610bc5565b5b8135610d02848260208601610c9b565b91505092915050565b60008060008060808587031215610d2557610d24610a56565b5b6000610d3387828801610aa9565b9450506020610d4487828801610bb0565b935050604085013567ffffffffffffffff811115610d6557610d64610a5b565b5b610d7187828801610cdd565b925050606085013567ffffffffffffffff811115610d9257610d91610a5b565b5b610d9e87828801610cdd565b91505092959194509250565b600081519050919050565b600082825260208201905092915050565b6000819050602082019050919050565b610ddf81610b8f565b82525050565b600081519050919050565b600082825260208201905092915050565b60005b83811015610e1f578082015181840152602081019050610e04565b60008484015250505050565b6000610e3682610de5565b610e408185610df0565b9350610e50818560208601610e01565b610e5981610bcf565b840191505092915050565b60008115159050919050565b610e7981610e64565b82525050565b6000608083016000830151610e976000860182610dd6565b5060208301518482036020860152610eaf8282610e2b565b9150506040830151610ec46040860182610e70565b5060608301518482036060860152610edc8282610e2b565b9150508091505092915050565b6000610ef58383610e7f565b905092915050565b6000602082019050919050565b6000610f1582610daa565b610f1f8185610db5565b935083602082028501610f3185610dc6565b8060005b85811015610f6d5784840389528151610f4e8582610ee9565b9450610f5983610efd565b925060208a01995050600181019050610f35565b50829750879550505050505092915050565b60006020820190508181036000830152610f998184610f0a565b905092915050565b60008060408385031215610fb857610fb7610a56565b5b600083013567ffffffffffffffff811115610fd657610fd5610a5b565b5b610fe285828601610cdd565b925050602083013567ffffffffffffffff81111561100357611002610a5b565b5b61100f85828601610cdd565b9150509250929050565b60006020828403121561102f5761102e610a56565b5b600061103d84828501610bb0565b91505092915050565b61104f81610b8f565b82525050565b600082825260208201905092915050565b600061107182610de5565b61107b8185611055565b935061108b818560208601610e01565b61109481610bcf565b840191505092915050565b6110a881610e64565b82525050565b60006080820190506110c36000830187611046565b81810360208301526110d58186611066565b90506110e4604083018561109f565b81810360608301526110f68184611066565b905095945050505050565b7f54686973206973206e6f7420746865206f6666696369616c204c696c7970616460008201527f4576656e747320436f6e74726163740000000000000000000000000000000000602082015250565b600061115d602f83611055565b915061116882611101565b604082019050919050565b6000602082019050818103600083015261118c81611150565b9050919050565b7f4e487b7100000000000000000000000000000000000000000000000000000000600052602260045260246000fd5b600060028204905060018216806111da57607f821691505b6020821081036111ed576111ec611193565b5b50919050565b60008190508160005260206000209050919050565b60006020601f8301049050919050565b600082821b905092915050565b6000600883026112557fffffffffffffffffffffffffffffffffffffffffffffffffffffffffffffffff82611218565b61125f8683611218565b95508019841693508086168417925050509392505050565b600061129261128d61128884610b8f565b610aeb565b610b8f565b9050919050565b6000819050919050565b6112ac83611277565b6112c06112b882611299565b848454611225565b825550505050565b600090565b6112d56112c8565b6112e08184846112a3565b505050565b5b81811015611304576112f96000826112cd565b6001810190506112e6565b5050565b601f8211156113495761131a816111f3565b61132384611208565b81016020851015611332578190505b61134661133e85611208565b8301826112e5565b50505b505050565b600082821c905092915050565b600061136c6000198460080261134e565b1980831691505092915050565b6000611385838361135b565b9150826002028217905092915050565b61139e82610de5565b67ffffffffffffffff8111156113b7576113b6610be0565b5b6113c182546111c2565b6113cc828285611308565b600060209050601f8311600181146113ff57600084156113ed578287015190505b6113f78582611379565b86555061145f565b601f19841661140d866111f3565b60005b8281101561143557848901518255600182019150602085019450602081019050611410565b86831015611452578489015161144e601f89168261135b565b8355505b6001600288020188555050505b505050505050565b600060608201905061147c6000830186610b65565b818103602083015261148e8185611066565b905081810360408301526114a28184611066565b9050949350505050565b600060208201905081810360008301526114c68184611066565b905092915050565b600060408201905081810360008301526114e88185611066565b905081810360208301526114fc8184611066565b9050939250505056fea2646970667358221220da3d1e74b71a87fca0f140f9ed5f17774fedbd342ebab1db5cceb1f88630692364736f6c63430008110033",
  "linkReferences": {},
  "deployedLinkReferences": {}
}