{
  "_format": "hh-sol-artifact-1",
  "contractName": "LilypadEvents",
  "sourceName": "contracts/LilypadEvents.sol",
  "abi": [
    {
      "inputs": [],
      "stateMutability": "nonpayable",
      "type": "constructor"
    },
    {
      "anonymous": false,
      "inputs": [
        {
          "indexed": false,
          "internalType": "address",
          "name": "from",
          "type": "address"
        },
        {
          "indexed": true,
          "internalType": "string",
          "name": "jobName",
          "type": "string"
        },
        {
          "indexed": false,
          "internalType": "string",
          "name": "params",
          "type": "string"
        }
      ],
      "name": "NewBacalhauJobSubmitted",
      "type": "event"
    },
    {
      "inputs": [
        {
          "internalType": "address",
          "name": "to",
          "type": "address"
        },
        {
          "internalType": "string",
          "name": "jobID",
          "type": "string"
        },
        {
          "internalType": "string",
          "name": "ipfsID",
          "type": "string"
        }
      ],
      "name": "returnResults",
      "outputs": [],
      "stateMutability": "nonpayable",
      "type": "function"
    },
    {
      "inputs": [
        {
          "internalType": "address",
          "name": "from",
          "type": "address"
        },
        {
          "internalType": "string",
          "name": "_jobName",
          "type": "string"
        },
        {
          "internalType": "string",
          "name": "params",
          "type": "string"
        }
      ],
      "name": "runBacalhauJob",
      "outputs": [],
      "stateMutability": "nonpayable",
      "type": "function"
    }
  ],
  "bytecode": "0x608060405234801561001057600080fd5b506100596040518060400160405280602081526020017f4465706c6f79696e67204c696c797061644576656e747320636f6e747261637481525061005e60201b61010f1760201c565b6101d8565b6100fa8160405160240161007291906101b6565b6040516020818303038152906040527f41304fac000000000000000000000000000000000000000000000000000000007bffffffffffffffffffffffffffffffffffffffffffffffffffffffff19166020820180517bffffffffffffffffffffffffffffffffffffffffffffffffffffffff83818316178352505050506100fd60201b60201c565b50565b60008151905060006a636f6e736f6c652e6c6f679050602083016000808483855afa5050505050565b600081519050919050565b600082825260208201905092915050565b60005b83811015610160578082015181840152602081019050610145565b60008484015250505050565b6000601f19601f8301169050919050565b600061018882610126565b6101928185610131565b93506101a2818560208601610142565b6101ab8161016c565b840191505092915050565b600060208201905081810360008301526101d0818461017d565b905092915050565b610694806101e76000396000f3fe608060405234801561001057600080fd5b50600436106100365760003560e01c8063390109341461003b578063fe41ff3b14610057575b600080fd5b61005560048036038101906100509190610422565b610073565b005b610071600480360381019061006c9190610422565b6100b6565b005b6100b16040518060400160405280600881526020017f646f20737475666600000000000000000000000000000000000000000000000081525061010f565b505050565b6100bf336101a8565b6040516100cb90610504565b60405180910390207fbd4c84f97376a916a5ac1d6ba01328a813fc80455c92026c217af8c04f8e3bb1336040516101029190610585565b60405180910390a2505050565b6101a5816040516024016101239190610621565b6040516020818303038152906040527f41304fac000000000000000000000000000000000000000000000000000000007bffffffffffffffffffffffffffffffffffffffffffffffffffffffff19166020820180517bffffffffffffffffffffffffffffffffffffffffffffffffffffffff8381831617835250505050610241565b50565b61023e816040516024016101bc9190610643565b6040516020818303038152906040527f2c2ecbc2000000000000000000000000000000000000000000000000000000007bffffffffffffffffffffffffffffffffffffffffffffffffffffffff19166020820180517bffffffffffffffffffffffffffffffffffffffffffffffffffffffff8381831617835250505050610241565b50565b60008151905060006a636f6e736f6c652e6c6f679050602083016000808483855afa5050505050565b6000604051905090565b600080fd5b600080fd5b600073ffffffffffffffffffffffffffffffffffffffff82169050919050565b60006102a98261027e565b9050919050565b6102b98161029e565b81146102c457600080fd5b50565b6000813590506102d6816102b0565b92915050565b600080fd5b600080fd5b6000601f19601f8301169050919050565b7f4e487b7100000000000000000000000000000000000000000000000000000000600052604160045260246000fd5b61032f826102e6565b810181811067ffffffffffffffff8211171561034e5761034d6102f7565b5b80604052505050565b600061036161026a565b905061036d8282610326565b919050565b600067ffffffffffffffff82111561038d5761038c6102f7565b5b610396826102e6565b9050602081019050919050565b82818337600083830152505050565b60006103c56103c084610372565b610357565b9050828152602081018484840111156103e1576103e06102e1565b5b6103ec8482856103a3565b509392505050565b600082601f830112610409576104086102dc565b5b81356104198482602086016103b2565b91505092915050565b60008060006060848603121561043b5761043a610274565b5b6000610449868287016102c7565b935050602084013567ffffffffffffffff81111561046a57610469610279565b5b610476868287016103f4565b925050604084013567ffffffffffffffff81111561049757610496610279565b5b6104a3868287016103f4565b9150509250925092565b600081905092915050565b7f537461626c65446966667573696f6e4750550000000000000000000000000000600082015250565b60006104ee6012836104ad565b91506104f9826104b8565b601282019050919050565b600061050f826104e1565b9150819050919050565b6105228161029e565b82525050565b600082825260208201905092915050565b7f5261696e626f7720556e69636f726e0000000000000000000000000000000000600082015250565b600061056f600f83610528565b915061057a82610539565b602082019050919050565b600060408201905061059a6000830184610519565b81810360208301526105ab81610562565b905092915050565b600081519050919050565b60005b838110156105dc5780820151818401526020810190506105c1565b60008484015250505050565b60006105f3826105b3565b6105fd8185610528565b935061060d8185602086016105be565b610616816102e6565b840191505092915050565b6000602082019050818103600083015261063b81846105e8565b905092915050565b60006020820190506106586000830184610519565b9291505056fea26469706673582212203555002a97d672e5841cd381fae40390c587f4361ec241f9a96aa4295acfe96664736f6c63430008110033",
  "linkReferences": {},
  "deployedLinkReferences": {}
}