{
  "_format": "hh-sol-artifact-1",
  "contractName": "LilypadEvents",
  "sourceName": "contracts/LilypadEvents.sol",
  "abi": [
    {
      "inputs": [],
      "stateMutability": "nonpayable",
      "type": "constructor"
    },
    {
      "anonymous": false,
      "inputs": [
        {
          "indexed": false,
          "internalType": "address",
          "name": "previousAdmin",
          "type": "address"
        },
        {
          "indexed": false,
          "internalType": "address",
          "name": "newAdmin",
          "type": "address"
        }
      ],
      "name": "AdminChanged",
      "type": "event"
    },
    {
      "anonymous": false,
      "inputs": [
        {
          "indexed": true,
          "internalType": "address",
          "name": "requestorContract",
          "type": "address"
        },
        {
          "indexed": true,
          "internalType": "uint256",
          "name": "jobId",
          "type": "uint256"
        },
        {
          "indexed": false,
          "internalType": "string",
          "name": "jobName",
          "type": "string"
        },
        {
          "indexed": false,
          "internalType": "string",
          "name": "results",
          "type": "string"
        }
      ],
      "name": "BacalhauJobResultsReturned",
      "type": "event"
    },
    {
      "anonymous": false,
      "inputs": [
        {
          "indexed": true,
          "internalType": "address",
          "name": "beacon",
          "type": "address"
        }
      ],
      "name": "BeaconUpgraded",
      "type": "event"
    },
    {
      "anonymous": false,
      "inputs": [
        {
          "indexed": false,
          "internalType": "uint8",
          "name": "version",
          "type": "uint8"
        }
      ],
      "name": "Initialized",
      "type": "event"
    },
    {
      "anonymous": false,
      "inputs": [
        {
          "indexed": true,
          "internalType": "address",
          "name": "requestorContract",
          "type": "address"
        },
        {
          "indexed": true,
          "internalType": "uint256",
          "name": "jobId",
          "type": "uint256"
        },
        {
          "indexed": false,
          "internalType": "string",
          "name": "jobName",
          "type": "string"
        },
        {
          "indexed": false,
          "internalType": "string",
          "name": "params",
          "type": "string"
        }
      ],
      "name": "NewBacalhauJobSubmitted",
      "type": "event"
    },
    {
      "anonymous": false,
      "inputs": [
        {
          "indexed": true,
          "internalType": "bytes32",
          "name": "role",
          "type": "bytes32"
        },
        {
          "indexed": true,
          "internalType": "bytes32",
          "name": "previousAdminRole",
          "type": "bytes32"
        },
        {
          "indexed": true,
          "internalType": "bytes32",
          "name": "newAdminRole",
          "type": "bytes32"
        }
      ],
      "name": "RoleAdminChanged",
      "type": "event"
    },
    {
      "anonymous": false,
      "inputs": [
        {
          "indexed": true,
          "internalType": "bytes32",
          "name": "role",
          "type": "bytes32"
        },
        {
          "indexed": true,
          "internalType": "address",
          "name": "account",
          "type": "address"
        },
        {
          "indexed": true,
          "internalType": "address",
          "name": "sender",
          "type": "address"
        }
      ],
      "name": "RoleGranted",
      "type": "event"
    },
    {
      "anonymous": false,
      "inputs": [
        {
          "indexed": true,
          "internalType": "bytes32",
          "name": "role",
          "type": "bytes32"
        },
        {
          "indexed": true,
          "internalType": "address",
          "name": "account",
          "type": "address"
        },
        {
          "indexed": true,
          "internalType": "address",
          "name": "sender",
          "type": "address"
        }
      ],
      "name": "RoleRevoked",
      "type": "event"
    },
    {
      "anonymous": false,
      "inputs": [
        {
          "indexed": true,
          "internalType": "address",
          "name": "implementation",
          "type": "address"
        }
      ],
      "name": "Upgraded",
      "type": "event"
    },
    {
      "inputs": [],
      "name": "DEFAULT_ADMIN_ROLE",
      "outputs": [
        {
          "internalType": "bytes32",
          "name": "",
          "type": "bytes32"
        }
      ],
      "stateMutability": "view",
      "type": "function"
    },
    {
      "inputs": [],
      "name": "UPGRADER_ROLE",
      "outputs": [
        {
          "internalType": "bytes32",
          "name": "",
          "type": "bytes32"
        }
      ],
      "stateMutability": "view",
      "type": "function"
    },
    {
      "inputs": [
        {
          "internalType": "uint256",
          "name": "",
          "type": "uint256"
        }
      ],
      "name": "bacalhauJobCalledHistory",
      "outputs": [
        {
          "internalType": "address",
          "name": "requestor",
          "type": "address"
        },
        {
          "internalType": "uint256",
          "name": "jobId",
          "type": "uint256"
        },
        {
          "internalType": "string",
          "name": "jobName",
          "type": "string"
        },
        {
          "internalType": "string",
          "name": "params",
          "type": "string"
        }
      ],
      "stateMutability": "view",
      "type": "function"
    },
    {
      "inputs": [
        {
          "internalType": "uint256",
          "name": "",
          "type": "uint256"
        }
      ],
      "name": "bacalhauJobHistory",
      "outputs": [
        {
          "internalType": "address",
          "name": "requestor",
          "type": "address"
        },
        {
          "internalType": "uint256",
          "name": "jobId",
          "type": "uint256"
        },
        {
          "internalType": "string",
          "name": "jobName",
          "type": "string"
        },
        {
          "internalType": "bool",
          "name": "jobFulfilled",
          "type": "bool"
        },
        {
          "internalType": "string",
          "name": "jobResult",
          "type": "string"
        }
      ],
      "stateMutability": "view",
      "type": "function"
    },
    {
      "inputs": [],
      "name": "escrowAddress",
      "outputs": [
        {
          "internalType": "address payable",
          "name": "",
          "type": "address"
        }
      ],
      "stateMutability": "view",
      "type": "function"
    },
    {
      "inputs": [],
      "name": "fetchAllCalledJobs",
      "outputs": [
        {
          "components": [
            {
              "internalType": "address",
              "name": "requestor",
              "type": "address"
            },
            {
              "internalType": "uint256",
              "name": "jobId",
              "type": "uint256"
            },
            {
              "internalType": "string",
              "name": "jobName",
              "type": "string"
            },
            {
              "internalType": "string",
              "name": "params",
              "type": "string"
            }
          ],
          "internalType": "struct LilypadEvents.BacalhauJobCalled[]",
          "name": "",
          "type": "tuple[]"
        }
      ],
      "stateMutability": "view",
      "type": "function"
    },
    {
      "inputs": [],
      "name": "fetchAllJobs",
      "outputs": [
        {
          "components": [
            {
              "internalType": "address",
              "name": "requestor",
              "type": "address"
            },
            {
              "internalType": "uint256",
              "name": "jobId",
              "type": "uint256"
            },
            {
              "internalType": "string",
              "name": "jobName",
              "type": "string"
            },
            {
              "internalType": "bool",
              "name": "jobFulfilled",
              "type": "bool"
            },
            {
              "internalType": "string",
              "name": "jobResult",
              "type": "string"
            }
          ],
          "internalType": "struct LilypadEvents.BacalhauJob[]",
          "name": "",
          "type": "tuple[]"
        }
      ],
      "stateMutability": "view",
      "type": "function"
    },
    {
      "inputs": [
        {
          "internalType": "address",
          "name": "_requestor",
          "type": "address"
        }
      ],
      "name": "fetchJobsByAddress",
      "outputs": [
        {
          "components": [
            {
              "internalType": "address",
              "name": "requestor",
              "type": "address"
            },
            {
              "internalType": "uint256",
              "name": "jobId",
              "type": "uint256"
            },
            {
              "internalType": "string",
              "name": "jobName",
              "type": "string"
            },
            {
              "internalType": "bool",
              "name": "jobFulfilled",
              "type": "bool"
            },
            {
              "internalType": "string",
              "name": "jobResult",
              "type": "string"
            }
          ],
          "internalType": "struct LilypadEvents.BacalhauJob[]",
          "name": "",
          "type": "tuple[]"
        }
      ],
      "stateMutability": "view",
      "type": "function"
    },
    {
      "inputs": [
        {
          "internalType": "bytes32",
          "name": "role",
          "type": "bytes32"
        }
      ],
      "name": "getRoleAdmin",
      "outputs": [
        {
          "internalType": "bytes32",
          "name": "",
          "type": "bytes32"
        }
      ],
      "stateMutability": "view",
      "type": "function"
    },
    {
      "inputs": [
        {
          "internalType": "bytes32",
          "name": "role",
          "type": "bytes32"
        },
        {
          "internalType": "address",
          "name": "account",
          "type": "address"
        }
      ],
      "name": "grantRole",
      "outputs": [],
      "stateMutability": "nonpayable",
      "type": "function"
    },
    {
      "inputs": [
        {
          "internalType": "bytes32",
          "name": "role",
          "type": "bytes32"
        },
        {
          "internalType": "address",
          "name": "account",
          "type": "address"
        }
      ],
      "name": "hasRole",
      "outputs": [
        {
          "internalType": "bool",
          "name": "",
          "type": "bool"
        }
      ],
      "stateMutability": "view",
      "type": "function"
    },
    {
      "inputs": [],
      "name": "initialize",
      "outputs": [],
      "stateMutability": "nonpayable",
      "type": "function"
    },
    {
      "inputs": [],
      "name": "proxiableUUID",
      "outputs": [
        {
          "internalType": "bytes32",
          "name": "",
          "type": "bytes32"
        }
      ],
      "stateMutability": "view",
      "type": "function"
    },
    {
      "inputs": [
        {
          "internalType": "bytes32",
          "name": "role",
          "type": "bytes32"
        },
        {
          "internalType": "address",
          "name": "account",
          "type": "address"
        }
      ],
      "name": "renounceRole",
      "outputs": [],
      "stateMutability": "nonpayable",
      "type": "function"
    },
    {
      "inputs": [
        {
          "internalType": "address",
          "name": "_to",
          "type": "address"
        },
        {
          "internalType": "uint256",
          "name": "_jobId",
          "type": "uint256"
        },
        {
          "internalType": "string",
          "name": "_jobName",
          "type": "string"
        },
        {
          "internalType": "string",
          "name": "_errorMsg",
          "type": "string"
        }
      ],
      "name": "returnBacalhauError",
      "outputs": [],
      "stateMutability": "nonpayable",
      "type": "function"
    },
    {
      "inputs": [
        {
          "internalType": "address",
          "name": "_to",
          "type": "address"
        },
        {
          "internalType": "uint256",
          "name": "_jobId",
          "type": "uint256"
        },
        {
          "internalType": "string",
          "name": "_jobName",
          "type": "string"
        },
        {
          "internalType": "string",
          "name": "_ipfsResult",
          "type": "string"
        }
      ],
      "name": "returnBacalhauResults",
      "outputs": [],
      "stateMutability": "nonpayable",
      "type": "function"
    },
    {
      "inputs": [
        {
          "internalType": "bytes32",
          "name": "role",
          "type": "bytes32"
        },
        {
          "internalType": "address",
          "name": "account",
          "type": "address"
        }
      ],
      "name": "revokeRole",
      "outputs": [],
      "stateMutability": "nonpayable",
      "type": "function"
    },
    {
      "inputs": [
        {
          "internalType": "address",
          "name": "_from",
          "type": "address"
        },
        {
          "internalType": "string",
          "name": "_jobName",
          "type": "string"
        },
        {
          "internalType": "string",
          "name": "_params",
          "type": "string"
        }
      ],
      "name": "runBacalhauJob",
      "outputs": [],
      "stateMutability": "payable",
      "type": "function"
    },
    {
      "inputs": [
        {
          "internalType": "bytes4",
          "name": "interfaceId",
          "type": "bytes4"
        }
      ],
      "name": "supportsInterface",
      "outputs": [
        {
          "internalType": "bool",
          "name": "",
          "type": "bool"
        }
      ],
      "stateMutability": "view",
      "type": "function"
    },
    {
      "inputs": [
        {
          "internalType": "address",
          "name": "newImplementation",
          "type": "address"
        }
      ],
      "name": "upgradeTo",
      "outputs": [],
      "stateMutability": "nonpayable",
      "type": "function"
    },
    {
      "inputs": [
        {
          "internalType": "address",
          "name": "newImplementation",
          "type": "address"
        },
        {
          "internalType": "bytes",
          "name": "data",
          "type": "bytes"
        }
      ],
      "name": "upgradeToAndCall",
      "outputs": [],
      "stateMutability": "payable",
      "type": "function"
    }
  ],
  "bytecode": "0x60a06040523073ffffffffffffffffffffffffffffffffffffffff1660809073ffffffffffffffffffffffffffffffffffffffff168152503480156200004457600080fd5b50620000556200005b60201b60201c565b62000206565b600060019054906101000a900460ff1615620000ae576040517f08c379a0000000000000000000000000000000000000000000000000000000008152600401620000a590620001a9565b60405180910390fd5b60ff801660008054906101000a900460ff1660ff161015620001205760ff6000806101000a81548160ff021916908360ff1602179055507f7f26b83ff96e1f2b6a682f133852f6798a09c465da95921460cefb384740249860ff604051620001179190620001e9565b60405180910390a15b565b600082825260208201905092915050565b7f496e697469616c697a61626c653a20636f6e747261637420697320696e69746960008201527f616c697a696e6700000000000000000000000000000000000000000000000000602082015250565b60006200019160278362000122565b91506200019e8262000133565b604082019050919050565b60006020820190508181036000830152620001c48162000182565b9050919050565b600060ff82169050919050565b620001e381620001cb565b82525050565b6000602082019050620002006000830184620001d8565b92915050565b6080516142fa6200023e6000396000818161094c015281816109da01528181610ef601528181610f84015261103401526142fa6000f3fe60806040526004361061012a5760003560e01c806352d1902d116100ab578063a217fddf1161006f578063a217fddf146103e5578063ce4af1d714610410578063d3b7667c1461043b578063d547741f1461047b578063f72c0d8b146104a4578063fe41ff3b146104cf5761012a565b806352d1902d146102fc57806372f8c7d514610327578063807d6dcf146103505780638129fc1c1461039157806391d14854146103a85761012a565b806336568abe116100f257806336568abe146102265780633659cfe61461024f578063399fad371461027857806343bd5191146102b55780634f1ef286146102e05761012a565b806301ffc9a71461012f5780630d5defa41461016c5780631b3f174614610197578063248a9ca3146101c05780632f2ff15d146101fd575b600080fd5b34801561013b57600080fd5b5061015660048036038101906101519190612a6d565b6104eb565b6040516101639190612ab5565b60405180910390f35b34801561017857600080fd5b50610181610565565b60405161018e9190612b11565b60405180910390f35b3480156101a357600080fd5b506101be60048036038101906101b99190612ce6565b61058b565b005b3480156101cc57600080fd5b506101e760048036038101906101e29190612dbb565b610886565b6040516101f49190612df7565b60405180910390f35b34801561020957600080fd5b50610224600480360381019061021f9190612e12565b6108a6565b005b34801561023257600080fd5b5061024d60048036038101906102489190612e12565b6108c7565b005b34801561025b57600080fd5b5061027660048036038101906102719190612e52565b61094a565b005b34801561028457600080fd5b5061029f600480360381019061029a9190612e52565b610ad2565b6040516102ac919061306a565b60405180910390f35b3480156102c157600080fd5b506102ca610d10565b6040516102d791906131b8565b60405180910390f35b6102fa60048036038101906102f5919061327b565b610ef4565b005b34801561030857600080fd5b50610311611030565b60405161031e9190612df7565b60405180910390f35b34801561033357600080fd5b5061034e60048036038101906103499190612ce6565b6110e9565b005b34801561035c57600080fd5b50610377600480360381019061037291906132d7565b6113e3565b60405161038895949392919061336c565b60405180910390f35b34801561039d57600080fd5b506103a6611567565b005b3480156103b457600080fd5b506103cf60048036038101906103ca9190612e12565b61178d565b6040516103dc9190612ab5565b60405180910390f35b3480156103f157600080fd5b506103fa6117f8565b6040516104079190612df7565b60405180910390f35b34801561041c57600080fd5b506104256117ff565b604051610432919061306a565b60405180910390f35b34801561044757600080fd5b50610462600480360381019061045d91906132d7565b6119fe565b60405161047294939291906133cd565b60405180910390f35b34801561048757600080fd5b506104a2600480360381019061049d9190612e12565b611b6f565b005b3480156104b057600080fd5b506104b9611b90565b6040516104c69190612df7565b60405180910390f35b6104e960048036038101906104e49190613420565b611bb4565b005b60007f7965db0b000000000000000000000000000000000000000000000000000000007bffffffffffffffffffffffffffffffffffffffffffffffffffffffff1916827bffffffffffffffffffffffffffffffffffffffffffffffffffffffff1916148061055e575061055d82611d48565b5b9050919050565b60fb60019054906101000a900473ffffffffffffffffffffffffffffffffffffffff1681565b7f189ab7a9244df0848122154315af71fe140f3db0fe014031783b0946b8c9d2e36105b581611db2565b6105f46040518060400160405280600981526020017f6a6f62206572726f72000000000000000000000000000000000000000000000081525083611dc6565b60006040518060a001604052808773ffffffffffffffffffffffffffffffffffffffff16815260200186815260200185815260200160001515815260200184815250905061012e81908060018154018082558091505060019003906000526020600020906005020160009091909190915060008201518160000160006101000a81548173ffffffffffffffffffffffffffffffffffffffff021916908373ffffffffffffffffffffffffffffffffffffffff1602179055506020820151816001015560408201518160020190816106cb91906136b7565b5060608201518160030160006101000a81548160ff021916908315150217905550608082015181600401908161070191906136b7565b50505061013060008773ffffffffffffffffffffffffffffffffffffffff1673ffffffffffffffffffffffffffffffffffffffff16815260200190815260200160002081908060018154018082558091505060019003906000526020600020906005020160009091909190915060008201518160000160006101000a81548173ffffffffffffffffffffffffffffffffffffffff021916908373ffffffffffffffffffffffffffffffffffffffff1602179055506020820151816001015560408201518160020190816107d491906136b7565b5060608201518160030160006101000a81548160ff021916908315150217905550608082015181600401908161080a91906136b7565b5050508573ffffffffffffffffffffffffffffffffffffffff1663f6057cec308787876040518563ffffffff1660e01b815260040161084c94939291906133cd565b600060405180830381600087803b15801561086657600080fd5b505af115801561087a573d6000803e3d6000fd5b50505050505050505050565b600060656000838152602001908152602001600020600101549050919050565b6108af82610886565b6108b881611db2565b6108c28383611e62565b505050565b6108cf611f43565b73ffffffffffffffffffffffffffffffffffffffff168173ffffffffffffffffffffffffffffffffffffffff161461093c576040517f08c379a0000000000000000000000000000000000000000000000000000000008152600401610933906137fb565b60405180910390fd5b6109468282611f4b565b5050565b7f000000000000000000000000000000000000000000000000000000000000000073ffffffffffffffffffffffffffffffffffffffff163073ffffffffffffffffffffffffffffffffffffffff16036109d8576040517f08c379a00000000000000000000000000000000000000000000000000000000081526004016109cf9061388d565b60405180910390fd5b7f000000000000000000000000000000000000000000000000000000000000000073ffffffffffffffffffffffffffffffffffffffff16610a1761202d565b73ffffffffffffffffffffffffffffffffffffffff1614610a6d576040517f08c379a0000000000000000000000000000000000000000000000000000000008152600401610a649061391f565b60405180910390fd5b610a7681612084565b610acf81600067ffffffffffffffff811115610a9557610a94612bbb565b5b6040519080825280601f01601f191660200182016040528015610ac75781602001600182028036833780820191505090505b5060006120b2565b50565b606061013060008373ffffffffffffffffffffffffffffffffffffffff1673ffffffffffffffffffffffffffffffffffffffff168152602001908152602001600020805480602002602001604051908101604052809291908181526020016000905b82821015610d0557838290600052602060002090600502016040518060a00160405290816000820160009054906101000a900473ffffffffffffffffffffffffffffffffffffffff1673ffffffffffffffffffffffffffffffffffffffff1673ffffffffffffffffffffffffffffffffffffffff16815260200160018201548152602001600282018054610bc7906134da565b80601f0160208091040260200160405190810160405280929190818152602001828054610bf3906134da565b8015610c405780601f10610c1557610100808354040283529160200191610c40565b820191906000526020600020905b815481529060010190602001808311610c2357829003601f168201915b505050505081526020016003820160009054906101000a900460ff16151515158152602001600482018054610c74906134da565b80601f0160208091040260200160405190810160405280929190818152602001828054610ca0906134da565b8015610ced5780601f10610cc257610100808354040283529160200191610ced565b820191906000526020600020905b815481529060010190602001808311610cd057829003601f168201915b50505050508152505081526020019060010190610b34565b505050509050919050565b606061012f805480602002602001604051908101604052809291908181526020016000905b82821015610eeb57838290600052602060002090600402016040518060800160405290816000820160009054906101000a900473ffffffffffffffffffffffffffffffffffffffff1673ffffffffffffffffffffffffffffffffffffffff1673ffffffffffffffffffffffffffffffffffffffff16815260200160018201548152602001600282018054610dc8906134da565b80601f0160208091040260200160405190810160405280929190818152602001828054610df4906134da565b8015610e415780601f10610e1657610100808354040283529160200191610e41565b820191906000526020600020905b815481529060010190602001808311610e2457829003601f168201915b50505050508152602001600382018054610e5a906134da565b80601f0160208091040260200160405190810160405280929190818152602001828054610e86906134da565b8015610ed35780601f10610ea857610100808354040283529160200191610ed3565b820191906000526020600020905b815481529060010190602001808311610eb657829003601f168201915b50505050508152505081526020019060010190610d35565b50505050905090565b7f000000000000000000000000000000000000000000000000000000000000000073ffffffffffffffffffffffffffffffffffffffff163073ffffffffffffffffffffffffffffffffffffffff1603610f82576040517f08c379a0000000000000000000000000000000000000000000000000000000008152600401610f799061388d565b60405180910390fd5b7f000000000000000000000000000000000000000000000000000000000000000073ffffffffffffffffffffffffffffffffffffffff16610fc161202d565b73ffffffffffffffffffffffffffffffffffffffff1614611017576040517f08c379a000000000000000000000000000000000000000000000000000000000815260040161100e9061391f565b60405180910390fd5b61102082612084565b61102c828260016120b2565b5050565b60007f000000000000000000000000000000000000000000000000000000000000000073ffffffffffffffffffffffffffffffffffffffff163073ffffffffffffffffffffffffffffffffffffffff16146110c0576040517f08c379a00000000000000000000000000000000000000000000000000000000081526004016110b7906139b1565b60405180910390fd5b7f360894a13ba1a3210667c828492db98dca3e2076cc3735a920a3ca505d382bbc60001b905090565b7f189ab7a9244df0848122154315af71fe140f3db0fe014031783b0946b8c9d2e361111381611db2565b6111516040518060400160405280600881526020017f646f207374756666000000000000000000000000000000000000000000000000815250612220565b60006040518060a001604052808773ffffffffffffffffffffffffffffffffffffffff16815260200186815260200185815260200160011515815260200184815250905061012e81908060018154018082558091505060019003906000526020600020906005020160009091909190915060008201518160000160006101000a81548173ffffffffffffffffffffffffffffffffffffffff021916908373ffffffffffffffffffffffffffffffffffffffff16021790555060208201518160010155604082015181600201908161122891906136b7565b5060608201518160030160006101000a81548160ff021916908315150217905550608082015181600401908161125e91906136b7565b50505061013060008773ffffffffffffffffffffffffffffffffffffffff1673ffffffffffffffffffffffffffffffffffffffff16815260200190815260200160002081908060018154018082558091505060019003906000526020600020906005020160009091909190915060008201518160000160006101000a81548173ffffffffffffffffffffffffffffffffffffffff021916908373ffffffffffffffffffffffffffffffffffffffff16021790555060208201518160010155604082015181600201908161133191906136b7565b5060608201518160030160006101000a81548160ff021916908315150217905550608082015181600401908161136791906136b7565b5050508573ffffffffffffffffffffffffffffffffffffffff16636df53daf308787876040518563ffffffff1660e01b81526004016113a994939291906133cd565b600060405180830381600087803b1580156113c357600080fd5b505af11580156113d7573d6000803e3d6000fd5b50505050505050505050565b61012e81815481106113f457600080fd5b90600052602060002090600502016000915090508060000160009054906101000a900473ffffffffffffffffffffffffffffffffffffffff1690806001015490806002018054611443906134da565b80601f016020809104026020016040519081016040528092919081815260200182805461146f906134da565b80156114bc5780601f10611491576101008083540402835291602001916114bc565b820191906000526020600020905b81548152906001019060200180831161149f57829003601f168201915b5050505050908060030160009054906101000a900460ff16908060040180546114e4906134da565b80601f0160208091040260200160405190810160405280929190818152602001828054611510906134da565b801561155d5780601f106115325761010080835404028352916020019161155d565b820191906000526020600020905b81548152906001019060200180831161154057829003601f168201915b5050505050905085565b60008060019054906101000a900460ff161590508080156115985750600160008054906101000a900460ff1660ff16105b806115c557506115a7306122b9565b1580156115c45750600160008054906101000a900460ff1660ff16145b5b611604576040517f08c379a00000000000000000000000000000000000000000000000000000000081526004016115fb90613a43565b60405180910390fd5b60016000806101000a81548160ff021916908360ff1602179055508015611641576001600060016101000a81548160ff0219169083151502179055505b60fb60009054906101000a900460ff1615611691576040517f08c379a000000000000000000000000000000000000000000000000000000000815260040161168890613ad5565b60405180910390fd5b6116cf6040518060400160405280602081526020017f4465706c6f79696e67204c696c797061644576656e747320636f6e7472616374815250612220565b600160fb60006101000a81548160ff0219169083151502179055506116f26122dc565b6116fa61232d565b6117076000801b3361237e565b6117317f189ab7a9244df0848122154315af71fe140f3db0fe014031783b0946b8c9d2e333611e62565b801561178a5760008060016101000a81548160ff0219169083151502179055507f7f26b83ff96e1f2b6a682f133852f6798a09c465da95921460cefb384740249860016040516117819190613b3d565b60405180910390a15b50565b60006065600084815260200190815260200160002060000160008373ffffffffffffffffffffffffffffffffffffffff1673ffffffffffffffffffffffffffffffffffffffff16815260200190815260200160002060009054906101000a900460ff16905092915050565b6000801b81565b606061012e805480602002602001604051908101604052809291908181526020016000905b828210156119f557838290600052602060002090600502016040518060a00160405290816000820160009054906101000a900473ffffffffffffffffffffffffffffffffffffffff1673ffffffffffffffffffffffffffffffffffffffff1673ffffffffffffffffffffffffffffffffffffffff168152602001600182015481526020016002820180546118b7906134da565b80601f01602080910402602001604051908101604052809291908181526020018280546118e3906134da565b80156119305780601f1061190557610100808354040283529160200191611930565b820191906000526020600020905b81548152906001019060200180831161191357829003601f168201915b505050505081526020016003820160009054906101000a900460ff16151515158152602001600482018054611964906134da565b80601f0160208091040260200160405190810160405280929190818152602001828054611990906134da565b80156119dd5780601f106119b2576101008083540402835291602001916119dd565b820191906000526020600020905b8154815290600101906020018083116119c057829003601f168201915b50505050508152505081526020019060010190611824565b50505050905090565b61012f8181548110611a0f57600080fd5b90600052602060002090600402016000915090508060000160009054906101000a900473ffffffffffffffffffffffffffffffffffffffff1690806001015490806002018054611a5e906134da565b80601f0160208091040260200160405190810160405280929190818152602001828054611a8a906134da565b8015611ad75780601f10611aac57610100808354040283529160200191611ad7565b820191906000526020600020905b815481529060010190602001808311611aba57829003601f168201915b505050505090806003018054611aec906134da565b80601f0160208091040260200160405190810160405280929190818152602001828054611b18906134da565b8015611b655780601f10611b3a57610100808354040283529160200191611b65565b820191906000526020600020905b815481529060010190602001808311611b4857829003601f168201915b5050505050905084565b611b7882610886565b611b8181611db2565b611b8b8383611f4b565b505050565b7f189ab7a9244df0848122154315af71fe140f3db0fe014031783b0946b8c9d2e381565b611bf36040518060400160405280600b81526020017f72756e20626163206a6f620000000000000000000000000000000000000000008152503361238c565b6000611c0061012d612428565b9050611c0d61012d612436565b600060405180608001604052808673ffffffffffffffffffffffffffffffffffffffff16815260200183815260200185815260200184815250905061012f81908060018154018082558091505060019003906000526020600020906004020160009091909190915060008201518160000160006101000a81548173ffffffffffffffffffffffffffffffffffffffff021916908373ffffffffffffffffffffffffffffffffffffffff160217905550602082015181600101556040820151816002019081611cdb91906136b7565b506060820151816003019081611cf191906136b7565b505050813373ffffffffffffffffffffffffffffffffffffffff167f46e1125364fc85bb83a2688b3a3a653a703b28f056096ae099d104e66ab6ab09604051611d3990613bf0565b60405180910390a35050505050565b60007f01ffc9a7000000000000000000000000000000000000000000000000000000007bffffffffffffffffffffffffffffffffffffffffffffffffffffffff1916827bffffffffffffffffffffffffffffffffffffffffffffffffffffffff1916149050919050565b611dc381611dbe611f43565b61244c565b50565b611e5e8282604051602401611ddc929190613c23565b6040516020818303038152906040527f4b5c4277000000000000000000000000000000000000000000000000000000007bffffffffffffffffffffffffffffffffffffffffffffffffffffffff19166020820180517bffffffffffffffffffffffffffffffffffffffffffffffffffffffff83818316178352505050506124d1565b5050565b611e6c828261178d565b611f3f5760016065600084815260200190815260200160002060000160008373ffffffffffffffffffffffffffffffffffffffff1673ffffffffffffffffffffffffffffffffffffffff16815260200190815260200160002060006101000a81548160ff021916908315150217905550611ee4611f43565b73ffffffffffffffffffffffffffffffffffffffff168173ffffffffffffffffffffffffffffffffffffffff16837f2f8788117e7eff1d82e926ec794901d17c78024a50270940304540a733656f0d60405160405180910390a45b5050565b600033905090565b611f55828261178d565b156120295760006065600084815260200190815260200160002060000160008373ffffffffffffffffffffffffffffffffffffffff1673ffffffffffffffffffffffffffffffffffffffff16815260200190815260200160002060006101000a81548160ff021916908315150217905550611fce611f43565b73ffffffffffffffffffffffffffffffffffffffff168173ffffffffffffffffffffffffffffffffffffffff16837ff6391f5c32d9c69d2a47ea670b442974b53935d1edc7fd64eb21e047a839171b60405160405180910390a45b5050565b600061205b7f360894a13ba1a3210667c828492db98dca3e2076cc3735a920a3ca505d382bbc60001b6124fa565b60000160009054906101000a900473ffffffffffffffffffffffffffffffffffffffff16905090565b7f189ab7a9244df0848122154315af71fe140f3db0fe014031783b0946b8c9d2e36120ae81611db2565b5050565b6120de7f4910fdfa16fed3260ed0e7147f7cc6da11a60208b5b9406d12a635614ffd914360001b612504565b60000160009054906101000a900460ff1615612102576120fd8361250e565b61221b565b8273ffffffffffffffffffffffffffffffffffffffff166352d1902d6040518163ffffffff1660e01b8152600401602060405180830381865afa92505050801561216a57506040513d601f19601f820116820180604052508101906121679190613c6f565b60015b6121a9576040517f08c379a00000000000000000000000000000000000000000000000000000000081526004016121a090613d0e565b60405180910390fd5b7f360894a13ba1a3210667c828492db98dca3e2076cc3735a920a3ca505d382bbc60001b811461220e576040517f08c379a000000000000000000000000000000000000000000000000000000000815260040161220590613da0565b60405180910390fd5b5061221a8383836125c7565b5b505050565b6122b6816040516024016122349190613dc0565b6040516020818303038152906040527f41304fac000000000000000000000000000000000000000000000000000000007bffffffffffffffffffffffffffffffffffffffffffffffffffffffff19166020820180517bffffffffffffffffffffffffffffffffffffffffffffffffffffffff83818316178352505050506124d1565b50565b6000808273ffffffffffffffffffffffffffffffffffffffff163b119050919050565b600060019054906101000a900460ff1661232b576040517f08c379a000000000000000000000000000000000000000000000000000000000815260040161232290613e54565b60405180910390fd5b565b600060019054906101000a900460ff1661237c576040517f08c379a000000000000000000000000000000000000000000000000000000000815260040161237390613e54565b60405180910390fd5b565b6123888282611e62565b5050565b61242482826040516024016123a2929190613e74565b6040516020818303038152906040527f319af333000000000000000000000000000000000000000000000000000000007bffffffffffffffffffffffffffffffffffffffffffffffffffffffff19166020820180517bffffffffffffffffffffffffffffffffffffffffffffffffffffffff83818316178352505050506124d1565b5050565b600081600001549050919050565b6001816000016000828254019250508190555050565b612456828261178d565b6124cd57612463816125f3565b6124718360001c6020612620565b604051602001612482929190613f78565b6040516020818303038152906040526040517f08c379a00000000000000000000000000000000000000000000000000000000081526004016124c49190613dc0565b60405180910390fd5b5050565b60008151905060006a636f6e736f6c652e6c6f679050602083016000808483855afa5050505050565b6000819050919050565b6000819050919050565b612517816122b9565b612556576040517f08c379a000000000000000000000000000000000000000000000000000000000815260040161254d90614024565b60405180910390fd5b806125837f360894a13ba1a3210667c828492db98dca3e2076cc3735a920a3ca505d382bbc60001b6124fa565b60000160006101000a81548173ffffffffffffffffffffffffffffffffffffffff021916908373ffffffffffffffffffffffffffffffffffffffff16021790555050565b6125d08361285c565b6000825111806125dd5750805b156125ee576125ec83836128ab565b505b505050565b60606126198273ffffffffffffffffffffffffffffffffffffffff16601460ff16612620565b9050919050565b6060600060028360026126339190614073565b61263d91906140b5565b67ffffffffffffffff81111561265657612655612bbb565b5b6040519080825280601f01601f1916602001820160405280156126885781602001600182028036833780820191505090505b5090507f3000000000000000000000000000000000000000000000000000000000000000816000815181106126c0576126bf6140e9565b5b60200101907effffffffffffffffffffffffffffffffffffffffffffffffffffffffffffff1916908160001a9053507f780000000000000000000000000000000000000000000000000000000000000081600181518110612724576127236140e9565b5b60200101907effffffffffffffffffffffffffffffffffffffffffffffffffffffffffffff1916908160001a905350600060018460026127649190614073565b61276e91906140b5565b90505b600181111561280e577f3031323334353637383961626364656600000000000000000000000000000000600f8616601081106127b0576127af6140e9565b5b1a60f81b8282815181106127c7576127c66140e9565b5b60200101907effffffffffffffffffffffffffffffffffffffffffffffffffffffffffffff1916908160001a905350600485901c94508061280790614118565b9050612771565b5060008414612852576040517f08c379a00000000000000000000000000000000000000000000000000000000081526004016128499061418d565b60405180910390fd5b8091505092915050565b6128658161250e565b8073ffffffffffffffffffffffffffffffffffffffff167fbc7cd75a20ee27fd9adebab32041f755214dbc6bffa90cc0225b39da2e5c2d3b60405160405180910390a250565b60606128b6836122b9565b6128f5576040517f08c379a00000000000000000000000000000000000000000000000000000000081526004016128ec9061421f565b60405180910390fd5b6000808473ffffffffffffffffffffffffffffffffffffffff168460405161291d9190614286565b600060405180830381855af49150503d8060008114612958576040519150601f19603f3d011682016040523d82523d6000602084013e61295d565b606091505b5091509150612985828260405180606001604052806027815260200161429e6027913961298f565b9250505092915050565b6060831561299f578290506129aa565b6129a983836129b1565b5b9392505050565b6000825111156129c45781518083602001fd5b806040517f08c379a00000000000000000000000000000000000000000000000000000000081526004016129f89190613dc0565b60405180910390fd5b6000604051905090565b600080fd5b600080fd5b60007fffffffff0000000000000000000000000000000000000000000000000000000082169050919050565b612a4a81612a15565b8114612a5557600080fd5b50565b600081359050612a6781612a41565b92915050565b600060208284031215612a8357612a82612a0b565b5b6000612a9184828501612a58565b91505092915050565b60008115159050919050565b612aaf81612a9a565b82525050565b6000602082019050612aca6000830184612aa6565b92915050565b600073ffffffffffffffffffffffffffffffffffffffff82169050919050565b6000612afb82612ad0565b9050919050565b612b0b81612af0565b82525050565b6000602082019050612b266000830184612b02565b92915050565b6000612b3782612ad0565b9050919050565b612b4781612b2c565b8114612b5257600080fd5b50565b600081359050612b6481612b3e565b92915050565b6000819050919050565b612b7d81612b6a565b8114612b8857600080fd5b50565b600081359050612b9a81612b74565b92915050565b600080fd5b600080fd5b6000601f19601f8301169050919050565b7f4e487b7100000000000000000000000000000000000000000000000000000000600052604160045260246000fd5b612bf382612baa565b810181811067ffffffffffffffff82111715612c1257612c11612bbb565b5b80604052505050565b6000612c25612a01565b9050612c318282612bea565b919050565b600067ffffffffffffffff821115612c5157612c50612bbb565b5b612c5a82612baa565b9050602081019050919050565b82818337600083830152505050565b6000612c89612c8484612c36565b612c1b565b905082815260208101848484011115612ca557612ca4612ba5565b5b612cb0848285612c67565b509392505050565b600082601f830112612ccd57612ccc612ba0565b5b8135612cdd848260208601612c76565b91505092915050565b60008060008060808587031215612d0057612cff612a0b565b5b6000612d0e87828801612b55565b9450506020612d1f87828801612b8b565b935050604085013567ffffffffffffffff811115612d4057612d3f612a10565b5b612d4c87828801612cb8565b925050606085013567ffffffffffffffff811115612d6d57612d6c612a10565b5b612d7987828801612cb8565b91505092959194509250565b6000819050919050565b612d9881612d85565b8114612da357600080fd5b50565b600081359050612db581612d8f565b92915050565b600060208284031215612dd157612dd0612a0b565b5b6000612ddf84828501612da6565b91505092915050565b612df181612d85565b82525050565b6000602082019050612e0c6000830184612de8565b92915050565b60008060408385031215612e2957612e28612a0b565b5b6000612e3785828601612da6565b9250506020612e4885828601612b55565b9150509250929050565b600060208284031215612e6857612e67612a0b565b5b6000612e7684828501612b55565b91505092915050565b600081519050919050565b600082825260208201905092915050565b6000819050602082019050919050565b612eb481612b2c565b82525050565b612ec381612b6a565b82525050565b600081519050919050565b600082825260208201905092915050565b60005b83811015612f03578082015181840152602081019050612ee8565b60008484015250505050565b6000612f1a82612ec9565b612f248185612ed4565b9350612f34818560208601612ee5565b612f3d81612baa565b840191505092915050565b612f5181612a9a565b82525050565b600060a083016000830151612f6f6000860182612eab565b506020830151612f826020860182612eba565b5060408301518482036040860152612f9a8282612f0f565b9150506060830151612faf6060860182612f48565b5060808301518482036080860152612fc78282612f0f565b9150508091505092915050565b6000612fe08383612f57565b905092915050565b6000602082019050919050565b600061300082612e7f565b61300a8185612e8a565b93508360208202850161301c85612e9b565b8060005b8581101561305857848403895281516130398582612fd4565b945061304483612fe8565b925060208a01995050600181019050613020565b50829750879550505050505092915050565b600060208201905081810360008301526130848184612ff5565b905092915050565b600081519050919050565b600082825260208201905092915050565b6000819050602082019050919050565b60006080830160008301516130d06000860182612eab565b5060208301516130e36020860182612eba565b50604083015184820360408601526130fb8282612f0f565b915050606083015184820360608601526131158282612f0f565b9150508091505092915050565b600061312e83836130b8565b905092915050565b6000602082019050919050565b600061314e8261308c565b6131588185613097565b93508360208202850161316a856130a8565b8060005b858110156131a657848403895281516131878582613122565b945061319283613136565b925060208a0199505060018101905061316e565b50829750879550505050505092915050565b600060208201905081810360008301526131d28184613143565b905092915050565b600067ffffffffffffffff8211156131f5576131f4612bbb565b5b6131fe82612baa565b9050602081019050919050565b600061321e613219846131da565b612c1b565b90508281526020810184848401111561323a57613239612ba5565b5b613245848285612c67565b509392505050565b600082601f83011261326257613261612ba0565b5b813561327284826020860161320b565b91505092915050565b6000806040838503121561329257613291612a0b565b5b60006132a085828601612b55565b925050602083013567ffffffffffffffff8111156132c1576132c0612a10565b5b6132cd8582860161324d565b9150509250929050565b6000602082840312156132ed576132ec612a0b565b5b60006132fb84828501612b8b565b91505092915050565b61330d81612b2c565b82525050565b61331c81612b6a565b82525050565b600082825260208201905092915050565b600061333e82612ec9565b6133488185613322565b9350613358818560208601612ee5565b61336181612baa565b840191505092915050565b600060a0820190506133816000830188613304565b61338e6020830187613313565b81810360408301526133a08186613333565b90506133af6060830185612aa6565b81810360808301526133c18184613333565b90509695505050505050565b60006080820190506133e26000830187613304565b6133ef6020830186613313565b81810360408301526134018185613333565b905081810360608301526134158184613333565b905095945050505050565b60008060006060848603121561343957613438612a0b565b5b600061344786828701612b55565b935050602084013567ffffffffffffffff81111561346857613467612a10565b5b61347486828701612cb8565b925050604084013567ffffffffffffffff81111561349557613494612a10565b5b6134a186828701612cb8565b9150509250925092565b7f4e487b7100000000000000000000000000000000000000000000000000000000600052602260045260246000fd5b600060028204905060018216806134f257607f821691505b602082108103613505576135046134ab565b5b50919050565b60008190508160005260206000209050919050565b60006020601f8301049050919050565b600082821b905092915050565b60006008830261356d7fffffffffffffffffffffffffffffffffffffffffffffffffffffffffffffffff82613530565b6135778683613530565b95508019841693508086168417925050509392505050565b6000819050919050565b60006135b46135af6135aa84612b6a565b61358f565b612b6a565b9050919050565b6000819050919050565b6135ce83613599565b6135e26135da826135bb565b84845461353d565b825550505050565b600090565b6135f76135ea565b6136028184846135c5565b505050565b5b818110156136265761361b6000826135ef565b600181019050613608565b5050565b601f82111561366b5761363c8161350b565b61364584613520565b81016020851015613654578190505b61366861366085613520565b830182613607565b50505b505050565b600082821c905092915050565b600061368e60001984600802613670565b1980831691505092915050565b60006136a7838361367d565b9150826002028217905092915050565b6136c082612ec9565b67ffffffffffffffff8111156136d9576136d8612bbb565b5b6136e382546134da565b6136ee82828561362a565b600060209050601f831160018114613721576000841561370f578287015190505b613719858261369b565b865550613781565b601f19841661372f8661350b565b60005b8281101561375757848901518255600182019150602085019450602081019050613732565b868310156137745784890151613770601f89168261367d565b8355505b6001600288020188555050505b505050505050565b7f416363657373436f6e74726f6c3a2063616e206f6e6c792072656e6f756e636560008201527f20726f6c657320666f722073656c660000000000000000000000000000000000602082015250565b60006137e5602f83613322565b91506137f082613789565b604082019050919050565b60006020820190508181036000830152613814816137d8565b9050919050565b7f46756e6374696f6e206d7573742062652063616c6c6564207468726f7567682060008201527f64656c656761746563616c6c0000000000000000000000000000000000000000602082015250565b6000613877602c83613322565b91506138828261381b565b604082019050919050565b600060208201905081810360008301526138a68161386a565b9050919050565b7f46756e6374696f6e206d7573742062652063616c6c6564207468726f7567682060008201527f6163746976652070726f78790000000000000000000000000000000000000000602082015250565b6000613909602c83613322565b9150613914826138ad565b604082019050919050565b60006020820190508181036000830152613938816138fc565b9050919050565b7f555550535570677261646561626c653a206d757374206e6f742062652063616c60008201527f6c6564207468726f7567682064656c656761746563616c6c0000000000000000602082015250565b600061399b603883613322565b91506139a68261393f565b604082019050919050565b600060208201905081810360008301526139ca8161398e565b9050919050565b7f496e697469616c697a61626c653a20636f6e747261637420697320616c72656160008201527f647920696e697469616c697a6564000000000000000000000000000000000000602082015250565b6000613a2d602e83613322565b9150613a38826139d1565b604082019050919050565b60006020820190508181036000830152613a5c81613a20565b9050919050565b7f436f6e747261637420496e7374616e63652068617320616c726561647920626560008201527f656e20696e697469616c697a6564000000000000000000000000000000000000602082015250565b6000613abf602e83613322565b9150613aca82613a63565b604082019050919050565b60006020820190508181036000830152613aee81613ab2565b9050919050565b6000819050919050565b600060ff82169050919050565b6000613b27613b22613b1d84613af5565b61358f565b613aff565b9050919050565b613b3781613b0c565b82525050565b6000602082019050613b526000830184613b2e565b92915050565b7f537461626c65446966667573696f6e4750550000000000000000000000000000600082015250565b6000613b8e601283613322565b9150613b9982613b58565b602082019050919050565b7f7b2270726f6d7074223a225261696e626f77556e69636f726e7d000000000000600082015250565b6000613bda601a83613322565b9150613be582613ba4565b602082019050919050565b60006040820190508181036000830152613c0981613b81565b90508181036020830152613c1c81613bcd565b9050919050565b60006040820190508181036000830152613c3d8185613333565b90508181036020830152613c518184613333565b90509392505050565b600081519050613c6981612d8f565b92915050565b600060208284031215613c8557613c84612a0b565b5b6000613c9384828501613c5a565b91505092915050565b7f45524331393637557067726164653a206e657720696d706c656d656e7461746960008201527f6f6e206973206e6f742055555053000000000000000000000000000000000000602082015250565b6000613cf8602e83613322565b9150613d0382613c9c565b604082019050919050565b60006020820190508181036000830152613d2781613ceb565b9050919050565b7f45524331393637557067726164653a20756e737570706f727465642070726f7860008201527f6961626c65555549440000000000000000000000000000000000000000000000602082015250565b6000613d8a602983613322565b9150613d9582613d2e565b604082019050919050565b60006020820190508181036000830152613db981613d7d565b9050919050565b60006020820190508181036000830152613dda8184613333565b905092915050565b7f496e697469616c697a61626c653a20636f6e7472616374206973206e6f74206960008201527f6e697469616c697a696e67000000000000000000000000000000000000000000602082015250565b6000613e3e602b83613322565b9150613e4982613de2565b604082019050919050565b60006020820190508181036000830152613e6d81613e31565b9050919050565b60006040820190508181036000830152613e8e8185613333565b9050613e9d6020830184613304565b9392505050565b600081905092915050565b7f416363657373436f6e74726f6c3a206163636f756e7420000000000000000000600082015250565b6000613ee5601783613ea4565b9150613ef082613eaf565b601782019050919050565b6000613f0682612ec9565b613f108185613ea4565b9350613f20818560208601612ee5565b80840191505092915050565b7f206973206d697373696e6720726f6c6520000000000000000000000000000000600082015250565b6000613f62601183613ea4565b9150613f6d82613f2c565b601182019050919050565b6000613f8382613ed8565b9150613f8f8285613efb565b9150613f9a82613f55565b9150613fa68284613efb565b91508190509392505050565b7f455243313936373a206e657720696d706c656d656e746174696f6e206973206e60008201527f6f74206120636f6e747261637400000000000000000000000000000000000000602082015250565b600061400e602d83613322565b915061401982613fb2565b604082019050919050565b6000602082019050818103600083015261403d81614001565b9050919050565b7f4e487b7100000000000000000000000000000000000000000000000000000000600052601160045260246000fd5b600061407e82612b6a565b915061408983612b6a565b925082820261409781612b6a565b915082820484148315176140ae576140ad614044565b5b5092915050565b60006140c082612b6a565b91506140cb83612b6a565b92508282019050808211156140e3576140e2614044565b5b92915050565b7f4e487b7100000000000000000000000000000000000000000000000000000000600052603260045260246000fd5b600061412382612b6a565b91506000820361413657614135614044565b5b600182039050919050565b7f537472696e67733a20686578206c656e67746820696e73756666696369656e74600082015250565b6000614177602083613322565b915061418282614141565b602082019050919050565b600060208201905081810360008301526141a68161416a565b9050919050565b7f416464726573733a2064656c65676174652063616c6c20746f206e6f6e2d636f60008201527f6e74726163740000000000000000000000000000000000000000000000000000602082015250565b6000614209602683613322565b9150614214826141ad565b604082019050919050565b60006020820190508181036000830152614238816141fc565b9050919050565b600081519050919050565b600081905092915050565b60006142608261423f565b61426a818561424a565b935061427a818560208601612ee5565b80840191505092915050565b60006142928284614255565b91508190509291505056fe416464726573733a206c6f772d6c6576656c2064656c65676174652063616c6c206661696c6564a264697066735822122022e736c3e216258daee5f61daa62495f7031355eab34627ff23c5d4c48cb021f64736f6c63430008110033",
  "linkReferences": {},
  "deployedLinkReferences": {}
}