{
  "_format": "hh-sol-artifact-1",
  "contractName": "LilypadEscrow",
  "sourceName": "contracts/LilypadEscrow.sol",
  "abi": [
    {
      "anonymous": false,
      "inputs": [
        {
          "indexed": false,
          "internalType": "uint8",
          "name": "version",
          "type": "uint8"
        }
      ],
      "name": "Initialized",
      "type": "event"
    },
    {
      "anonymous": false,
      "inputs": [
        {
          "indexed": true,
          "internalType": "bytes32",
          "name": "role",
          "type": "bytes32"
        },
        {
          "indexed": true,
          "internalType": "bytes32",
          "name": "previousAdminRole",
          "type": "bytes32"
        },
        {
          "indexed": true,
          "internalType": "bytes32",
          "name": "newAdminRole",
          "type": "bytes32"
        }
      ],
      "name": "RoleAdminChanged",
      "type": "event"
    },
    {
      "anonymous": false,
      "inputs": [
        {
          "indexed": true,
          "internalType": "bytes32",
          "name": "role",
          "type": "bytes32"
        },
        {
          "indexed": true,
          "internalType": "address",
          "name": "account",
          "type": "address"
        },
        {
          "indexed": true,
          "internalType": "address",
          "name": "sender",
          "type": "address"
        }
      ],
      "name": "RoleGranted",
      "type": "event"
    },
    {
      "anonymous": false,
      "inputs": [
        {
          "indexed": true,
          "internalType": "bytes32",
          "name": "role",
          "type": "bytes32"
        },
        {
          "indexed": true,
          "internalType": "address",
          "name": "account",
          "type": "address"
        },
        {
          "indexed": true,
          "internalType": "address",
          "name": "sender",
          "type": "address"
        }
      ],
      "name": "RoleRevoked",
      "type": "event"
    },
    {
      "inputs": [],
      "name": "DEFAULT_ADMIN_ROLE",
      "outputs": [
        {
          "internalType": "bytes32",
          "name": "",
          "type": "bytes32"
        }
      ],
      "stateMutability": "view",
      "type": "function"
    },
    {
      "inputs": [],
      "name": "Owner",
      "outputs": [
        {
          "internalType": "address payable",
          "name": "",
          "type": "address"
        }
      ],
      "stateMutability": "view",
      "type": "function"
    },
    {
      "inputs": [
        {
          "internalType": "bytes32",
          "name": "role",
          "type": "bytes32"
        }
      ],
      "name": "getRoleAdmin",
      "outputs": [
        {
          "internalType": "bytes32",
          "name": "",
          "type": "bytes32"
        }
      ],
      "stateMutability": "view",
      "type": "function"
    },
    {
      "inputs": [
        {
          "internalType": "bytes32",
          "name": "role",
          "type": "bytes32"
        },
        {
          "internalType": "address",
          "name": "account",
          "type": "address"
        }
      ],
      "name": "grantRole",
      "outputs": [],
      "stateMutability": "nonpayable",
      "type": "function"
    },
    {
      "inputs": [
        {
          "internalType": "bytes32",
          "name": "role",
          "type": "bytes32"
        },
        {
          "internalType": "address",
          "name": "account",
          "type": "address"
        }
      ],
      "name": "hasRole",
      "outputs": [
        {
          "internalType": "bool",
          "name": "",
          "type": "bool"
        }
      ],
      "stateMutability": "view",
      "type": "function"
    },
    {
      "inputs": [
        {
          "internalType": "bytes32",
          "name": "role",
          "type": "bytes32"
        },
        {
          "internalType": "address",
          "name": "account",
          "type": "address"
        }
      ],
      "name": "renounceRole",
      "outputs": [],
      "stateMutability": "nonpayable",
      "type": "function"
    },
    {
      "inputs": [
        {
          "internalType": "bytes32",
          "name": "role",
          "type": "bytes32"
        },
        {
          "internalType": "address",
          "name": "account",
          "type": "address"
        }
      ],
      "name": "revokeRole",
      "outputs": [],
      "stateMutability": "nonpayable",
      "type": "function"
    },
    {
      "inputs": [
        {
          "internalType": "bytes4",
          "name": "interfaceId",
          "type": "bytes4"
        }
      ],
      "name": "supportsInterface",
      "outputs": [
        {
          "internalType": "bool",
          "name": "",
          "type": "bool"
        }
      ],
      "stateMutability": "view",
      "type": "function"
    },
    {
      "inputs": [],
      "name": "transfer",
      "outputs": [],
      "stateMutability": "nonpayable",
      "type": "function"
    },
    {
      "inputs": [
        {
          "internalType": "uint256",
          "name": "_amount",
          "type": "uint256"
        }
      ],
      "name": "withdraw",
      "outputs": [],
      "stateMutability": "nonpayable",
      "type": "function"
    },
    {
      "stateMutability": "payable",
      "type": "receive"
    }
  ],
  "bytecode": "0x608060405234801561001057600080fd5b5061123b806100206000396000f3fe6080604052600436106100955760003560e01c80638a4068dd116100595780638a4068dd1461019657806391d14854146101ad578063a217fddf146101ea578063b4a99a4e14610215578063d547741f146102405761009c565b806301ffc9a7146100a1578063248a9ca3146100de5780632e1a7d4d1461011b5780632f2ff15d1461014457806336568abe1461016d5761009c565b3661009c57005b600080fd5b3480156100ad57600080fd5b506100c860048036038101906100c39190610b82565b610269565b6040516100d59190610bca565b60405180910390f35b3480156100ea57600080fd5b5061010560048036038101906101009190610c1b565b6102e3565b6040516101129190610c57565b60405180910390f35b34801561012757600080fd5b50610142600480360381019061013d9190610ca8565b610303565b005b34801561015057600080fd5b5061016b60048036038101906101669190610d33565b6103ff565b005b34801561017957600080fd5b50610194600480360381019061018f9190610d33565b610420565b005b3480156101a257600080fd5b506101ab6104a3565b005b3480156101b957600080fd5b506101d460048036038101906101cf9190610d33565b610535565b6040516101e19190610bca565b60405180910390f35b3480156101f657600080fd5b506101ff6105a0565b60405161020c9190610c57565b60405180910390f35b34801561022157600080fd5b5061022a6105a7565b6040516102379190610d94565b60405180910390f35b34801561024c57600080fd5b5061026760048036038101906102629190610d33565b6105cd565b005b60007f7965db0b000000000000000000000000000000000000000000000000000000007bffffffffffffffffffffffffffffffffffffffffffffffffffffffff1916827bffffffffffffffffffffffffffffffffffffffffffffffffffffffff191614806102dc57506102db826105ee565b5b9050919050565b600060656000838152602001908152602001600020600101549050919050565b609760009054906101000a900473ffffffffffffffffffffffffffffffffffffffff1673ffffffffffffffffffffffffffffffffffffffff163373ffffffffffffffffffffffffffffffffffffffff1614610393576040517f08c379a000000000000000000000000000000000000000000000000000000000815260040161038a90610e0c565b60405180910390fd5b609760009054906101000a900473ffffffffffffffffffffffffffffffffffffffff1673ffffffffffffffffffffffffffffffffffffffff166108fc829081150290604051600060405180830381858888f193505050501580156103fb573d6000803e3d6000fd5b5050565b610408826102e3565b61041181610658565b61041b838361066c565b505050565b61042861074d565b73ffffffffffffffffffffffffffffffffffffffff168173ffffffffffffffffffffffffffffffffffffffff1614610495576040517f08c379a000000000000000000000000000000000000000000000000000000000815260040161048c90610e9e565b60405180910390fd5b61049f8282610755565b5050565b609760009054906101000a900473ffffffffffffffffffffffffffffffffffffffff1673ffffffffffffffffffffffffffffffffffffffff163373ffffffffffffffffffffffffffffffffffffffff1614610533576040517f08c379a000000000000000000000000000000000000000000000000000000000815260040161052a90610e0c565b60405180910390fd5b565b60006065600084815260200190815260200160002060000160008373ffffffffffffffffffffffffffffffffffffffff1673ffffffffffffffffffffffffffffffffffffffff16815260200190815260200160002060009054906101000a900460ff16905092915050565b6000801b81565b609760009054906101000a900473ffffffffffffffffffffffffffffffffffffffff1681565b6105d6826102e3565b6105df81610658565b6105e98383610755565b505050565b60007f01ffc9a7000000000000000000000000000000000000000000000000000000007bffffffffffffffffffffffffffffffffffffffffffffffffffffffff1916827bffffffffffffffffffffffffffffffffffffffffffffffffffffffff1916149050919050565b6106698161066461074d565b610837565b50565b6106768282610535565b6107495760016065600084815260200190815260200160002060000160008373ffffffffffffffffffffffffffffffffffffffff1673ffffffffffffffffffffffffffffffffffffffff16815260200190815260200160002060006101000a81548160ff0219169083151502179055506106ee61074d565b73ffffffffffffffffffffffffffffffffffffffff168173ffffffffffffffffffffffffffffffffffffffff16837f2f8788117e7eff1d82e926ec794901d17c78024a50270940304540a733656f0d60405160405180910390a45b5050565b600033905090565b61075f8282610535565b156108335760006065600084815260200190815260200160002060000160008373ffffffffffffffffffffffffffffffffffffffff1673ffffffffffffffffffffffffffffffffffffffff16815260200190815260200160002060006101000a81548160ff0219169083151502179055506107d861074d565b73ffffffffffffffffffffffffffffffffffffffff168173ffffffffffffffffffffffffffffffffffffffff16837ff6391f5c32d9c69d2a47ea670b442974b53935d1edc7fd64eb21e047a839171b60405160405180910390a45b5050565b6108418282610535565b6108b85761084e816108bc565b61085c8360001c60206108e9565b60405160200161086d929190610fc7565b6040516020818303038152906040526040517f08c379a00000000000000000000000000000000000000000000000000000000081526004016108af919061104b565b60405180910390fd5b5050565b60606108e28273ffffffffffffffffffffffffffffffffffffffff16601460ff166108e9565b9050919050565b6060600060028360026108fc919061109c565b61090691906110de565b67ffffffffffffffff81111561091f5761091e611112565b5b6040519080825280601f01601f1916602001820160405280156109515781602001600182028036833780820191505090505b5090507f30000000000000000000000000000000000000000000000000000000000000008160008151811061098957610988611141565b5b60200101907effffffffffffffffffffffffffffffffffffffffffffffffffffffffffffff1916908160001a9053507f7800000000000000000000000000000000000000000000000000000000000000816001815181106109ed576109ec611141565b5b60200101907effffffffffffffffffffffffffffffffffffffffffffffffffffffffffffff1916908160001a90535060006001846002610a2d919061109c565b610a3791906110de565b90505b6001811115610ad7577f3031323334353637383961626364656600000000000000000000000000000000600f861660108110610a7957610a78611141565b5b1a60f81b828281518110610a9057610a8f611141565b5b60200101907effffffffffffffffffffffffffffffffffffffffffffffffffffffffffffff1916908160001a905350600485901c945080610ad090611170565b9050610a3a565b5060008414610b1b576040517f08c379a0000000000000000000000000000000000000000000000000000000008152600401610b12906111e5565b60405180910390fd5b8091505092915050565b600080fd5b60007fffffffff0000000000000000000000000000000000000000000000000000000082169050919050565b610b5f81610b2a565b8114610b6a57600080fd5b50565b600081359050610b7c81610b56565b92915050565b600060208284031215610b9857610b97610b25565b5b6000610ba684828501610b6d565b91505092915050565b60008115159050919050565b610bc481610baf565b82525050565b6000602082019050610bdf6000830184610bbb565b92915050565b6000819050919050565b610bf881610be5565b8114610c0357600080fd5b50565b600081359050610c1581610bef565b92915050565b600060208284031215610c3157610c30610b25565b5b6000610c3f84828501610c06565b91505092915050565b610c5181610be5565b82525050565b6000602082019050610c6c6000830184610c48565b92915050565b6000819050919050565b610c8581610c72565b8114610c9057600080fd5b50565b600081359050610ca281610c7c565b92915050565b600060208284031215610cbe57610cbd610b25565b5b6000610ccc84828501610c93565b91505092915050565b600073ffffffffffffffffffffffffffffffffffffffff82169050919050565b6000610d0082610cd5565b9050919050565b610d1081610cf5565b8114610d1b57600080fd5b50565b600081359050610d2d81610d07565b92915050565b60008060408385031215610d4a57610d49610b25565b5b6000610d5885828601610c06565b9250506020610d6985828601610d1e565b9150509250929050565b6000610d7e82610cd5565b9050919050565b610d8e81610d73565b82525050565b6000602082019050610da96000830184610d85565b92915050565b600082825260208201905092915050565b7f4e6f74206f776e65720000000000000000000000000000000000000000000000600082015250565b6000610df6600983610daf565b9150610e0182610dc0565b602082019050919050565b60006020820190508181036000830152610e2581610de9565b9050919050565b7f416363657373436f6e74726f6c3a2063616e206f6e6c792072656e6f756e636560008201527f20726f6c657320666f722073656c660000000000000000000000000000000000602082015250565b6000610e88602f83610daf565b9150610e9382610e2c565b604082019050919050565b60006020820190508181036000830152610eb781610e7b565b9050919050565b600081905092915050565b7f416363657373436f6e74726f6c3a206163636f756e7420000000000000000000600082015250565b6000610eff601783610ebe565b9150610f0a82610ec9565b601782019050919050565b600081519050919050565b60005b83811015610f3e578082015181840152602081019050610f23565b60008484015250505050565b6000610f5582610f15565b610f5f8185610ebe565b9350610f6f818560208601610f20565b80840191505092915050565b7f206973206d697373696e6720726f6c6520000000000000000000000000000000600082015250565b6000610fb1601183610ebe565b9150610fbc82610f7b565b601182019050919050565b6000610fd282610ef2565b9150610fde8285610f4a565b9150610fe982610fa4565b9150610ff58284610f4a565b91508190509392505050565b6000601f19601f8301169050919050565b600061101d82610f15565b6110278185610daf565b9350611037818560208601610f20565b61104081611001565b840191505092915050565b600060208201905081810360008301526110658184611012565b905092915050565b7f4e487b7100000000000000000000000000000000000000000000000000000000600052601160045260246000fd5b60006110a782610c72565b91506110b283610c72565b92508282026110c081610c72565b915082820484148315176110d7576110d661106d565b5b5092915050565b60006110e982610c72565b91506110f483610c72565b925082820190508082111561110c5761110b61106d565b5b92915050565b7f4e487b7100000000000000000000000000000000000000000000000000000000600052604160045260246000fd5b7f4e487b7100000000000000000000000000000000000000000000000000000000600052603260045260246000fd5b600061117b82610c72565b91506000820361118e5761118d61106d565b5b600182039050919050565b7f537472696e67733a20686578206c656e67746820696e73756666696369656e74600082015250565b60006111cf602083610daf565b91506111da82611199565b602082019050919050565b600060208201905081810360008301526111fe816111c2565b905091905056fea2646970667358221220df10825f999585e55567030f55513382607bd2fa499c33fc6ebed78f1247e27b64736f6c63430008110033",
  "linkReferences": {},
  "deployedLinkReferences": {}
}