{"contracts/DrandCaller.sol":{"DrandCaller":{"abi":[{"inputs":[{"internalType":"address","name":"bridgeContract","type":"address"}],"stateMutability":"nonpayable","type":"constructor"},{"anonymous":false,"inputs":[{"indexed":false,"internalType":"uint256","name":"number","type":"uint256"}],"name":"RandomNumberGenerated","type":"event"},{"inputs":[{"internalType":"uint256","name":"minimum","type":"uint256"},{"internalType":"uint256","name":"maximum","type":"uint256"}],"name":"getRandomNumber","outputs":[],"stateMutability":"nonpayable","type":"function"},{"inputs":[{"internalType":"address","name":"_from","type":"address"},{"internalType":"uint256","name":"_jobId","type":"uint256"},{"internalType":"enum LilypadResultType","name":"_resultType","type":"uint8"},{"internalType":"string","name":"_result","type":"string"}],"name":"lilypadReceiver","outputs":[],"stateMutability":"nonpayable","type":"function"},{"inputs":[{"internalType":"address","name":"_eventsAddress","type":"address"}],"name":"setLPEventsAddress","outputs":[],"stateMutability":"nonpayable","type":"function"}],"evm":{"bytecode":{"linkReferences":{},"object":"60806040523480156200001157600080fd5b50604051620012aa380380620012aa833981810160405281019062000037919062000213565b620000826040518060400160405280601881526020017f4465706c6f79696e67204472616e6420636f6e747261637400000000000000008152506200009a60201b620002621760201c565b62000093816200013d60201b60201c565b5062000303565b6200013a81604051602401620000b19190620002df565b6040516020818303038152906040527f41304fac000000000000000000000000000000000000000000000000000000007bffffffffffffffffffffffffffffffffffffffffffffffffffffffff19166020820180517bffffffffffffffffffffffffffffffffffffffffffffffffffffffff83818316178352505050506200018060201b60201c565b50565b806000806101000a81548173ffffffffffffffffffffffffffffffffffffffff021916908373ffffffffffffffffffffffffffffffffffffffff16021790555050565b60008151905060006a636f6e736f6c652e6c6f679050602083016000808483855afa5050505050565b600080fd5b600073ffffffffffffffffffffffffffffffffffffffff82169050919050565b6000620001db82620001ae565b9050919050565b620001ed81620001ce565b8114620001f957600080fd5b50565b6000815190506200020d81620001e2565b92915050565b6000602082840312156200022c576200022b620001a9565b5b60006200023c84828501620001fc565b91505092915050565b600081519050919050565b600082825260208201905092915050565b60005b838110156200028157808201518184015260208101905062000264565b60008484015250505050565b6000601f19601f8301169050919050565b6000620002ab8262000245565b620002b7818562000250565b9350620002c981856020860162000261565b620002d4816200028d565b840191505092915050565b60006020820190508181036000830152620002fb81846200029e565b905092915050565b610f9780620003136000396000f3fe608060405234801561001057600080fd5b50600436106100415760003560e01c80630972c2fa14610046578063511deb47146100625780636e68fc0a1461007e575b600080fd5b610060600480360381019061005b9190610680565b61009a565b005b61007c6004803603810190610077919061084e565b6100dd565b005b610098600480360381019061009391906108d1565b610114565b005b806000806101000a81548173ffffffffffffffffffffffffffffffffffffffff021916908373ffffffffffffffffffffffffffffffffffffffff16021790555050565b600160038111156100f1576100f0610911565b5b82600381111561010457610103610911565b5b1461010e57600080fd5b50505050565b600061011f836102fb565b9050600061012c836102fb565b90506000826040518060600160405280603d8152602001610e58603d9139838560405160200161015f9493929190610a49565b6040516020818303038152906040529050600060405180610120016040528060f98152602001610d5f60f991398260405180610100016040528060cd8152602001610e9560cd91396040516020016101b993929190610ac3565b604051602081830303815290604052905060008054906101000a900473ffffffffffffffffffffffffffffffffffffffff1673ffffffffffffffffffffffffffffffffffffffff1663d992cac8308360016040518463ffffffff1660e01b815260040161022893929190610b95565b600060405180830381600087803b15801561024257600080fd5b505af1158015610256573d6000803e3d6000fd5b50505050505050505050565b6102f8816040516024016102769190610bd3565b6040516020818303038152906040527f41304fac000000000000000000000000000000000000000000000000000000007bffffffffffffffffffffffffffffffffffffffffffffffffffffffff19166020820180517bffffffffffffffffffffffffffffffffffffffffffffffffffffffff8381831617835250505050610319565b50565b606061031282600161030c85610342565b016103d2565b9050919050565b60008151905060006a636f6e736f6c652e6c6f679050602083016000808483855afa5050505050565b600080600090506000608084901c111561036457608083901c92506010810190505b6000604084901c111561037f57604083901c92506008810190505b6000602084901c111561039a57602083901c92506004810190505b6000601084901c11156103b557601083901c92506002810190505b6000600884901c11156103c9576001810190505b80915050919050565b6060600060028360026103e59190610c24565b6103ef9190610c66565b67ffffffffffffffff81111561040857610407610723565b5b6040519080825280601f01601f19166020018201604052801561043a5781602001600182028036833780820191505090505b5090507f30000000000000000000000000000000000000000000000000000000000000008160008151811061047257610471610c9a565b5b60200101907effffffffffffffffffffffffffffffffffffffffffffffffffffffffffffff1916908160001a9053507f7800000000000000000000000000000000000000000000000000000000000000816001815181106104d6576104d5610c9a565b5b60200101907effffffffffffffffffffffffffffffffffffffffffffffffffffffffffffff1916908160001a905350600060018460026105169190610c24565b6105209190610c66565b90505b60018111156105c0577f3031323334353637383961626364656600000000000000000000000000000000600f86166010811061056257610561610c9a565b5b1a60f81b82828151811061057957610578610c9a565b5b60200101907effffffffffffffffffffffffffffffffffffffffffffffffffffffffffffff1916908160001a905350600485901c9450806105b990610cc9565b9050610523565b5060008414610604576040517f08c379a00000000000000000000000000000000000000000000000000000000081526004016105fb90610d3e565b60405180910390fd5b8091505092915050565b6000604051905090565b600080fd5b600080fd5b600073ffffffffffffffffffffffffffffffffffffffff82169050919050565b600061064d82610622565b9050919050565b61065d81610642565b811461066857600080fd5b50565b60008135905061067a81610654565b92915050565b60006020828403121561069657610695610618565b5b60006106a48482850161066b565b91505092915050565b6000819050919050565b6106c0816106ad565b81146106cb57600080fd5b50565b6000813590506106dd816106b7565b92915050565b600481106106f057600080fd5b50565b600081359050610702816106e3565b92915050565b600080fd5b600080fd5b6000601f19601f8301169050919050565b7f4e487b7100000000000000000000000000000000000000000000000000000000600052604160045260246000fd5b61075b82610712565b810181811067ffffffffffffffff8211171561077a57610779610723565b5b80604052505050565b600061078d61060e565b90506107998282610752565b919050565b600067ffffffffffffffff8211156107b9576107b8610723565b5b6107c282610712565b9050602081019050919050565b82818337600083830152505050565b60006107f16107ec8461079e565b610783565b90508281526020810184848401111561080d5761080c61070d565b5b6108188482856107cf565b509392505050565b600082601f83011261083557610834610708565b5b81356108458482602086016107de565b91505092915050565b6000806000806080858703121561086857610867610618565b5b60006108768782880161066b565b9450506020610887878288016106ce565b9350506040610898878288016106f3565b925050606085013567ffffffffffffffff8111156108b9576108b861061d565b5b6108c587828801610820565b91505092959194509250565b600080604083850312156108e8576108e7610618565b5b60006108f6858286016106ce565b9250506020610907858286016106ce565b9150509250929050565b7f4e487b7100000000000000000000000000000000000000000000000000000000600052602160045260246000fd5b600081519050919050565b600081905092915050565b60005b83811015610974578082015181840152602081019050610959565b60008484015250505050565b600061098b82610940565b610995818561094b565b93506109a5818560208601610956565b80840191505092915050565b7f202b200000000000000000000000000000000000000000000000000000000000815250565b7f2025202800000000000000000000000000000000000000000000000000000000815250565b7f202d200000000000000000000000000000000000000000000000000000000000815250565b7f2900000000000000000000000000000000000000000000000000000000000000815250565b6000610a558287610980565b9150610a60826109b1565b600382019150610a708286610980565b9150610a7b826109d7565b600482019150610a8b8285610980565b9150610a96826109fd565b600382019150610aa68284610980565b9150610ab182610a23565b60018201915081905095945050505050565b6000610acf8286610980565b9150610adb8285610980565b9150610ae78284610980565b9150819050949350505050565b610afd81610642565b82525050565b600082825260208201905092915050565b6000610b1f82610940565b610b298185610b03565b9350610b39818560208601610956565b610b4281610712565b840191505092915050565b60048110610b5e57610b5d610911565b5b50565b6000819050610b6f82610b4d565b919050565b6000610b7f82610b61565b9050919050565b610b8f81610b74565b82525050565b6000606082019050610baa6000830186610af4565b8181036020830152610bbc8185610b14565b9050610bcb6040830184610b86565b949350505050565b60006020820190508181036000830152610bed8184610b14565b905092915050565b7f4e487b7100000000000000000000000000000000000000000000000000000000600052601160045260246000fd5b6000610c2f826106ad565b9150610c3a836106ad565b9250828202610c48816106ad565b91508282048414831517610c5f57610c5e610bf5565b5b5092915050565b6000610c71826106ad565b9150610c7c836106ad565b9250828201905080821115610c9457610c93610bf5565b5b92915050565b7f4e487b7100000000000000000000000000000000000000000000000000000000600052603260045260246000fd5b6000610cd4826106ad565b915060008203610ce757610ce6610bf5565b5b600182039050919050565b7f537472696e67733a20686578206c656e67746820696e73756666696369656e74600082015250565b6000610d28602083610b03565b9150610d3382610cf2565b602082019050919050565b60006020820190508181036000830152610d5781610d1b565b905091905056fe7b2253706563223a7b22456e67696e65223a22446f636b6572222c225665726966696572223a224e6f6f70222c225075626c6973686572223a2245737475617279222c22446f636b6572223a7b22496d616765223a22676863722e696f2f626163616c6861752d70726f6a6563742f6472616e642d6578616d706c653a6c6174657374407368613235363a63323935393861623464343362663339376138366263393833633461333366646237363735333566393065393862343262356335616661376266303536633463222c22456e747279706f696e74223a5b2262617368222c222d63222c226563686f202269626173653d31363b2028282428636174202f696e707574732f6c6174657374207c206a71202d7220222e72616e646f6d6e65737322207c2074722022612d7a222022412d5a22292922207c206263225d7d2c22696e70757473223a5b7b2253746f72616765536f75726365223a2255524c446f776e6c6f6164222c2255524c223a2268747470733a2f2f6170692e6472616e642e73682f383939306537613961616564326666656437336462643730393231323364366632383939333035343064373635313333363232356463313732653531623263652f7075626c69632f6c6174657374222c2270617468223a222f696e70757473227d5d2c224465616c223a7b22436f6e63757272656e6379223a317d7d7da26469706673582212200e10adff800dbcf8c3f184f400e46843aed7d362f89e1ac38041cef43909b8fa64736f6c63430008110033","opcodes":"PUSH1 0x80 PUSH1 0x40 MSTORE CALLVALUE DUP1 ISZERO PUSH3 0x11 JUMPI PUSH1 0x0 DUP1 REVERT JUMPDEST POP PUSH1 0x40 MLOAD PUSH3 0x12AA CODESIZE SUB DUP1 PUSH3 0x12AA DUP4 CODECOPY DUP2 DUP2 ADD PUSH1 0x40 MSTORE DUP2 ADD SWAP1 PUSH3 0x37 SWAP2 SWAP1 PUSH3 0x213 JUMP JUMPDEST PUSH3 0x82 PUSH1 0x40 MLOAD DUP1 PUSH1 0x40 ADD PUSH1 0x40 MSTORE DUP1 PUSH1 0x18 DUP2 MSTORE PUSH1 0x20 ADD PUSH32 0x4465706C6F79696E67204472616E6420636F6E74726163740000000000000000 DUP2 MSTORE POP PUSH3 0x9A PUSH1 0x20 SHL PUSH3 0x262 OR PUSH1 0x20 SHR JUMP JUMPDEST PUSH3 0x93 DUP2 PUSH3 0x13D PUSH1 0x20 SHL PUSH1 0x20 SHR JUMP JUMPDEST POP PUSH3 0x303 JUMP JUMPDEST PUSH3 0x13A DUP2 PUSH1 0x40 MLOAD PUSH1 0x24 ADD PUSH3 0xB1 SWAP2 SWAP1 PUSH3 0x2DF JUMP JUMPDEST PUSH1 0x40 MLOAD PUSH1 0x20 DUP2 DUP4 SUB SUB DUP2 MSTORE SWAP1 PUSH1 0x40 MSTORE PUSH32 0x41304FAC00000000000000000000000000000000000000000000000000000000 PUSH28 0xFFFFFFFFFFFFFFFFFFFFFFFFFFFFFFFFFFFFFFFFFFFFFFFFFFFFFFFF NOT AND PUSH1 0x20 DUP3 ADD DUP1 MLOAD PUSH28 0xFFFFFFFFFFFFFFFFFFFFFFFFFFFFFFFFFFFFFFFFFFFFFFFFFFFFFFFF DUP4 DUP2 DUP4 AND OR DUP4 MSTORE POP POP POP POP PUSH3 0x180 PUSH1 0x20 SHL PUSH1 0x20 SHR JUMP JUMPDEST POP JUMP JUMPDEST DUP1 PUSH1 0x0 DUP1 PUSH2 0x100 EXP DUP2 SLOAD DUP2 PUSH20 0xFFFFFFFFFFFFFFFFFFFFFFFFFFFFFFFFFFFFFFFF MUL NOT AND SWAP1 DUP4 PUSH20 0xFFFFFFFFFFFFFFFFFFFFFFFFFFFFFFFFFFFFFFFF AND MUL OR SWAP1 SSTORE POP POP JUMP JUMPDEST PUSH1 0x0 DUP2 MLOAD SWAP1 POP PUSH1 0x0 PUSH11 0x636F6E736F6C652E6C6F67 SWAP1 POP PUSH1 0x20 DUP4 ADD PUSH1 0x0 DUP1 DUP5 DUP4 DUP6 GAS STATICCALL POP POP POP POP POP JUMP JUMPDEST PUSH1 0x0 DUP1 REVERT JUMPDEST PUSH1 0x0 PUSH20 0xFFFFFFFFFFFFFFFFFFFFFFFFFFFFFFFFFFFFFFFF DUP3 AND SWAP1 POP SWAP2 SWAP1 POP JUMP JUMPDEST PUSH1 0x0 PUSH3 0x1DB DUP3 PUSH3 0x1AE JUMP JUMPDEST SWAP1 POP SWAP2 SWAP1 POP JUMP JUMPDEST PUSH3 0x1ED DUP2 PUSH3 0x1CE JUMP JUMPDEST DUP2 EQ PUSH3 0x1F9 JUMPI PUSH1 0x0 DUP1 REVERT JUMPDEST POP JUMP JUMPDEST PUSH1 0x0 DUP2 MLOAD SWAP1 POP PUSH3 0x20D DUP2 PUSH3 0x1E2 JUMP JUMPDEST SWAP3 SWAP2 POP POP JUMP JUMPDEST PUSH1 0x0 PUSH1 0x20 DUP3 DUP5 SUB SLT ISZERO PUSH3 0x22C JUMPI PUSH3 0x22B PUSH3 0x1A9 JUMP JUMPDEST JUMPDEST PUSH1 0x0 PUSH3 0x23C DUP5 DUP3 DUP6 ADD PUSH3 0x1FC JUMP JUMPDEST SWAP2 POP POP SWAP3 SWAP2 POP POP JUMP JUMPDEST PUSH1 0x0 DUP2 MLOAD SWAP1 POP SWAP2 SWAP1 POP JUMP JUMPDEST PUSH1 0x0 DUP3 DUP3 MSTORE PUSH1 0x20 DUP3 ADD SWAP1 POP SWAP3 SWAP2 POP POP JUMP JUMPDEST PUSH1 0x0 JUMPDEST DUP4 DUP2 LT ISZERO PUSH3 0x281 JUMPI DUP1 DUP3 ADD MLOAD DUP2 DUP5 ADD MSTORE PUSH1 0x20 DUP2 ADD SWAP1 POP PUSH3 0x264 JUMP JUMPDEST PUSH1 0x0 DUP5 DUP5 ADD MSTORE POP POP POP POP JUMP JUMPDEST PUSH1 0x0 PUSH1 0x1F NOT PUSH1 0x1F DUP4 ADD AND SWAP1 POP SWAP2 SWAP1 POP JUMP JUMPDEST PUSH1 0x0 PUSH3 0x2AB DUP3 PUSH3 0x245 JUMP JUMPDEST PUSH3 0x2B7 DUP2 DUP6 PUSH3 0x250 JUMP JUMPDEST SWAP4 POP PUSH3 0x2C9 DUP2 DUP6 PUSH1 0x20 DUP7 ADD PUSH3 0x261 JUMP JUMPDEST PUSH3 0x2D4 DUP2 PUSH3 0x28D JUMP JUMPDEST DUP5 ADD SWAP2 POP POP SWAP3 SWAP2 POP POP JUMP JUMPDEST PUSH1 0x0 PUSH1 0x20 DUP3 ADD SWAP1 POP DUP2 DUP2 SUB PUSH1 0x0 DUP4 ADD MSTORE PUSH3 0x2FB DUP2 DUP5 PUSH3 0x29E JUMP JUMPDEST SWAP1 POP SWAP3 SWAP2 POP POP JUMP JUMPDEST PUSH2 0xF97 DUP1 PUSH3 0x313 PUSH1 0x0 CODECOPY PUSH1 0x0 RETURN INVALID PUSH1 0x80 PUSH1 0x40 MSTORE CALLVALUE DUP1 ISZERO PUSH2 0x10 JUMPI PUSH1 0x0 DUP1 REVERT JUMPDEST POP PUSH1 0x4 CALLDATASIZE LT PUSH2 0x41 JUMPI PUSH1 0x0 CALLDATALOAD PUSH1 0xE0 SHR DUP1 PUSH4 0x972C2FA EQ PUSH2 0x46 JUMPI DUP1 PUSH4 0x511DEB47 EQ PUSH2 0x62 JUMPI DUP1 PUSH4 0x6E68FC0A EQ PUSH2 0x7E JUMPI JUMPDEST PUSH1 0x0 DUP1 REVERT JUMPDEST PUSH2 0x60 PUSH1 0x4 DUP1 CALLDATASIZE SUB DUP2 ADD SWAP1 PUSH2 0x5B SWAP2 SWAP1 PUSH2 0x680 JUMP JUMPDEST PUSH2 0x9A JUMP JUMPDEST STOP JUMPDEST PUSH2 0x7C PUSH1 0x4 DUP1 CALLDATASIZE SUB DUP2 ADD SWAP1 PUSH2 0x77 SWAP2 SWAP1 PUSH2 0x84E JUMP JUMPDEST PUSH2 0xDD JUMP JUMPDEST STOP JUMPDEST PUSH2 0x98 PUSH1 0x4 DUP1 CALLDATASIZE SUB DUP2 ADD SWAP1 PUSH2 0x93 SWAP2 SWAP1 PUSH2 0x8D1 JUMP JUMPDEST PUSH2 0x114 JUMP JUMPDEST STOP JUMPDEST DUP1 PUSH1 0x0 DUP1 PUSH2 0x100 EXP DUP2 SLOAD DUP2 PUSH20 0xFFFFFFFFFFFFFFFFFFFFFFFFFFFFFFFFFFFFFFFF MUL NOT AND SWAP1 DUP4 PUSH20 0xFFFFFFFFFFFFFFFFFFFFFFFFFFFFFFFFFFFFFFFF AND MUL OR SWAP1 SSTORE POP POP JUMP JUMPDEST PUSH1 0x1 PUSH1 0x3 DUP2 GT ISZERO PUSH2 0xF1 JUMPI PUSH2 0xF0 PUSH2 0x911 JUMP JUMPDEST JUMPDEST DUP3 PUSH1 0x3 DUP2 GT ISZERO PUSH2 0x104 JUMPI PUSH2 0x103 PUSH2 0x911 JUMP JUMPDEST JUMPDEST EQ PUSH2 0x10E JUMPI PUSH1 0x0 DUP1 REVERT JUMPDEST POP POP POP POP JUMP JUMPDEST PUSH1 0x0 PUSH2 0x11F DUP4 PUSH2 0x2FB JUMP JUMPDEST SWAP1 POP PUSH1 0x0 PUSH2 0x12C DUP4 PUSH2 0x2FB JUMP JUMPDEST SWAP1 POP PUSH1 0x0 DUP3 PUSH1 0x40 MLOAD DUP1 PUSH1 0x60 ADD PUSH1 0x40 MSTORE DUP1 PUSH1 0x3D DUP2 MSTORE PUSH1 0x20 ADD PUSH2 0xE58 PUSH1 0x3D SWAP2 CODECOPY DUP4 DUP6 PUSH1 0x40 MLOAD PUSH1 0x20 ADD PUSH2 0x15F SWAP5 SWAP4 SWAP3 SWAP2 SWAP1 PUSH2 0xA49 JUMP JUMPDEST PUSH1 0x40 MLOAD PUSH1 0x20 DUP2 DUP4 SUB SUB DUP2 MSTORE SWAP1 PUSH1 0x40 MSTORE SWAP1 POP PUSH1 0x0 PUSH1 0x40 MLOAD DUP1 PUSH2 0x120 ADD PUSH1 0x40 MSTORE DUP1 PUSH1 0xF9 DUP2 MSTORE PUSH1 0x20 ADD PUSH2 0xD5F PUSH1 0xF9 SWAP2 CODECOPY DUP3 PUSH1 0x40 MLOAD DUP1 PUSH2 0x100 ADD PUSH1 0x40 MSTORE DUP1 PUSH1 0xCD DUP2 MSTORE PUSH1 0x20 ADD PUSH2 0xE95 PUSH1 0xCD SWAP2 CODECOPY PUSH1 0x40 MLOAD PUSH1 0x20 ADD PUSH2 0x1B9 SWAP4 SWAP3 SWAP2 SWAP1 PUSH2 0xAC3 JUMP JUMPDEST PUSH1 0x40 MLOAD PUSH1 0x20 DUP2 DUP4 SUB SUB DUP2 MSTORE SWAP1 PUSH1 0x40 MSTORE SWAP1 POP PUSH1 0x0 DUP1 SLOAD SWAP1 PUSH2 0x100 EXP SWAP1 DIV PUSH20 0xFFFFFFFFFFFFFFFFFFFFFFFFFFFFFFFFFFFFFFFF AND PUSH20 0xFFFFFFFFFFFFFFFFFFFFFFFFFFFFFFFFFFFFFFFF AND PUSH4 0xD992CAC8 ADDRESS DUP4 PUSH1 0x1 PUSH1 0x40 MLOAD DUP5 PUSH4 0xFFFFFFFF AND PUSH1 0xE0 SHL DUP2 MSTORE PUSH1 0x4 ADD PUSH2 0x228 SWAP4 SWAP3 SWAP2 SWAP1 PUSH2 0xB95 JUMP JUMPDEST PUSH1 0x0 PUSH1 0x40 MLOAD DUP1 DUP4 SUB DUP2 PUSH1 0x0 DUP8 DUP1 EXTCODESIZE ISZERO DUP1 ISZERO PUSH2 0x242 JUMPI PUSH1 0x0 DUP1 REVERT JUMPDEST POP GAS CALL ISZERO DUP1 ISZERO PUSH2 0x256 JUMPI RETURNDATASIZE PUSH1 0x0 DUP1 RETURNDATACOPY RETURNDATASIZE PUSH1 0x0 REVERT JUMPDEST POP POP POP POP POP POP POP POP POP POP JUMP JUMPDEST PUSH2 0x2F8 DUP2 PUSH1 0x40 MLOAD PUSH1 0x24 ADD PUSH2 0x276 SWAP2 SWAP1 PUSH2 0xBD3 JUMP JUMPDEST PUSH1 0x40 MLOAD PUSH1 0x20 DUP2 DUP4 SUB SUB DUP2 MSTORE SWAP1 PUSH1 0x40 MSTORE PUSH32 0x41304FAC00000000000000000000000000000000000000000000000000000000 PUSH28 0xFFFFFFFFFFFFFFFFFFFFFFFFFFFFFFFFFFFFFFFFFFFFFFFFFFFFFFFF NOT AND PUSH1 0x20 DUP3 ADD DUP1 MLOAD PUSH28 0xFFFFFFFFFFFFFFFFFFFFFFFFFFFFFFFFFFFFFFFFFFFFFFFFFFFFFFFF DUP4 DUP2 DUP4 AND OR DUP4 MSTORE POP POP POP POP PUSH2 0x319 JUMP JUMPDEST POP JUMP JUMPDEST PUSH1 0x60 PUSH2 0x312 DUP3 PUSH1 0x1 PUSH2 0x30C DUP6 PUSH2 0x342 JUMP JUMPDEST ADD PUSH2 0x3D2 JUMP JUMPDEST SWAP1 POP SWAP2 SWAP1 POP JUMP JUMPDEST PUSH1 0x0 DUP2 MLOAD SWAP1 POP PUSH1 0x0 PUSH11 0x636F6E736F6C652E6C6F67 SWAP1 POP PUSH1 0x20 DUP4 ADD PUSH1 0x0 DUP1 DUP5 DUP4 DUP6 GAS STATICCALL POP POP POP POP POP JUMP JUMPDEST PUSH1 0x0 DUP1 PUSH1 0x0 SWAP1 POP PUSH1 0x0 PUSH1 0x80 DUP5 SWAP1 SHR GT ISZERO PUSH2 0x364 JUMPI PUSH1 0x80 DUP4 SWAP1 SHR SWAP3 POP PUSH1 0x10 DUP2 ADD SWAP1 POP JUMPDEST PUSH1 0x0 PUSH1 0x40 DUP5 SWAP1 SHR GT ISZERO PUSH2 0x37F JUMPI PUSH1 0x40 DUP4 SWAP1 SHR SWAP3 POP PUSH1 0x8 DUP2 ADD SWAP1 POP JUMPDEST PUSH1 0x0 PUSH1 0x20 DUP5 SWAP1 SHR GT ISZERO PUSH2 0x39A JUMPI PUSH1 0x20 DUP4 SWAP1 SHR SWAP3 POP PUSH1 0x4 DUP2 ADD SWAP1 POP JUMPDEST PUSH1 0x0 PUSH1 0x10 DUP5 SWAP1 SHR GT ISZERO PUSH2 0x3B5 JUMPI PUSH1 0x10 DUP4 SWAP1 SHR SWAP3 POP PUSH1 0x2 DUP2 ADD SWAP1 POP JUMPDEST PUSH1 0x0 PUSH1 0x8 DUP5 SWAP1 SHR GT ISZERO PUSH2 0x3C9 JUMPI PUSH1 0x1 DUP2 ADD SWAP1 POP JUMPDEST DUP1 SWAP2 POP POP SWAP2 SWAP1 POP JUMP JUMPDEST PUSH1 0x60 PUSH1 0x0 PUSH1 0x2 DUP4 PUSH1 0x2 PUSH2 0x3E5 SWAP2 SWAP1 PUSH2 0xC24 JUMP JUMPDEST PUSH2 0x3EF SWAP2 SWAP1 PUSH2 0xC66 JUMP JUMPDEST PUSH8 0xFFFFFFFFFFFFFFFF DUP2 GT ISZERO PUSH2 0x408 JUMPI PUSH2 0x407 PUSH2 0x723 JUMP JUMPDEST JUMPDEST PUSH1 0x40 MLOAD SWAP1 DUP1 DUP3 MSTORE DUP1 PUSH1 0x1F ADD PUSH1 0x1F NOT AND PUSH1 0x20 ADD DUP3 ADD PUSH1 0x40 MSTORE DUP1 ISZERO PUSH2 0x43A JUMPI DUP2 PUSH1 0x20 ADD PUSH1 0x1 DUP3 MUL DUP1 CALLDATASIZE DUP4 CALLDATACOPY DUP1 DUP3 ADD SWAP2 POP POP SWAP1 POP JUMPDEST POP SWAP1 POP PUSH32 0x3000000000000000000000000000000000000000000000000000000000000000 DUP2 PUSH1 0x0 DUP2 MLOAD DUP2 LT PUSH2 0x472 JUMPI PUSH2 0x471 PUSH2 0xC9A JUMP JUMPDEST JUMPDEST PUSH1 0x20 ADD ADD SWAP1 PUSH31 0xFFFFFFFFFFFFFFFFFFFFFFFFFFFFFFFFFFFFFFFFFFFFFFFFFFFFFFFFFFFFFF NOT AND SWAP1 DUP2 PUSH1 0x0 BYTE SWAP1 MSTORE8 POP PUSH32 0x7800000000000000000000000000000000000000000000000000000000000000 DUP2 PUSH1 0x1 DUP2 MLOAD DUP2 LT PUSH2 0x4D6 JUMPI PUSH2 0x4D5 PUSH2 0xC9A JUMP JUMPDEST JUMPDEST PUSH1 0x20 ADD ADD SWAP1 PUSH31 0xFFFFFFFFFFFFFFFFFFFFFFFFFFFFFFFFFFFFFFFFFFFFFFFFFFFFFFFFFFFFFF NOT AND SWAP1 DUP2 PUSH1 0x0 BYTE SWAP1 MSTORE8 POP PUSH1 0x0 PUSH1 0x1 DUP5 PUSH1 0x2 PUSH2 0x516 SWAP2 SWAP1 PUSH2 0xC24 JUMP JUMPDEST PUSH2 0x520 SWAP2 SWAP1 PUSH2 0xC66 JUMP JUMPDEST SWAP1 POP JUMPDEST PUSH1 0x1 DUP2 GT ISZERO PUSH2 0x5C0 JUMPI PUSH32 0x3031323334353637383961626364656600000000000000000000000000000000 PUSH1 0xF DUP7 AND PUSH1 0x10 DUP2 LT PUSH2 0x562 JUMPI PUSH2 0x561 PUSH2 0xC9A JUMP JUMPDEST JUMPDEST BYTE PUSH1 0xF8 SHL DUP3 DUP3 DUP2 MLOAD DUP2 LT PUSH2 0x579 JUMPI PUSH2 0x578 PUSH2 0xC9A JUMP JUMPDEST JUMPDEST PUSH1 0x20 ADD ADD SWAP1 PUSH31 0xFFFFFFFFFFFFFFFFFFFFFFFFFFFFFFFFFFFFFFFFFFFFFFFFFFFFFFFFFFFFFF NOT AND SWAP1 DUP2 PUSH1 0x0 BYTE SWAP1 MSTORE8 POP PUSH1 0x4 DUP6 SWAP1 SHR SWAP5 POP DUP1 PUSH2 0x5B9 SWAP1 PUSH2 0xCC9 JUMP JUMPDEST SWAP1 POP PUSH2 0x523 JUMP JUMPDEST POP PUSH1 0x0 DUP5 EQ PUSH2 0x604 JUMPI PUSH1 0x40 MLOAD PUSH32 0x8C379A000000000000000000000000000000000000000000000000000000000 DUP2 MSTORE PUSH1 0x4 ADD PUSH2 0x5FB SWAP1 PUSH2 0xD3E JUMP JUMPDEST PUSH1 0x40 MLOAD DUP1 SWAP2 SUB SWAP1 REVERT JUMPDEST DUP1 SWAP2 POP POP SWAP3 SWAP2 POP POP JUMP JUMPDEST PUSH1 0x0 PUSH1 0x40 MLOAD SWAP1 POP SWAP1 JUMP JUMPDEST PUSH1 0x0 DUP1 REVERT JUMPDEST PUSH1 0x0 DUP1 REVERT JUMPDEST PUSH1 0x0 PUSH20 0xFFFFFFFFFFFFFFFFFFFFFFFFFFFFFFFFFFFFFFFF DUP3 AND SWAP1 POP SWAP2 SWAP1 POP JUMP JUMPDEST PUSH1 0x0 PUSH2 0x64D DUP3 PUSH2 0x622 JUMP JUMPDEST SWAP1 POP SWAP2 SWAP1 POP JUMP JUMPDEST PUSH2 0x65D DUP2 PUSH2 0x642 JUMP JUMPDEST DUP2 EQ PUSH2 0x668 JUMPI PUSH1 0x0 DUP1 REVERT JUMPDEST POP JUMP JUMPDEST PUSH1 0x0 DUP2 CALLDATALOAD SWAP1 POP PUSH2 0x67A DUP2 PUSH2 0x654 JUMP JUMPDEST SWAP3 SWAP2 POP POP JUMP JUMPDEST PUSH1 0x0 PUSH1 0x20 DUP3 DUP5 SUB SLT ISZERO PUSH2 0x696 JUMPI PUSH2 0x695 PUSH2 0x618 JUMP JUMPDEST JUMPDEST PUSH1 0x0 PUSH2 0x6A4 DUP5 DUP3 DUP6 ADD PUSH2 0x66B JUMP JUMPDEST SWAP2 POP POP SWAP3 SWAP2 POP POP JUMP JUMPDEST PUSH1 0x0 DUP2 SWAP1 POP SWAP2 SWAP1 POP JUMP JUMPDEST PUSH2 0x6C0 DUP2 PUSH2 0x6AD JUMP JUMPDEST DUP2 EQ PUSH2 0x6CB JUMPI PUSH1 0x0 DUP1 REVERT JUMPDEST POP JUMP JUMPDEST PUSH1 0x0 DUP2 CALLDATALOAD SWAP1 POP PUSH2 0x6DD DUP2 PUSH2 0x6B7 JUMP JUMPDEST SWAP3 SWAP2 POP POP JUMP JUMPDEST PUSH1 0x4 DUP2 LT PUSH2 0x6F0 JUMPI PUSH1 0x0 DUP1 REVERT JUMPDEST POP JUMP JUMPDEST PUSH1 0x0 DUP2 CALLDATALOAD SWAP1 POP PUSH2 0x702 DUP2 PUSH2 0x6E3 JUMP JUMPDEST SWAP3 SWAP2 POP POP JUMP JUMPDEST PUSH1 0x0 DUP1 REVERT JUMPDEST PUSH1 0x0 DUP1 REVERT JUMPDEST PUSH1 0x0 PUSH1 0x1F NOT PUSH1 0x1F DUP4 ADD AND SWAP1 POP SWAP2 SWAP1 POP JUMP JUMPDEST PUSH32 0x4E487B7100000000000000000000000000000000000000000000000000000000 PUSH1 0x0 MSTORE PUSH1 0x41 PUSH1 0x4 MSTORE PUSH1 0x24 PUSH1 0x0 REVERT JUMPDEST PUSH2 0x75B DUP3 PUSH2 0x712 JUMP JUMPDEST DUP2 ADD DUP2 DUP2 LT PUSH8 0xFFFFFFFFFFFFFFFF DUP3 GT OR ISZERO PUSH2 0x77A JUMPI PUSH2 0x779 PUSH2 0x723 JUMP JUMPDEST JUMPDEST DUP1 PUSH1 0x40 MSTORE POP POP POP JUMP JUMPDEST PUSH1 0x0 PUSH2 0x78D PUSH2 0x60E JUMP JUMPDEST SWAP1 POP PUSH2 0x799 DUP3 DUP3 PUSH2 0x752 JUMP JUMPDEST SWAP2 SWAP1 POP JUMP JUMPDEST PUSH1 0x0 PUSH8 0xFFFFFFFFFFFFFFFF DUP3 GT ISZERO PUSH2 0x7B9 JUMPI PUSH2 0x7B8 PUSH2 0x723 JUMP JUMPDEST JUMPDEST PUSH2 0x7C2 DUP3 PUSH2 0x712 JUMP JUMPDEST SWAP1 POP PUSH1 0x20 DUP2 ADD SWAP1 POP SWAP2 SWAP1 POP JUMP JUMPDEST DUP3 DUP2 DUP4 CALLDATACOPY PUSH1 0x0 DUP4 DUP4 ADD MSTORE POP POP POP JUMP JUMPDEST PUSH1 0x0 PUSH2 0x7F1 PUSH2 0x7EC DUP5 PUSH2 0x79E JUMP JUMPDEST PUSH2 0x783 JUMP JUMPDEST SWAP1 POP DUP3 DUP2 MSTORE PUSH1 0x20 DUP2 ADD DUP5 DUP5 DUP5 ADD GT ISZERO PUSH2 0x80D JUMPI PUSH2 0x80C PUSH2 0x70D JUMP JUMPDEST JUMPDEST PUSH2 0x818 DUP5 DUP3 DUP6 PUSH2 0x7CF JUMP JUMPDEST POP SWAP4 SWAP3 POP POP POP JUMP JUMPDEST PUSH1 0x0 DUP3 PUSH1 0x1F DUP4 ADD SLT PUSH2 0x835 JUMPI PUSH2 0x834 PUSH2 0x708 JUMP JUMPDEST JUMPDEST DUP2 CALLDATALOAD PUSH2 0x845 DUP5 DUP3 PUSH1 0x20 DUP7 ADD PUSH2 0x7DE JUMP JUMPDEST SWAP2 POP POP SWAP3 SWAP2 POP POP JUMP JUMPDEST PUSH1 0x0 DUP1 PUSH1 0x0 DUP1 PUSH1 0x80 DUP6 DUP8 SUB SLT ISZERO PUSH2 0x868 JUMPI PUSH2 0x867 PUSH2 0x618 JUMP JUMPDEST JUMPDEST PUSH1 0x0 PUSH2 0x876 DUP8 DUP3 DUP9 ADD PUSH2 0x66B JUMP JUMPDEST SWAP5 POP POP PUSH1 0x20 PUSH2 0x887 DUP8 DUP3 DUP9 ADD PUSH2 0x6CE JUMP JUMPDEST SWAP4 POP POP PUSH1 0x40 PUSH2 0x898 DUP8 DUP3 DUP9 ADD PUSH2 0x6F3 JUMP JUMPDEST SWAP3 POP POP PUSH1 0x60 DUP6 ADD CALLDATALOAD PUSH8 0xFFFFFFFFFFFFFFFF DUP2 GT ISZERO PUSH2 0x8B9 JUMPI PUSH2 0x8B8 PUSH2 0x61D JUMP JUMPDEST JUMPDEST PUSH2 0x8C5 DUP8 DUP3 DUP9 ADD PUSH2 0x820 JUMP JUMPDEST SWAP2 POP POP SWAP3 SWAP6 SWAP2 SWAP5 POP SWAP3 POP JUMP JUMPDEST PUSH1 0x0 DUP1 PUSH1 0x40 DUP4 DUP6 SUB SLT ISZERO PUSH2 0x8E8 JUMPI PUSH2 0x8E7 PUSH2 0x618 JUMP JUMPDEST JUMPDEST PUSH1 0x0 PUSH2 0x8F6 DUP6 DUP3 DUP7 ADD PUSH2 0x6CE JUMP JUMPDEST SWAP3 POP POP PUSH1 0x20 PUSH2 0x907 DUP6 DUP3 DUP7 ADD PUSH2 0x6CE JUMP JUMPDEST SWAP2 POP POP SWAP3 POP SWAP3 SWAP1 POP JUMP JUMPDEST PUSH32 0x4E487B7100000000000000000000000000000000000000000000000000000000 PUSH1 0x0 MSTORE PUSH1 0x21 PUSH1 0x4 MSTORE PUSH1 0x24 PUSH1 0x0 REVERT JUMPDEST PUSH1 0x0 DUP2 MLOAD SWAP1 POP SWAP2 SWAP1 POP JUMP JUMPDEST PUSH1 0x0 DUP2 SWAP1 POP SWAP3 SWAP2 POP POP JUMP JUMPDEST PUSH1 0x0 JUMPDEST DUP4 DUP2 LT ISZERO PUSH2 0x974 JUMPI DUP1 DUP3 ADD MLOAD DUP2 DUP5 ADD MSTORE PUSH1 0x20 DUP2 ADD SWAP1 POP PUSH2 0x959 JUMP JUMPDEST PUSH1 0x0 DUP5 DUP5 ADD MSTORE POP POP POP POP JUMP JUMPDEST PUSH1 0x0 PUSH2 0x98B DUP3 PUSH2 0x940 JUMP JUMPDEST PUSH2 0x995 DUP2 DUP6 PUSH2 0x94B JUMP JUMPDEST SWAP4 POP PUSH2 0x9A5 DUP2 DUP6 PUSH1 0x20 DUP7 ADD PUSH2 0x956 JUMP JUMPDEST DUP1 DUP5 ADD SWAP2 POP POP SWAP3 SWAP2 POP POP JUMP JUMPDEST PUSH32 0x202B200000000000000000000000000000000000000000000000000000000000 DUP2 MSTORE POP JUMP JUMPDEST PUSH32 0x2025202800000000000000000000000000000000000000000000000000000000 DUP2 MSTORE POP JUMP JUMPDEST PUSH32 0x202D200000000000000000000000000000000000000000000000000000000000 DUP2 MSTORE POP JUMP JUMPDEST PUSH32 0x2900000000000000000000000000000000000000000000000000000000000000 DUP2 MSTORE POP JUMP JUMPDEST PUSH1 0x0 PUSH2 0xA55 DUP3 DUP8 PUSH2 0x980 JUMP JUMPDEST SWAP2 POP PUSH2 0xA60 DUP3 PUSH2 0x9B1 JUMP JUMPDEST PUSH1 0x3 DUP3 ADD SWAP2 POP PUSH2 0xA70 DUP3 DUP7 PUSH2 0x980 JUMP JUMPDEST SWAP2 POP PUSH2 0xA7B DUP3 PUSH2 0x9D7 JUMP JUMPDEST PUSH1 0x4 DUP3 ADD SWAP2 POP PUSH2 0xA8B DUP3 DUP6 PUSH2 0x980 JUMP JUMPDEST SWAP2 POP PUSH2 0xA96 DUP3 PUSH2 0x9FD JUMP JUMPDEST PUSH1 0x3 DUP3 ADD SWAP2 POP PUSH2 0xAA6 DUP3 DUP5 PUSH2 0x980 JUMP JUMPDEST SWAP2 POP PUSH2 0xAB1 DUP3 PUSH2 0xA23 JUMP JUMPDEST PUSH1 0x1 DUP3 ADD SWAP2 POP DUP2 SWAP1 POP SWAP6 SWAP5 POP POP POP POP POP JUMP JUMPDEST PUSH1 0x0 PUSH2 0xACF DUP3 DUP7 PUSH2 0x980 JUMP JUMPDEST SWAP2 POP PUSH2 0xADB DUP3 DUP6 PUSH2 0x980 JUMP JUMPDEST SWAP2 POP PUSH2 0xAE7 DUP3 DUP5 PUSH2 0x980 JUMP JUMPDEST SWAP2 POP DUP2 SWAP1 POP SWAP5 SWAP4 POP POP POP POP JUMP JUMPDEST PUSH2 0xAFD DUP2 PUSH2 0x642 JUMP JUMPDEST DUP3 MSTORE POP POP JUMP JUMPDEST PUSH1 0x0 DUP3 DUP3 MSTORE PUSH1 0x20 DUP3 ADD SWAP1 POP SWAP3 SWAP2 POP POP JUMP JUMPDEST PUSH1 0x0 PUSH2 0xB1F DUP3 PUSH2 0x940 JUMP JUMPDEST PUSH2 0xB29 DUP2 DUP6 PUSH2 0xB03 JUMP JUMPDEST SWAP4 POP PUSH2 0xB39 DUP2 DUP6 PUSH1 0x20 DUP7 ADD PUSH2 0x956 JUMP JUMPDEST PUSH2 0xB42 DUP2 PUSH2 0x712 JUMP JUMPDEST DUP5 ADD SWAP2 POP POP SWAP3 SWAP2 POP POP JUMP JUMPDEST PUSH1 0x4 DUP2 LT PUSH2 0xB5E JUMPI PUSH2 0xB5D PUSH2 0x911 JUMP JUMPDEST JUMPDEST POP JUMP JUMPDEST PUSH1 0x0 DUP2 SWAP1 POP PUSH2 0xB6F DUP3 PUSH2 0xB4D JUMP JUMPDEST SWAP2 SWAP1 POP JUMP JUMPDEST PUSH1 0x0 PUSH2 0xB7F DUP3 PUSH2 0xB61 JUMP JUMPDEST SWAP1 POP SWAP2 SWAP1 POP JUMP JUMPDEST PUSH2 0xB8F DUP2 PUSH2 0xB74 JUMP JUMPDEST DUP3 MSTORE POP POP JUMP JUMPDEST PUSH1 0x0 PUSH1 0x60 DUP3 ADD SWAP1 POP PUSH2 0xBAA PUSH1 0x0 DUP4 ADD DUP7 PUSH2 0xAF4 JUMP JUMPDEST DUP2 DUP2 SUB PUSH1 0x20 DUP4 ADD MSTORE PUSH2 0xBBC DUP2 DUP6 PUSH2 0xB14 JUMP JUMPDEST SWAP1 POP PUSH2 0xBCB PUSH1 0x40 DUP4 ADD DUP5 PUSH2 0xB86 JUMP JUMPDEST SWAP5 SWAP4 POP POP POP POP JUMP JUMPDEST PUSH1 0x0 PUSH1 0x20 DUP3 ADD SWAP1 POP DUP2 DUP2 SUB PUSH1 0x0 DUP4 ADD MSTORE PUSH2 0xBED DUP2 DUP5 PUSH2 0xB14 JUMP JUMPDEST SWAP1 POP SWAP3 SWAP2 POP POP JUMP JUMPDEST PUSH32 0x4E487B7100000000000000000000000000000000000000000000000000000000 PUSH1 0x0 MSTORE PUSH1 0x11 PUSH1 0x4 MSTORE PUSH1 0x24 PUSH1 0x0 REVERT JUMPDEST PUSH1 0x0 PUSH2 0xC2F DUP3 PUSH2 0x6AD JUMP JUMPDEST SWAP2 POP PUSH2 0xC3A DUP4 PUSH2 0x6AD JUMP JUMPDEST SWAP3 POP DUP3 DUP3 MUL PUSH2 0xC48 DUP2 PUSH2 0x6AD JUMP JUMPDEST SWAP2 POP DUP3 DUP3 DIV DUP5 EQ DUP4 ISZERO OR PUSH2 0xC5F JUMPI PUSH2 0xC5E PUSH2 0xBF5 JUMP JUMPDEST JUMPDEST POP SWAP3 SWAP2 POP POP JUMP JUMPDEST PUSH1 0x0 PUSH2 0xC71 DUP3 PUSH2 0x6AD JUMP JUMPDEST SWAP2 POP PUSH2 0xC7C DUP4 PUSH2 0x6AD JUMP JUMPDEST SWAP3 POP DUP3 DUP3 ADD SWAP1 POP DUP1 DUP3 GT ISZERO PUSH2 0xC94 JUMPI PUSH2 0xC93 PUSH2 0xBF5 JUMP JUMPDEST JUMPDEST SWAP3 SWAP2 POP POP JUMP JUMPDEST PUSH32 0x4E487B7100000000000000000000000000000000000000000000000000000000 PUSH1 0x0 MSTORE PUSH1 0x32 PUSH1 0x4 MSTORE PUSH1 0x24 PUSH1 0x0 REVERT JUMPDEST PUSH1 0x0 PUSH2 0xCD4 DUP3 PUSH2 0x6AD JUMP JUMPDEST SWAP2 POP PUSH1 0x0 DUP3 SUB PUSH2 0xCE7 JUMPI PUSH2 0xCE6 PUSH2 0xBF5 JUMP JUMPDEST JUMPDEST PUSH1 0x1 DUP3 SUB SWAP1 POP SWAP2 SWAP1 POP JUMP JUMPDEST PUSH32 0x537472696E67733A20686578206C656E67746820696E73756666696369656E74 PUSH1 0x0 DUP3 ADD MSTORE POP JUMP JUMPDEST PUSH1 0x0 PUSH2 0xD28 PUSH1 0x20 DUP4 PUSH2 0xB03 JUMP JUMPDEST SWAP2 POP PUSH2 0xD33 DUP3 PUSH2 0xCF2 JUMP JUMPDEST PUSH1 0x20 DUP3 ADD SWAP1 POP SWAP2 SWAP1 POP JUMP JUMPDEST PUSH1 0x0 PUSH1 0x20 DUP3 ADD SWAP1 POP DUP2 DUP2 SUB PUSH1 0x0 DUP4 ADD MSTORE PUSH2 0xD57 DUP2 PUSH2 0xD1B JUMP JUMPDEST SWAP1 POP SWAP2 SWAP1 POP JUMP INVALID PUSH28 0x2253706563223A7B22456E67696E65223A22446F636B6572222C2256 PUSH6 0x726966696572 0x22 GASPRICE 0x22 0x4E PUSH16 0x6F70222C225075626C6973686572223A 0x22 GASLIMIT PUSH20 0x7475617279222C22446F636B6572223A7B22496D PUSH2 0x6765 0x22 GASPRICE 0x22 PUSH8 0x6863722E696F2F62 PUSH2 0x6361 PUSH13 0x6861752D70726F6A6563742F64 PUSH19 0x616E642D6578616D706C653A6C617465737440 PUSH20 0x68613235363A6332393539386162346434336266 CALLER CODECOPY CALLDATACOPY PUSH2 0x3836 PUSH3 0x633938 CALLER PUSH4 0x34613333 PUSH7 0x64623736373533 CALLDATALOAD PUSH7 0x39306539386234 ORIGIN PUSH3 0x356335 PUSH2 0x6661 CALLDATACOPY PUSH3 0x663035 CALLDATASIZE PUSH4 0x3463222C 0x22 GASLIMIT PUSH15 0x747279706F696E74223A5B22626173 PUSH9 0x222C222D63222C2265 PUSH4 0x686F2022 PUSH10 0x626173653D31363B2028 0x28 0x24 0x28 PUSH4 0x6174202F PUSH10 0x6E707574732F6C617465 PUSH20 0x74207C206A71202D7220222E72616E646F6D6E65 PUSH20 0x7322207C2074722022612D7A222022412D5A2229 0x29 0x22 KECCAK256 PUSH29 0x206263225D7D2C22696E70757473223A5B7B2253746F72616765536F75 PUSH19 0x6365223A2255524C446F776E6C6F6164222C22 SSTORE MSTORE 0x4C 0x22 GASPRICE 0x22 PUSH9 0x747470733A2F2F6170 PUSH10 0x2E6472616E642E73682F CODESIZE CODECOPY CODECOPY ADDRESS PUSH6 0x376139616165 PUSH5 0x3266666564 CALLDATACOPY CALLER PUSH5 0x6264373039 ORIGIN BALANCE ORIGIN CALLER PUSH5 0x3666323839 CODECOPY CALLER ADDRESS CALLDATALOAD CALLVALUE ADDRESS PUSH5 0x3736353133 CALLER CALLDATASIZE ORIGIN ORIGIN CALLDATALOAD PUSH5 0x6331373265 CALLDATALOAD BALANCE PUSH3 0x326365 0x2F PUSH17 0x75626C69632F6C6174657374222C227061 PUSH21 0x68223A222F696E70757473227D5D2C224465616C22 GASPRICE PUSH28 0x22436F6E63757272656E6379223A317D7D7DA2646970667358221220 0xE LT 0xAD SELFDESTRUCT DUP1 0xD 0xBC 0xF8 0xC3 CALL DUP5 DELEGATECALL STOP 0xE4 PUSH9 0x43AED7D362F89E1AC3 DUP1 COINBASE 0xCE DELEGATECALL CODECOPY MULMOD 0xB8 STATICCALL PUSH5 0x736F6C6343 STOP ADDMOD GT STOP CALLER "},"methodIdentifiers":{"getRandomNumber(uint256,uint256)":"6e68fc0a","lilypadReceiver(address,uint256,uint8,string)":"511deb47","setLPEventsAddress(address)":"0972c2fa"}}}}}