{"contracts/LilypadCaller.sol":{"LilypadCaller":{"abi":[{"inputs":[],"stateMutability":"nonpayable","type":"constructor"},{"anonymous":false,"inputs":[{"indexed":false,"internalType":"uint256","name":"jobId","type":"uint256"},{"indexed":false,"internalType":"string","name":"jobName","type":"string"},{"indexed":false,"internalType":"string","name":"ipfsResult","type":"string"}],"name":"LilypadResponse","type":"event"},{"inputs":[],"name":"LPEvents","outputs":[{"internalType":"address","name":"","type":"address"}],"stateMutability":"view","type":"function"},{"inputs":[],"name":"LilypadEventsContract","outputs":[{"internalType":"contract LilypadEvents","name":"","type":"address"}],"stateMutability":"view","type":"function"},{"inputs":[],"name":"fetchAllJobs","outputs":[{"components":[{"internalType":"uint256","name":"jobId","type":"uint256"},{"internalType":"string","name":"jobName","type":"string"},{"internalType":"string","name":"ipfsResult","type":"string"}],"internalType":"struct LilypadCaller.LilypadJob[]","name":"","type":"tuple[]"}],"stateMutability":"view","type":"function"},{"inputs":[],"name":"lilypadEventCaller","outputs":[],"stateMutability":"nonpayable","type":"function"},{"inputs":[{"internalType":"uint256","name":"","type":"uint256"}],"name":"lilypadJobs","outputs":[{"internalType":"uint256","name":"jobId","type":"uint256"},{"internalType":"string","name":"jobName","type":"string"},{"internalType":"string","name":"ipfsResult","type":"string"}],"stateMutability":"view","type":"function"},{"inputs":[{"internalType":"address","name":"_from","type":"address"},{"internalType":"uint256","name":"_jobId","type":"uint256"},{"internalType":"string","name":"_jobName","type":"string"},{"internalType":"string","name":"_ipfsResult","type":"string"}],"name":"lilypadReceiver","outputs":[],"stateMutability":"nonpayable","type":"function"},{"inputs":[{"internalType":"address","name":"_eventsAddress","type":"address"}],"name":"setLPEventsAddress","outputs":[],"stateMutability":"nonpayable","type":"function"}],"evm":{"bytecode":{"linkReferences":{},"object":"60806040523480156200001157600080fd5b506200005d6040518060400160405280601e81526020017f4465706c6f79696e67204c696c7970616443616c6c20636f6e747261637400008152506200011860201b620006961760201c565b731408f2cf686f89236c51ea1ecd91fed014457b6c6000806101000a81548173ffffffffffffffffffffffffffffffffffffffff021916908373ffffffffffffffffffffffffffffffffffffffff16021790555060008054906101000a900473ffffffffffffffffffffffffffffffffffffffff16600160006101000a81548173ffffffffffffffffffffffffffffffffffffffff021916908373ffffffffffffffffffffffffffffffffffffffff160217905550620002a2565b620001b8816040516024016200012f91906200027e565b6040516020818303038152906040527f41304fac000000000000000000000000000000000000000000000000000000007bffffffffffffffffffffffffffffffffffffffffffffffffffffffff19166020820180517bffffffffffffffffffffffffffffffffffffffffffffffffffffffff8381831617835250505050620001bb60201b60201c565b50565b60008151905060006a636f6e736f6c652e6c6f679050602083016000808483855afa5050505050565b600081519050919050565b600082825260208201905092915050565b60005b838110156200022057808201518184015260208101905062000203565b60008484015250505050565b6000601f19601f8301169050919050565b60006200024a82620001e4565b620002568185620001ef565b93506200026881856020860162000200565b62000273816200022c565b840191505092915050565b600060208201905081810360008301526200029a81846200023d565b905092915050565b6112ec80620002b26000396000f3fe608060405234801561001057600080fd5b506004361061007d5760003560e01c80635fad0a8e1161005b5780635fad0a8e146100c65780636742bfda146100e4578063ce4af1d714610100578063f1cb28ad1461011e5761007d565b80630972c2fa1461008257806335f3cf031461009e578063510255b9146100bc575b600080fd5b61009c600480360381019061009791906107ca565b610150565b005b6100a6610193565b6040516100b39190610856565b60405180910390f35b6100c46101b9565b005b6100ce610248565b6040516100db9190610880565b60405180910390f35b6100fe60048036038101906100f99190610a17565b61026c565b005b6101086103bf565b6040516101159190610c5d565b60405180910390f35b61013860048036038101906101339190610c7f565b61054c565b60405161014793929190610d05565b60405180910390f35b806000806101000a81548173ffffffffffffffffffffffffffffffffffffffff021916908373ffffffffffffffffffffffffffffffffffffffff16021790555050565b600160009054906101000a900473ffffffffffffffffffffffffffffffffffffffff1681565b600160009054906101000a900473ffffffffffffffffffffffffffffffffffffffff1673ffffffffffffffffffffffffffffffffffffffff1663fe41ff3b306040518263ffffffff1660e01b81526004016102149190610eed565b600060405180830381600087803b15801561022e57600080fd5b505af1158015610242573d6000803e3d6000fd5b50505050565b60008054906101000a900473ffffffffffffffffffffffffffffffffffffffff1681565b60008054906101000a900473ffffffffffffffffffffffffffffffffffffffff1673ffffffffffffffffffffffffffffffffffffffff168473ffffffffffffffffffffffffffffffffffffffff16146102fa576040517f08c379a00000000000000000000000000000000000000000000000000000000081526004016102f190610fa0565b60405180910390fd5b60006040518060600160405280858152602001848152602001838152509050600281908060018154018082558091505060019003906000526020600020906003020160009091909190915060008201518160000155602082015181600101908161036491906111c2565b50604082015181600201908161037a91906111c2565b5050507f9b74b15e4e432bf9d933f6cd3e1c8b9ef915db9465d6aec298679ef6e75ba8018484846040516103b093929190610d05565b60405180910390a15050505050565b60606002805480602002602001604051908101604052809291908181526020016000905b8282101561054357838290600052602060002090600302016040518060600160405290816000820154815260200160018201805461042090610fef565b80601f016020809104026020016040519081016040528092919081815260200182805461044c90610fef565b80156104995780601f1061046e57610100808354040283529160200191610499565b820191906000526020600020905b81548152906001019060200180831161047c57829003601f168201915b505050505081526020016002820180546104b290610fef565b80601f01602080910402602001604051908101604052809291908181526020018280546104de90610fef565b801561052b5780601f106105005761010080835404028352916020019161052b565b820191906000526020600020905b81548152906001019060200180831161050e57829003601f168201915b505050505081525050815260200190600101906103e3565b50505050905090565b6002818154811061055c57600080fd5b906000526020600020906003020160009150905080600001549080600101805461058590610fef565b80601f01602080910402602001604051908101604052809291908181526020018280546105b190610fef565b80156105fe5780601f106105d3576101008083540402835291602001916105fe565b820191906000526020600020905b8154815290600101906020018083116105e157829003601f168201915b50505050509080600201805461061390610fef565b80601f016020809104026020016040519081016040528092919081815260200182805461063f90610fef565b801561068c5780601f106106615761010080835404028352916020019161068c565b820191906000526020600020905b81548152906001019060200180831161066f57829003601f168201915b5050505050905083565b61072c816040516024016106aa9190611294565b6040516020818303038152906040527f41304fac000000000000000000000000000000000000000000000000000000007bffffffffffffffffffffffffffffffffffffffffffffffffffffffff19166020820180517bffffffffffffffffffffffffffffffffffffffffffffffffffffffff838183161783525050505061072f565b50565b60008151905060006a636f6e736f6c652e6c6f679050602083016000808483855afa5050505050565b6000604051905090565b600080fd5b600080fd5b600073ffffffffffffffffffffffffffffffffffffffff82169050919050565b60006107978261076c565b9050919050565b6107a78161078c565b81146107b257600080fd5b50565b6000813590506107c48161079e565b92915050565b6000602082840312156107e0576107df610762565b5b60006107ee848285016107b5565b91505092915050565b6000819050919050565b600061081c6108176108128461076c565b6107f7565b61076c565b9050919050565b600061082e82610801565b9050919050565b600061084082610823565b9050919050565b61085081610835565b82525050565b600060208201905061086b6000830184610847565b92915050565b61087a8161078c565b82525050565b60006020820190506108956000830184610871565b92915050565b6000819050919050565b6108ae8161089b565b81146108b957600080fd5b50565b6000813590506108cb816108a5565b92915050565b600080fd5b600080fd5b6000601f19601f8301169050919050565b7f4e487b7100000000000000000000000000000000000000000000000000000000600052604160045260246000fd5b610924826108db565b810181811067ffffffffffffffff82111715610943576109426108ec565b5b80604052505050565b6000610956610758565b9050610962828261091b565b919050565b600067ffffffffffffffff821115610982576109816108ec565b5b61098b826108db565b9050602081019050919050565b82818337600083830152505050565b60006109ba6109b584610967565b61094c565b9050828152602081018484840111156109d6576109d56108d6565b5b6109e1848285610998565b509392505050565b600082601f8301126109fe576109fd6108d1565b5b8135610a0e8482602086016109a7565b91505092915050565b60008060008060808587031215610a3157610a30610762565b5b6000610a3f878288016107b5565b9450506020610a50878288016108bc565b935050604085013567ffffffffffffffff811115610a7157610a70610767565b5b610a7d878288016109e9565b925050606085013567ffffffffffffffff811115610a9e57610a9d610767565b5b610aaa878288016109e9565b91505092959194509250565b600081519050919050565b600082825260208201905092915050565b6000819050602082019050919050565b610aeb8161089b565b82525050565b600081519050919050565b600082825260208201905092915050565b60005b83811015610b2b578082015181840152602081019050610b10565b60008484015250505050565b6000610b4282610af1565b610b4c8185610afc565b9350610b5c818560208601610b0d565b610b65816108db565b840191505092915050565b6000606083016000830151610b886000860182610ae2565b5060208301518482036020860152610ba08282610b37565b91505060408301518482036040860152610bba8282610b37565b9150508091505092915050565b6000610bd38383610b70565b905092915050565b6000602082019050919050565b6000610bf382610ab6565b610bfd8185610ac1565b935083602082028501610c0f85610ad2565b8060005b85811015610c4b5784840389528151610c2c8582610bc7565b9450610c3783610bdb565b925060208a01995050600181019050610c13565b50829750879550505050505092915050565b60006020820190508181036000830152610c778184610be8565b905092915050565b600060208284031215610c9557610c94610762565b5b6000610ca3848285016108bc565b91505092915050565b610cb58161089b565b82525050565b600082825260208201905092915050565b6000610cd782610af1565b610ce18185610cbb565b9350610cf1818560208601610b0d565b610cfa816108db565b840191505092915050565b6000606082019050610d1a6000830186610cac565b8181036020830152610d2c8185610ccc565b90508181036040830152610d408184610ccc565b9050949350505050565b7f7370656300000000000000000000000000000000000000000000000000000000600082015250565b6000610d80600483610cbb565b9150610d8b82610d4a565b602082019050919050565b7f7b22456e67696e65223a22446f636b6572222c225665726966696572223a224e60008201527f6f6f70222c225075626c6973686572223a2245737475617279222c22446f636b60208201527f6572223a7b22496d616765223a22676863722e696f2f626163616c6861752d7060408201527f726f6a6563742f6578616d706c65732f737461626c652d646966667573696f6e60608201527f2d6770753a302e302e31222c22456e747279706f696e74223a5b22707974686f60808201527f6e222c226d61696e2e7079222c222d2d6f222c222e2f6f757470757473222c2260a08201527f2d2d70222c225261696e626f7720556e69636f726e225d7d2c225265736f757260c08201527f636573223a7b22475055223a2231227d0000000000000000000000000000000060e082015250565b6000610ed660f083610cbb565b9150610ee182610d96565b61010082019050919050565b6000606082019050610f026000830184610871565b8181036020830152610f1381610d73565b90508181036040830152610f2681610ec9565b905092915050565b7f54686973206973206e6f7420746865206f6666696369616c204c696c7970616460008201527f4576656e747320436f6e74726163740000000000000000000000000000000000602082015250565b6000610f8a602f83610cbb565b9150610f9582610f2e565b604082019050919050565b60006020820190508181036000830152610fb981610f7d565b9050919050565b7f4e487b7100000000000000000000000000000000000000000000000000000000600052602260045260246000fd5b6000600282049050600182168061100757607f821691505b60208210810361101a57611019610fc0565b5b50919050565b60008190508160005260206000209050919050565b60006020601f8301049050919050565b600082821b905092915050565b6000600883026110827fffffffffffffffffffffffffffffffffffffffffffffffffffffffffffffffff82611045565b61108c8683611045565b95508019841693508086168417925050509392505050565b60006110bf6110ba6110b58461089b565b6107f7565b61089b565b9050919050565b6000819050919050565b6110d9836110a4565b6110ed6110e5826110c6565b848454611052565b825550505050565b600090565b6111026110f5565b61110d8184846110d0565b505050565b5b81811015611131576111266000826110fa565b600181019050611113565b5050565b601f8211156111765761114781611020565b61115084611035565b8101602085101561115f578190505b61117361116b85611035565b830182611112565b50505b505050565b600082821c905092915050565b60006111996000198460080261117b565b1980831691505092915050565b60006111b28383611188565b9150826002028217905092915050565b6111cb82610af1565b67ffffffffffffffff8111156111e4576111e36108ec565b5b6111ee8254610fef565b6111f9828285611135565b600060209050601f83116001811461122c576000841561121a578287015190505b61122485826111a6565b86555061128c565b601f19841661123a86611020565b60005b828110156112625784890151825560018201915060208501945060208101905061123d565b8683101561127f578489015161127b601f891682611188565b8355505b6001600288020188555050505b505050505050565b600060208201905081810360008301526112ae8184610ccc565b90509291505056fea26469706673582212209ef94f995a68b884a756ab09d63cb8291a9d83caa33acf35b0b47343963e5d6e64736f6c63430008110033","opcodes":"PUSH1 0x80 PUSH1 0x40 MSTORE CALLVALUE DUP1 ISZERO PUSH3 0x11 JUMPI PUSH1 0x0 DUP1 REVERT JUMPDEST POP PUSH3 0x5D PUSH1 0x40 MLOAD DUP1 PUSH1 0x40 ADD PUSH1 0x40 MSTORE DUP1 PUSH1 0x1E DUP2 MSTORE PUSH1 0x20 ADD PUSH32 0x4465706C6F79696E67204C696C7970616443616C6C20636F6E74726163740000 DUP2 MSTORE POP PUSH3 0x118 PUSH1 0x20 SHL PUSH3 0x696 OR PUSH1 0x20 SHR JUMP JUMPDEST PUSH20 0x1408F2CF686F89236C51EA1ECD91FED014457B6C PUSH1 0x0 DUP1 PUSH2 0x100 EXP DUP2 SLOAD DUP2 PUSH20 0xFFFFFFFFFFFFFFFFFFFFFFFFFFFFFFFFFFFFFFFF MUL NOT AND SWAP1 DUP4 PUSH20 0xFFFFFFFFFFFFFFFFFFFFFFFFFFFFFFFFFFFFFFFF AND MUL OR SWAP1 SSTORE POP PUSH1 0x0 DUP1 SLOAD SWAP1 PUSH2 0x100 EXP SWAP1 DIV PUSH20 0xFFFFFFFFFFFFFFFFFFFFFFFFFFFFFFFFFFFFFFFF AND PUSH1 0x1 PUSH1 0x0 PUSH2 0x100 EXP DUP2 SLOAD DUP2 PUSH20 0xFFFFFFFFFFFFFFFFFFFFFFFFFFFFFFFFFFFFFFFF MUL NOT AND SWAP1 DUP4 PUSH20 0xFFFFFFFFFFFFFFFFFFFFFFFFFFFFFFFFFFFFFFFF AND MUL OR SWAP1 SSTORE POP PUSH3 0x2A2 JUMP JUMPDEST PUSH3 0x1B8 DUP2 PUSH1 0x40 MLOAD PUSH1 0x24 ADD PUSH3 0x12F SWAP2 SWAP1 PUSH3 0x27E JUMP JUMPDEST PUSH1 0x40 MLOAD PUSH1 0x20 DUP2 DUP4 SUB SUB DUP2 MSTORE SWAP1 PUSH1 0x40 MSTORE PUSH32 0x41304FAC00000000000000000000000000000000000000000000000000000000 PUSH28 0xFFFFFFFFFFFFFFFFFFFFFFFFFFFFFFFFFFFFFFFFFFFFFFFFFFFFFFFF NOT AND PUSH1 0x20 DUP3 ADD DUP1 MLOAD PUSH28 0xFFFFFFFFFFFFFFFFFFFFFFFFFFFFFFFFFFFFFFFFFFFFFFFFFFFFFFFF DUP4 DUP2 DUP4 AND OR DUP4 MSTORE POP POP POP POP PUSH3 0x1BB PUSH1 0x20 SHL PUSH1 0x20 SHR JUMP JUMPDEST POP JUMP JUMPDEST PUSH1 0x0 DUP2 MLOAD SWAP1 POP PUSH1 0x0 PUSH11 0x636F6E736F6C652E6C6F67 SWAP1 POP PUSH1 0x20 DUP4 ADD PUSH1 0x0 DUP1 DUP5 DUP4 DUP6 GAS STATICCALL POP POP POP POP POP JUMP JUMPDEST PUSH1 0x0 DUP2 MLOAD SWAP1 POP SWAP2 SWAP1 POP JUMP JUMPDEST PUSH1 0x0 DUP3 DUP3 MSTORE PUSH1 0x20 DUP3 ADD SWAP1 POP SWAP3 SWAP2 POP POP JUMP JUMPDEST PUSH1 0x0 JUMPDEST DUP4 DUP2 LT ISZERO PUSH3 0x220 JUMPI DUP1 DUP3 ADD MLOAD DUP2 DUP5 ADD MSTORE PUSH1 0x20 DUP2 ADD SWAP1 POP PUSH3 0x203 JUMP JUMPDEST PUSH1 0x0 DUP5 DUP5 ADD MSTORE POP POP POP POP JUMP JUMPDEST PUSH1 0x0 PUSH1 0x1F NOT PUSH1 0x1F DUP4 ADD AND SWAP1 POP SWAP2 SWAP1 POP JUMP JUMPDEST PUSH1 0x0 PUSH3 0x24A DUP3 PUSH3 0x1E4 JUMP JUMPDEST PUSH3 0x256 DUP2 DUP6 PUSH3 0x1EF JUMP JUMPDEST SWAP4 POP PUSH3 0x268 DUP2 DUP6 PUSH1 0x20 DUP7 ADD PUSH3 0x200 JUMP JUMPDEST PUSH3 0x273 DUP2 PUSH3 0x22C JUMP JUMPDEST DUP5 ADD SWAP2 POP POP SWAP3 SWAP2 POP POP JUMP JUMPDEST PUSH1 0x0 PUSH1 0x20 DUP3 ADD SWAP1 POP DUP2 DUP2 SUB PUSH1 0x0 DUP4 ADD MSTORE PUSH3 0x29A DUP2 DUP5 PUSH3 0x23D JUMP JUMPDEST SWAP1 POP SWAP3 SWAP2 POP POP JUMP JUMPDEST PUSH2 0x12EC DUP1 PUSH3 0x2B2 PUSH1 0x0 CODECOPY PUSH1 0x0 RETURN INVALID PUSH1 0x80 PUSH1 0x40 MSTORE CALLVALUE DUP1 ISZERO PUSH2 0x10 JUMPI PUSH1 0x0 DUP1 REVERT JUMPDEST POP PUSH1 0x4 CALLDATASIZE LT PUSH2 0x7D JUMPI PUSH1 0x0 CALLDATALOAD PUSH1 0xE0 SHR DUP1 PUSH4 0x5FAD0A8E GT PUSH2 0x5B JUMPI DUP1 PUSH4 0x5FAD0A8E EQ PUSH2 0xC6 JUMPI DUP1 PUSH4 0x6742BFDA EQ PUSH2 0xE4 JUMPI DUP1 PUSH4 0xCE4AF1D7 EQ PUSH2 0x100 JUMPI DUP1 PUSH4 0xF1CB28AD EQ PUSH2 0x11E JUMPI PUSH2 0x7D JUMP JUMPDEST DUP1 PUSH4 0x972C2FA EQ PUSH2 0x82 JUMPI DUP1 PUSH4 0x35F3CF03 EQ PUSH2 0x9E JUMPI DUP1 PUSH4 0x510255B9 EQ PUSH2 0xBC JUMPI JUMPDEST PUSH1 0x0 DUP1 REVERT JUMPDEST PUSH2 0x9C PUSH1 0x4 DUP1 CALLDATASIZE SUB DUP2 ADD SWAP1 PUSH2 0x97 SWAP2 SWAP1 PUSH2 0x7CA JUMP JUMPDEST PUSH2 0x150 JUMP JUMPDEST STOP JUMPDEST PUSH2 0xA6 PUSH2 0x193 JUMP JUMPDEST PUSH1 0x40 MLOAD PUSH2 0xB3 SWAP2 SWAP1 PUSH2 0x856 JUMP JUMPDEST PUSH1 0x40 MLOAD DUP1 SWAP2 SUB SWAP1 RETURN JUMPDEST PUSH2 0xC4 PUSH2 0x1B9 JUMP JUMPDEST STOP JUMPDEST PUSH2 0xCE PUSH2 0x248 JUMP JUMPDEST PUSH1 0x40 MLOAD PUSH2 0xDB SWAP2 SWAP1 PUSH2 0x880 JUMP JUMPDEST PUSH1 0x40 MLOAD DUP1 SWAP2 SUB SWAP1 RETURN JUMPDEST PUSH2 0xFE PUSH1 0x4 DUP1 CALLDATASIZE SUB DUP2 ADD SWAP1 PUSH2 0xF9 SWAP2 SWAP1 PUSH2 0xA17 JUMP JUMPDEST PUSH2 0x26C JUMP JUMPDEST STOP JUMPDEST PUSH2 0x108 PUSH2 0x3BF JUMP JUMPDEST PUSH1 0x40 MLOAD PUSH2 0x115 SWAP2 SWAP1 PUSH2 0xC5D JUMP JUMPDEST PUSH1 0x40 MLOAD DUP1 SWAP2 SUB SWAP1 RETURN JUMPDEST PUSH2 0x138 PUSH1 0x4 DUP1 CALLDATASIZE SUB DUP2 ADD SWAP1 PUSH2 0x133 SWAP2 SWAP1 PUSH2 0xC7F JUMP JUMPDEST PUSH2 0x54C JUMP JUMPDEST PUSH1 0x40 MLOAD PUSH2 0x147 SWAP4 SWAP3 SWAP2 SWAP1 PUSH2 0xD05 JUMP JUMPDEST PUSH1 0x40 MLOAD DUP1 SWAP2 SUB SWAP1 RETURN JUMPDEST DUP1 PUSH1 0x0 DUP1 PUSH2 0x100 EXP DUP2 SLOAD DUP2 PUSH20 0xFFFFFFFFFFFFFFFFFFFFFFFFFFFFFFFFFFFFFFFF MUL NOT AND SWAP1 DUP4 PUSH20 0xFFFFFFFFFFFFFFFFFFFFFFFFFFFFFFFFFFFFFFFF AND MUL OR SWAP1 SSTORE POP POP JUMP JUMPDEST PUSH1 0x1 PUSH1 0x0 SWAP1 SLOAD SWAP1 PUSH2 0x100 EXP SWAP1 DIV PUSH20 0xFFFFFFFFFFFFFFFFFFFFFFFFFFFFFFFFFFFFFFFF AND DUP2 JUMP JUMPDEST PUSH1 0x1 PUSH1 0x0 SWAP1 SLOAD SWAP1 PUSH2 0x100 EXP SWAP1 DIV PUSH20 0xFFFFFFFFFFFFFFFFFFFFFFFFFFFFFFFFFFFFFFFF AND PUSH20 0xFFFFFFFFFFFFFFFFFFFFFFFFFFFFFFFFFFFFFFFF AND PUSH4 0xFE41FF3B ADDRESS PUSH1 0x40 MLOAD DUP3 PUSH4 0xFFFFFFFF AND PUSH1 0xE0 SHL DUP2 MSTORE PUSH1 0x4 ADD PUSH2 0x214 SWAP2 SWAP1 PUSH2 0xEED JUMP JUMPDEST PUSH1 0x0 PUSH1 0x40 MLOAD DUP1 DUP4 SUB DUP2 PUSH1 0x0 DUP8 DUP1 EXTCODESIZE ISZERO DUP1 ISZERO PUSH2 0x22E JUMPI PUSH1 0x0 DUP1 REVERT JUMPDEST POP GAS CALL ISZERO DUP1 ISZERO PUSH2 0x242 JUMPI RETURNDATASIZE PUSH1 0x0 DUP1 RETURNDATACOPY RETURNDATASIZE PUSH1 0x0 REVERT JUMPDEST POP POP POP POP JUMP JUMPDEST PUSH1 0x0 DUP1 SLOAD SWAP1 PUSH2 0x100 EXP SWAP1 DIV PUSH20 0xFFFFFFFFFFFFFFFFFFFFFFFFFFFFFFFFFFFFFFFF AND DUP2 JUMP JUMPDEST PUSH1 0x0 DUP1 SLOAD SWAP1 PUSH2 0x100 EXP SWAP1 DIV PUSH20 0xFFFFFFFFFFFFFFFFFFFFFFFFFFFFFFFFFFFFFFFF AND PUSH20 0xFFFFFFFFFFFFFFFFFFFFFFFFFFFFFFFFFFFFFFFF AND DUP5 PUSH20 0xFFFFFFFFFFFFFFFFFFFFFFFFFFFFFFFFFFFFFFFF AND EQ PUSH2 0x2FA JUMPI PUSH1 0x40 MLOAD PUSH32 0x8C379A000000000000000000000000000000000000000000000000000000000 DUP2 MSTORE PUSH1 0x4 ADD PUSH2 0x2F1 SWAP1 PUSH2 0xFA0 JUMP JUMPDEST PUSH1 0x40 MLOAD DUP1 SWAP2 SUB SWAP1 REVERT JUMPDEST PUSH1 0x0 PUSH1 0x40 MLOAD DUP1 PUSH1 0x60 ADD PUSH1 0x40 MSTORE DUP1 DUP6 DUP2 MSTORE PUSH1 0x20 ADD DUP5 DUP2 MSTORE PUSH1 0x20 ADD DUP4 DUP2 MSTORE POP SWAP1 POP PUSH1 0x2 DUP2 SWAP1 DUP1 PUSH1 0x1 DUP2 SLOAD ADD DUP1 DUP3 SSTORE DUP1 SWAP2 POP POP PUSH1 0x1 SWAP1 SUB SWAP1 PUSH1 0x0 MSTORE PUSH1 0x20 PUSH1 0x0 KECCAK256 SWAP1 PUSH1 0x3 MUL ADD PUSH1 0x0 SWAP1 SWAP2 SWAP1 SWAP2 SWAP1 SWAP2 POP PUSH1 0x0 DUP3 ADD MLOAD DUP2 PUSH1 0x0 ADD SSTORE PUSH1 0x20 DUP3 ADD MLOAD DUP2 PUSH1 0x1 ADD SWAP1 DUP2 PUSH2 0x364 SWAP2 SWAP1 PUSH2 0x11C2 JUMP JUMPDEST POP PUSH1 0x40 DUP3 ADD MLOAD DUP2 PUSH1 0x2 ADD SWAP1 DUP2 PUSH2 0x37A SWAP2 SWAP1 PUSH2 0x11C2 JUMP JUMPDEST POP POP POP PUSH32 0x9B74B15E4E432BF9D933F6CD3E1C8B9EF915DB9465D6AEC298679EF6E75BA801 DUP5 DUP5 DUP5 PUSH1 0x40 MLOAD PUSH2 0x3B0 SWAP4 SWAP3 SWAP2 SWAP1 PUSH2 0xD05 JUMP JUMPDEST PUSH1 0x40 MLOAD DUP1 SWAP2 SUB SWAP1 LOG1 POP POP POP POP POP JUMP JUMPDEST PUSH1 0x60 PUSH1 0x2 DUP1 SLOAD DUP1 PUSH1 0x20 MUL PUSH1 0x20 ADD PUSH1 0x40 MLOAD SWAP1 DUP2 ADD PUSH1 0x40 MSTORE DUP1 SWAP3 SWAP2 SWAP1 DUP2 DUP2 MSTORE PUSH1 0x20 ADD PUSH1 0x0 SWAP1 JUMPDEST DUP3 DUP3 LT ISZERO PUSH2 0x543 JUMPI DUP4 DUP3 SWAP1 PUSH1 0x0 MSTORE PUSH1 0x20 PUSH1 0x0 KECCAK256 SWAP1 PUSH1 0x3 MUL ADD PUSH1 0x40 MLOAD DUP1 PUSH1 0x60 ADD PUSH1 0x40 MSTORE SWAP1 DUP2 PUSH1 0x0 DUP3 ADD SLOAD DUP2 MSTORE PUSH1 0x20 ADD PUSH1 0x1 DUP3 ADD DUP1 SLOAD PUSH2 0x420 SWAP1 PUSH2 0xFEF JUMP JUMPDEST DUP1 PUSH1 0x1F ADD PUSH1 0x20 DUP1 SWAP2 DIV MUL PUSH1 0x20 ADD PUSH1 0x40 MLOAD SWAP1 DUP2 ADD PUSH1 0x40 MSTORE DUP1 SWAP3 SWAP2 SWAP1 DUP2 DUP2 MSTORE PUSH1 0x20 ADD DUP3 DUP1 SLOAD PUSH2 0x44C SWAP1 PUSH2 0xFEF JUMP JUMPDEST DUP1 ISZERO PUSH2 0x499 JUMPI DUP1 PUSH1 0x1F LT PUSH2 0x46E JUMPI PUSH2 0x100 DUP1 DUP4 SLOAD DIV MUL DUP4 MSTORE SWAP2 PUSH1 0x20 ADD SWAP2 PUSH2 0x499 JUMP JUMPDEST DUP3 ADD SWAP2 SWAP1 PUSH1 0x0 MSTORE PUSH1 0x20 PUSH1 0x0 KECCAK256 SWAP1 JUMPDEST DUP2 SLOAD DUP2 MSTORE SWAP1 PUSH1 0x1 ADD SWAP1 PUSH1 0x20 ADD DUP1 DUP4 GT PUSH2 0x47C JUMPI DUP3 SWAP1 SUB PUSH1 0x1F AND DUP3 ADD SWAP2 JUMPDEST POP POP POP POP POP DUP2 MSTORE PUSH1 0x20 ADD PUSH1 0x2 DUP3 ADD DUP1 SLOAD PUSH2 0x4B2 SWAP1 PUSH2 0xFEF JUMP JUMPDEST DUP1 PUSH1 0x1F ADD PUSH1 0x20 DUP1 SWAP2 DIV MUL PUSH1 0x20 ADD PUSH1 0x40 MLOAD SWAP1 DUP2 ADD PUSH1 0x40 MSTORE DUP1 SWAP3 SWAP2 SWAP1 DUP2 DUP2 MSTORE PUSH1 0x20 ADD DUP3 DUP1 SLOAD PUSH2 0x4DE SWAP1 PUSH2 0xFEF JUMP JUMPDEST DUP1 ISZERO PUSH2 0x52B JUMPI DUP1 PUSH1 0x1F LT PUSH2 0x500 JUMPI PUSH2 0x100 DUP1 DUP4 SLOAD DIV MUL DUP4 MSTORE SWAP2 PUSH1 0x20 ADD SWAP2 PUSH2 0x52B JUMP JUMPDEST DUP3 ADD SWAP2 SWAP1 PUSH1 0x0 MSTORE PUSH1 0x20 PUSH1 0x0 KECCAK256 SWAP1 JUMPDEST DUP2 SLOAD DUP2 MSTORE SWAP1 PUSH1 0x1 ADD SWAP1 PUSH1 0x20 ADD DUP1 DUP4 GT PUSH2 0x50E JUMPI DUP3 SWAP1 SUB PUSH1 0x1F AND DUP3 ADD SWAP2 JUMPDEST POP POP POP POP POP DUP2 MSTORE POP POP DUP2 MSTORE PUSH1 0x20 ADD SWAP1 PUSH1 0x1 ADD SWAP1 PUSH2 0x3E3 JUMP JUMPDEST POP POP POP POP SWAP1 POP SWAP1 JUMP JUMPDEST PUSH1 0x2 DUP2 DUP2 SLOAD DUP2 LT PUSH2 0x55C JUMPI PUSH1 0x0 DUP1 REVERT JUMPDEST SWAP1 PUSH1 0x0 MSTORE PUSH1 0x20 PUSH1 0x0 KECCAK256 SWAP1 PUSH1 0x3 MUL ADD PUSH1 0x0 SWAP2 POP SWAP1 POP DUP1 PUSH1 0x0 ADD SLOAD SWAP1 DUP1 PUSH1 0x1 ADD DUP1 SLOAD PUSH2 0x585 SWAP1 PUSH2 0xFEF JUMP JUMPDEST DUP1 PUSH1 0x1F ADD PUSH1 0x20 DUP1 SWAP2 DIV MUL PUSH1 0x20 ADD PUSH1 0x40 MLOAD SWAP1 DUP2 ADD PUSH1 0x40 MSTORE DUP1 SWAP3 SWAP2 SWAP1 DUP2 DUP2 MSTORE PUSH1 0x20 ADD DUP3 DUP1 SLOAD PUSH2 0x5B1 SWAP1 PUSH2 0xFEF JUMP JUMPDEST DUP1 ISZERO PUSH2 0x5FE JUMPI DUP1 PUSH1 0x1F LT PUSH2 0x5D3 JUMPI PUSH2 0x100 DUP1 DUP4 SLOAD DIV MUL DUP4 MSTORE SWAP2 PUSH1 0x20 ADD SWAP2 PUSH2 0x5FE JUMP JUMPDEST DUP3 ADD SWAP2 SWAP1 PUSH1 0x0 MSTORE PUSH1 0x20 PUSH1 0x0 KECCAK256 SWAP1 JUMPDEST DUP2 SLOAD DUP2 MSTORE SWAP1 PUSH1 0x1 ADD SWAP1 PUSH1 0x20 ADD DUP1 DUP4 GT PUSH2 0x5E1 JUMPI DUP3 SWAP1 SUB PUSH1 0x1F AND DUP3 ADD SWAP2 JUMPDEST POP POP POP POP POP SWAP1 DUP1 PUSH1 0x2 ADD DUP1 SLOAD PUSH2 0x613 SWAP1 PUSH2 0xFEF JUMP JUMPDEST DUP1 PUSH1 0x1F ADD PUSH1 0x20 DUP1 SWAP2 DIV MUL PUSH1 0x20 ADD PUSH1 0x40 MLOAD SWAP1 DUP2 ADD PUSH1 0x40 MSTORE DUP1 SWAP3 SWAP2 SWAP1 DUP2 DUP2 MSTORE PUSH1 0x20 ADD DUP3 DUP1 SLOAD PUSH2 0x63F SWAP1 PUSH2 0xFEF JUMP JUMPDEST DUP1 ISZERO PUSH2 0x68C JUMPI DUP1 PUSH1 0x1F LT PUSH2 0x661 JUMPI PUSH2 0x100 DUP1 DUP4 SLOAD DIV MUL DUP4 MSTORE SWAP2 PUSH1 0x20 ADD SWAP2 PUSH2 0x68C JUMP JUMPDEST DUP3 ADD SWAP2 SWAP1 PUSH1 0x0 MSTORE PUSH1 0x20 PUSH1 0x0 KECCAK256 SWAP1 JUMPDEST DUP2 SLOAD DUP2 MSTORE SWAP1 PUSH1 0x1 ADD SWAP1 PUSH1 0x20 ADD DUP1 DUP4 GT PUSH2 0x66F JUMPI DUP3 SWAP1 SUB PUSH1 0x1F AND DUP3 ADD SWAP2 JUMPDEST POP POP POP POP POP SWAP1 POP DUP4 JUMP JUMPDEST PUSH2 0x72C DUP2 PUSH1 0x40 MLOAD PUSH1 0x24 ADD PUSH2 0x6AA SWAP2 SWAP1 PUSH2 0x1294 JUMP JUMPDEST PUSH1 0x40 MLOAD PUSH1 0x20 DUP2 DUP4 SUB SUB DUP2 MSTORE SWAP1 PUSH1 0x40 MSTORE PUSH32 0x41304FAC00000000000000000000000000000000000000000000000000000000 PUSH28 0xFFFFFFFFFFFFFFFFFFFFFFFFFFFFFFFFFFFFFFFFFFFFFFFFFFFFFFFF NOT AND PUSH1 0x20 DUP3 ADD DUP1 MLOAD PUSH28 0xFFFFFFFFFFFFFFFFFFFFFFFFFFFFFFFFFFFFFFFFFFFFFFFFFFFFFFFF DUP4 DUP2 DUP4 AND OR DUP4 MSTORE POP POP POP POP PUSH2 0x72F JUMP JUMPDEST POP JUMP JUMPDEST PUSH1 0x0 DUP2 MLOAD SWAP1 POP PUSH1 0x0 PUSH11 0x636F6E736F6C652E6C6F67 SWAP1 POP PUSH1 0x20 DUP4 ADD PUSH1 0x0 DUP1 DUP5 DUP4 DUP6 GAS STATICCALL POP POP POP POP POP JUMP JUMPDEST PUSH1 0x0 PUSH1 0x40 MLOAD SWAP1 POP SWAP1 JUMP JUMPDEST PUSH1 0x0 DUP1 REVERT JUMPDEST PUSH1 0x0 DUP1 REVERT JUMPDEST PUSH1 0x0 PUSH20 0xFFFFFFFFFFFFFFFFFFFFFFFFFFFFFFFFFFFFFFFF DUP3 AND SWAP1 POP SWAP2 SWAP1 POP JUMP JUMPDEST PUSH1 0x0 PUSH2 0x797 DUP3 PUSH2 0x76C JUMP JUMPDEST SWAP1 POP SWAP2 SWAP1 POP JUMP JUMPDEST PUSH2 0x7A7 DUP2 PUSH2 0x78C JUMP JUMPDEST DUP2 EQ PUSH2 0x7B2 JUMPI PUSH1 0x0 DUP1 REVERT JUMPDEST POP JUMP JUMPDEST PUSH1 0x0 DUP2 CALLDATALOAD SWAP1 POP PUSH2 0x7C4 DUP2 PUSH2 0x79E JUMP JUMPDEST SWAP3 SWAP2 POP POP JUMP JUMPDEST PUSH1 0x0 PUSH1 0x20 DUP3 DUP5 SUB SLT ISZERO PUSH2 0x7E0 JUMPI PUSH2 0x7DF PUSH2 0x762 JUMP JUMPDEST JUMPDEST PUSH1 0x0 PUSH2 0x7EE DUP5 DUP3 DUP6 ADD PUSH2 0x7B5 JUMP JUMPDEST SWAP2 POP POP SWAP3 SWAP2 POP POP JUMP JUMPDEST PUSH1 0x0 DUP2 SWAP1 POP SWAP2 SWAP1 POP JUMP JUMPDEST PUSH1 0x0 PUSH2 0x81C PUSH2 0x817 PUSH2 0x812 DUP5 PUSH2 0x76C JUMP JUMPDEST PUSH2 0x7F7 JUMP JUMPDEST PUSH2 0x76C JUMP JUMPDEST SWAP1 POP SWAP2 SWAP1 POP JUMP JUMPDEST PUSH1 0x0 PUSH2 0x82E DUP3 PUSH2 0x801 JUMP JUMPDEST SWAP1 POP SWAP2 SWAP1 POP JUMP JUMPDEST PUSH1 0x0 PUSH2 0x840 DUP3 PUSH2 0x823 JUMP JUMPDEST SWAP1 POP SWAP2 SWAP1 POP JUMP JUMPDEST PUSH2 0x850 DUP2 PUSH2 0x835 JUMP JUMPDEST DUP3 MSTORE POP POP JUMP JUMPDEST PUSH1 0x0 PUSH1 0x20 DUP3 ADD SWAP1 POP PUSH2 0x86B PUSH1 0x0 DUP4 ADD DUP5 PUSH2 0x847 JUMP JUMPDEST SWAP3 SWAP2 POP POP JUMP JUMPDEST PUSH2 0x87A DUP2 PUSH2 0x78C JUMP JUMPDEST DUP3 MSTORE POP POP JUMP JUMPDEST PUSH1 0x0 PUSH1 0x20 DUP3 ADD SWAP1 POP PUSH2 0x895 PUSH1 0x0 DUP4 ADD DUP5 PUSH2 0x871 JUMP JUMPDEST SWAP3 SWAP2 POP POP JUMP JUMPDEST PUSH1 0x0 DUP2 SWAP1 POP SWAP2 SWAP1 POP JUMP JUMPDEST PUSH2 0x8AE DUP2 PUSH2 0x89B JUMP JUMPDEST DUP2 EQ PUSH2 0x8B9 JUMPI PUSH1 0x0 DUP1 REVERT JUMPDEST POP JUMP JUMPDEST PUSH1 0x0 DUP2 CALLDATALOAD SWAP1 POP PUSH2 0x8CB DUP2 PUSH2 0x8A5 JUMP JUMPDEST SWAP3 SWAP2 POP POP JUMP JUMPDEST PUSH1 0x0 DUP1 REVERT JUMPDEST PUSH1 0x0 DUP1 REVERT JUMPDEST PUSH1 0x0 PUSH1 0x1F NOT PUSH1 0x1F DUP4 ADD AND SWAP1 POP SWAP2 SWAP1 POP JUMP JUMPDEST PUSH32 0x4E487B7100000000000000000000000000000000000000000000000000000000 PUSH1 0x0 MSTORE PUSH1 0x41 PUSH1 0x4 MSTORE PUSH1 0x24 PUSH1 0x0 REVERT JUMPDEST PUSH2 0x924 DUP3 PUSH2 0x8DB JUMP JUMPDEST DUP2 ADD DUP2 DUP2 LT PUSH8 0xFFFFFFFFFFFFFFFF DUP3 GT OR ISZERO PUSH2 0x943 JUMPI PUSH2 0x942 PUSH2 0x8EC JUMP JUMPDEST JUMPDEST DUP1 PUSH1 0x40 MSTORE POP POP POP JUMP JUMPDEST PUSH1 0x0 PUSH2 0x956 PUSH2 0x758 JUMP JUMPDEST SWAP1 POP PUSH2 0x962 DUP3 DUP3 PUSH2 0x91B JUMP JUMPDEST SWAP2 SWAP1 POP JUMP JUMPDEST PUSH1 0x0 PUSH8 0xFFFFFFFFFFFFFFFF DUP3 GT ISZERO PUSH2 0x982 JUMPI PUSH2 0x981 PUSH2 0x8EC JUMP JUMPDEST JUMPDEST PUSH2 0x98B DUP3 PUSH2 0x8DB JUMP JUMPDEST SWAP1 POP PUSH1 0x20 DUP2 ADD SWAP1 POP SWAP2 SWAP1 POP JUMP JUMPDEST DUP3 DUP2 DUP4 CALLDATACOPY PUSH1 0x0 DUP4 DUP4 ADD MSTORE POP POP POP JUMP JUMPDEST PUSH1 0x0 PUSH2 0x9BA PUSH2 0x9B5 DUP5 PUSH2 0x967 JUMP JUMPDEST PUSH2 0x94C JUMP JUMPDEST SWAP1 POP DUP3 DUP2 MSTORE PUSH1 0x20 DUP2 ADD DUP5 DUP5 DUP5 ADD GT ISZERO PUSH2 0x9D6 JUMPI PUSH2 0x9D5 PUSH2 0x8D6 JUMP JUMPDEST JUMPDEST PUSH2 0x9E1 DUP5 DUP3 DUP6 PUSH2 0x998 JUMP JUMPDEST POP SWAP4 SWAP3 POP POP POP JUMP JUMPDEST PUSH1 0x0 DUP3 PUSH1 0x1F DUP4 ADD SLT PUSH2 0x9FE JUMPI PUSH2 0x9FD PUSH2 0x8D1 JUMP JUMPDEST JUMPDEST DUP2 CALLDATALOAD PUSH2 0xA0E DUP5 DUP3 PUSH1 0x20 DUP7 ADD PUSH2 0x9A7 JUMP JUMPDEST SWAP2 POP POP SWAP3 SWAP2 POP POP JUMP JUMPDEST PUSH1 0x0 DUP1 PUSH1 0x0 DUP1 PUSH1 0x80 DUP6 DUP8 SUB SLT ISZERO PUSH2 0xA31 JUMPI PUSH2 0xA30 PUSH2 0x762 JUMP JUMPDEST JUMPDEST PUSH1 0x0 PUSH2 0xA3F DUP8 DUP3 DUP9 ADD PUSH2 0x7B5 JUMP JUMPDEST SWAP5 POP POP PUSH1 0x20 PUSH2 0xA50 DUP8 DUP3 DUP9 ADD PUSH2 0x8BC JUMP JUMPDEST SWAP4 POP POP PUSH1 0x40 DUP6 ADD CALLDATALOAD PUSH8 0xFFFFFFFFFFFFFFFF DUP2 GT ISZERO PUSH2 0xA71 JUMPI PUSH2 0xA70 PUSH2 0x767 JUMP JUMPDEST JUMPDEST PUSH2 0xA7D DUP8 DUP3 DUP9 ADD PUSH2 0x9E9 JUMP JUMPDEST SWAP3 POP POP PUSH1 0x60 DUP6 ADD CALLDATALOAD PUSH8 0xFFFFFFFFFFFFFFFF DUP2 GT ISZERO PUSH2 0xA9E JUMPI PUSH2 0xA9D PUSH2 0x767 JUMP JUMPDEST JUMPDEST PUSH2 0xAAA DUP8 DUP3 DUP9 ADD PUSH2 0x9E9 JUMP JUMPDEST SWAP2 POP POP SWAP3 SWAP6 SWAP2 SWAP5 POP SWAP3 POP JUMP JUMPDEST PUSH1 0x0 DUP2 MLOAD SWAP1 POP SWAP2 SWAP1 POP JUMP JUMPDEST PUSH1 0x0 DUP3 DUP3 MSTORE PUSH1 0x20 DUP3 ADD SWAP1 POP SWAP3 SWAP2 POP POP JUMP JUMPDEST PUSH1 0x0 DUP2 SWAP1 POP PUSH1 0x20 DUP3 ADD SWAP1 POP SWAP2 SWAP1 POP JUMP JUMPDEST PUSH2 0xAEB DUP2 PUSH2 0x89B JUMP JUMPDEST DUP3 MSTORE POP POP JUMP JUMPDEST PUSH1 0x0 DUP2 MLOAD SWAP1 POP SWAP2 SWAP1 POP JUMP JUMPDEST PUSH1 0x0 DUP3 DUP3 MSTORE PUSH1 0x20 DUP3 ADD SWAP1 POP SWAP3 SWAP2 POP POP JUMP JUMPDEST PUSH1 0x0 JUMPDEST DUP4 DUP2 LT ISZERO PUSH2 0xB2B JUMPI DUP1 DUP3 ADD MLOAD DUP2 DUP5 ADD MSTORE PUSH1 0x20 DUP2 ADD SWAP1 POP PUSH2 0xB10 JUMP JUMPDEST PUSH1 0x0 DUP5 DUP5 ADD MSTORE POP POP POP POP JUMP JUMPDEST PUSH1 0x0 PUSH2 0xB42 DUP3 PUSH2 0xAF1 JUMP JUMPDEST PUSH2 0xB4C DUP2 DUP6 PUSH2 0xAFC JUMP JUMPDEST SWAP4 POP PUSH2 0xB5C DUP2 DUP6 PUSH1 0x20 DUP7 ADD PUSH2 0xB0D JUMP JUMPDEST PUSH2 0xB65 DUP2 PUSH2 0x8DB JUMP JUMPDEST DUP5 ADD SWAP2 POP POP SWAP3 SWAP2 POP POP JUMP JUMPDEST PUSH1 0x0 PUSH1 0x60 DUP4 ADD PUSH1 0x0 DUP4 ADD MLOAD PUSH2 0xB88 PUSH1 0x0 DUP7 ADD DUP3 PUSH2 0xAE2 JUMP JUMPDEST POP PUSH1 0x20 DUP4 ADD MLOAD DUP5 DUP3 SUB PUSH1 0x20 DUP7 ADD MSTORE PUSH2 0xBA0 DUP3 DUP3 PUSH2 0xB37 JUMP JUMPDEST SWAP2 POP POP PUSH1 0x40 DUP4 ADD MLOAD DUP5 DUP3 SUB PUSH1 0x40 DUP7 ADD MSTORE PUSH2 0xBBA DUP3 DUP3 PUSH2 0xB37 JUMP JUMPDEST SWAP2 POP POP DUP1 SWAP2 POP POP SWAP3 SWAP2 POP POP JUMP JUMPDEST PUSH1 0x0 PUSH2 0xBD3 DUP4 DUP4 PUSH2 0xB70 JUMP JUMPDEST SWAP1 POP SWAP3 SWAP2 POP POP JUMP JUMPDEST PUSH1 0x0 PUSH1 0x20 DUP3 ADD SWAP1 POP SWAP2 SWAP1 POP JUMP JUMPDEST PUSH1 0x0 PUSH2 0xBF3 DUP3 PUSH2 0xAB6 JUMP JUMPDEST PUSH2 0xBFD DUP2 DUP6 PUSH2 0xAC1 JUMP JUMPDEST SWAP4 POP DUP4 PUSH1 0x20 DUP3 MUL DUP6 ADD PUSH2 0xC0F DUP6 PUSH2 0xAD2 JUMP JUMPDEST DUP1 PUSH1 0x0 JUMPDEST DUP6 DUP2 LT ISZERO PUSH2 0xC4B JUMPI DUP5 DUP5 SUB DUP10 MSTORE DUP2 MLOAD PUSH2 0xC2C DUP6 DUP3 PUSH2 0xBC7 JUMP JUMPDEST SWAP5 POP PUSH2 0xC37 DUP4 PUSH2 0xBDB JUMP JUMPDEST SWAP3 POP PUSH1 0x20 DUP11 ADD SWAP10 POP POP PUSH1 0x1 DUP2 ADD SWAP1 POP PUSH2 0xC13 JUMP JUMPDEST POP DUP3 SWAP8 POP DUP8 SWAP6 POP POP POP POP POP POP SWAP3 SWAP2 POP POP JUMP JUMPDEST PUSH1 0x0 PUSH1 0x20 DUP3 ADD SWAP1 POP DUP2 DUP2 SUB PUSH1 0x0 DUP4 ADD MSTORE PUSH2 0xC77 DUP2 DUP5 PUSH2 0xBE8 JUMP JUMPDEST SWAP1 POP SWAP3 SWAP2 POP POP JUMP JUMPDEST PUSH1 0x0 PUSH1 0x20 DUP3 DUP5 SUB SLT ISZERO PUSH2 0xC95 JUMPI PUSH2 0xC94 PUSH2 0x762 JUMP JUMPDEST JUMPDEST PUSH1 0x0 PUSH2 0xCA3 DUP5 DUP3 DUP6 ADD PUSH2 0x8BC JUMP JUMPDEST SWAP2 POP POP SWAP3 SWAP2 POP POP JUMP JUMPDEST PUSH2 0xCB5 DUP2 PUSH2 0x89B JUMP JUMPDEST DUP3 MSTORE POP POP JUMP JUMPDEST PUSH1 0x0 DUP3 DUP3 MSTORE PUSH1 0x20 DUP3 ADD SWAP1 POP SWAP3 SWAP2 POP POP JUMP JUMPDEST PUSH1 0x0 PUSH2 0xCD7 DUP3 PUSH2 0xAF1 JUMP JUMPDEST PUSH2 0xCE1 DUP2 DUP6 PUSH2 0xCBB JUMP JUMPDEST SWAP4 POP PUSH2 0xCF1 DUP2 DUP6 PUSH1 0x20 DUP7 ADD PUSH2 0xB0D JUMP JUMPDEST PUSH2 0xCFA DUP2 PUSH2 0x8DB JUMP JUMPDEST DUP5 ADD SWAP2 POP POP SWAP3 SWAP2 POP POP JUMP JUMPDEST PUSH1 0x0 PUSH1 0x60 DUP3 ADD SWAP1 POP PUSH2 0xD1A PUSH1 0x0 DUP4 ADD DUP7 PUSH2 0xCAC JUMP JUMPDEST DUP2 DUP2 SUB PUSH1 0x20 DUP4 ADD MSTORE PUSH2 0xD2C DUP2 DUP6 PUSH2 0xCCC JUMP JUMPDEST SWAP1 POP DUP2 DUP2 SUB PUSH1 0x40 DUP4 ADD MSTORE PUSH2 0xD40 DUP2 DUP5 PUSH2 0xCCC JUMP JUMPDEST SWAP1 POP SWAP5 SWAP4 POP POP POP POP JUMP JUMPDEST PUSH32 0x7370656300000000000000000000000000000000000000000000000000000000 PUSH1 0x0 DUP3 ADD MSTORE POP JUMP JUMPDEST PUSH1 0x0 PUSH2 0xD80 PUSH1 0x4 DUP4 PUSH2 0xCBB JUMP JUMPDEST SWAP2 POP PUSH2 0xD8B DUP3 PUSH2 0xD4A JUMP JUMPDEST PUSH1 0x20 DUP3 ADD SWAP1 POP SWAP2 SWAP1 POP JUMP JUMPDEST PUSH32 0x7B22456E67696E65223A22446F636B6572222C225665726966696572223A224E PUSH1 0x0 DUP3 ADD MSTORE PUSH32 0x6F6F70222C225075626C6973686572223A2245737475617279222C22446F636B PUSH1 0x20 DUP3 ADD MSTORE PUSH32 0x6572223A7B22496D616765223A22676863722E696F2F626163616C6861752D70 PUSH1 0x40 DUP3 ADD MSTORE PUSH32 0x726F6A6563742F6578616D706C65732F737461626C652D646966667573696F6E PUSH1 0x60 DUP3 ADD MSTORE PUSH32 0x2D6770753A302E302E31222C22456E747279706F696E74223A5B22707974686F PUSH1 0x80 DUP3 ADD MSTORE PUSH32 0x6E222C226D61696E2E7079222C222D2D6F222C222E2F6F757470757473222C22 PUSH1 0xA0 DUP3 ADD MSTORE PUSH32 0x2D2D70222C225261696E626F7720556E69636F726E225D7D2C225265736F7572 PUSH1 0xC0 DUP3 ADD MSTORE PUSH32 0x636573223A7B22475055223A2231227D00000000000000000000000000000000 PUSH1 0xE0 DUP3 ADD MSTORE POP JUMP JUMPDEST PUSH1 0x0 PUSH2 0xED6 PUSH1 0xF0 DUP4 PUSH2 0xCBB JUMP JUMPDEST SWAP2 POP PUSH2 0xEE1 DUP3 PUSH2 0xD96 JUMP JUMPDEST PUSH2 0x100 DUP3 ADD SWAP1 POP SWAP2 SWAP1 POP JUMP JUMPDEST PUSH1 0x0 PUSH1 0x60 DUP3 ADD SWAP1 POP PUSH2 0xF02 PUSH1 0x0 DUP4 ADD DUP5 PUSH2 0x871 JUMP JUMPDEST DUP2 DUP2 SUB PUSH1 0x20 DUP4 ADD MSTORE PUSH2 0xF13 DUP2 PUSH2 0xD73 JUMP JUMPDEST SWAP1 POP DUP2 DUP2 SUB PUSH1 0x40 DUP4 ADD MSTORE PUSH2 0xF26 DUP2 PUSH2 0xEC9 JUMP JUMPDEST SWAP1 POP SWAP3 SWAP2 POP POP JUMP JUMPDEST PUSH32 0x54686973206973206E6F7420746865206F6666696369616C204C696C79706164 PUSH1 0x0 DUP3 ADD MSTORE PUSH32 0x4576656E747320436F6E74726163740000000000000000000000000000000000 PUSH1 0x20 DUP3 ADD MSTORE POP JUMP JUMPDEST PUSH1 0x0 PUSH2 0xF8A PUSH1 0x2F DUP4 PUSH2 0xCBB JUMP JUMPDEST SWAP2 POP PUSH2 0xF95 DUP3 PUSH2 0xF2E JUMP JUMPDEST PUSH1 0x40 DUP3 ADD SWAP1 POP SWAP2 SWAP1 POP JUMP JUMPDEST PUSH1 0x0 PUSH1 0x20 DUP3 ADD SWAP1 POP DUP2 DUP2 SUB PUSH1 0x0 DUP4 ADD MSTORE PUSH2 0xFB9 DUP2 PUSH2 0xF7D JUMP JUMPDEST SWAP1 POP SWAP2 SWAP1 POP JUMP JUMPDEST PUSH32 0x4E487B7100000000000000000000000000000000000000000000000000000000 PUSH1 0x0 MSTORE PUSH1 0x22 PUSH1 0x4 MSTORE PUSH1 0x24 PUSH1 0x0 REVERT JUMPDEST PUSH1 0x0 PUSH1 0x2 DUP3 DIV SWAP1 POP PUSH1 0x1 DUP3 AND DUP1 PUSH2 0x1007 JUMPI PUSH1 0x7F DUP3 AND SWAP2 POP JUMPDEST PUSH1 0x20 DUP3 LT DUP2 SUB PUSH2 0x101A JUMPI PUSH2 0x1019 PUSH2 0xFC0 JUMP JUMPDEST JUMPDEST POP SWAP2 SWAP1 POP JUMP JUMPDEST PUSH1 0x0 DUP2 SWAP1 POP DUP2 PUSH1 0x0 MSTORE PUSH1 0x20 PUSH1 0x0 KECCAK256 SWAP1 POP SWAP2 SWAP1 POP JUMP JUMPDEST PUSH1 0x0 PUSH1 0x20 PUSH1 0x1F DUP4 ADD DIV SWAP1 POP SWAP2 SWAP1 POP JUMP JUMPDEST PUSH1 0x0 DUP3 DUP3 SHL SWAP1 POP SWAP3 SWAP2 POP POP JUMP JUMPDEST PUSH1 0x0 PUSH1 0x8 DUP4 MUL PUSH2 0x1082 PUSH32 0xFFFFFFFFFFFFFFFFFFFFFFFFFFFFFFFFFFFFFFFFFFFFFFFFFFFFFFFFFFFFFFFF DUP3 PUSH2 0x1045 JUMP JUMPDEST PUSH2 0x108C DUP7 DUP4 PUSH2 0x1045 JUMP JUMPDEST SWAP6 POP DUP1 NOT DUP5 AND SWAP4 POP DUP1 DUP7 AND DUP5 OR SWAP3 POP POP POP SWAP4 SWAP3 POP POP POP JUMP JUMPDEST PUSH1 0x0 PUSH2 0x10BF PUSH2 0x10BA PUSH2 0x10B5 DUP5 PUSH2 0x89B JUMP JUMPDEST PUSH2 0x7F7 JUMP JUMPDEST PUSH2 0x89B JUMP JUMPDEST SWAP1 POP SWAP2 SWAP1 POP JUMP JUMPDEST PUSH1 0x0 DUP2 SWAP1 POP SWAP2 SWAP1 POP JUMP JUMPDEST PUSH2 0x10D9 DUP4 PUSH2 0x10A4 JUMP JUMPDEST PUSH2 0x10ED PUSH2 0x10E5 DUP3 PUSH2 0x10C6 JUMP JUMPDEST DUP5 DUP5 SLOAD PUSH2 0x1052 JUMP JUMPDEST DUP3 SSTORE POP POP POP POP JUMP JUMPDEST PUSH1 0x0 SWAP1 JUMP JUMPDEST PUSH2 0x1102 PUSH2 0x10F5 JUMP JUMPDEST PUSH2 0x110D DUP2 DUP5 DUP5 PUSH2 0x10D0 JUMP JUMPDEST POP POP POP JUMP JUMPDEST JUMPDEST DUP2 DUP2 LT ISZERO PUSH2 0x1131 JUMPI PUSH2 0x1126 PUSH1 0x0 DUP3 PUSH2 0x10FA JUMP JUMPDEST PUSH1 0x1 DUP2 ADD SWAP1 POP PUSH2 0x1113 JUMP JUMPDEST POP POP JUMP JUMPDEST PUSH1 0x1F DUP3 GT ISZERO PUSH2 0x1176 JUMPI PUSH2 0x1147 DUP2 PUSH2 0x1020 JUMP JUMPDEST PUSH2 0x1150 DUP5 PUSH2 0x1035 JUMP JUMPDEST DUP2 ADD PUSH1 0x20 DUP6 LT ISZERO PUSH2 0x115F JUMPI DUP2 SWAP1 POP JUMPDEST PUSH2 0x1173 PUSH2 0x116B DUP6 PUSH2 0x1035 JUMP JUMPDEST DUP4 ADD DUP3 PUSH2 0x1112 JUMP JUMPDEST POP POP JUMPDEST POP POP POP JUMP JUMPDEST PUSH1 0x0 DUP3 DUP3 SHR SWAP1 POP SWAP3 SWAP2 POP POP JUMP JUMPDEST PUSH1 0x0 PUSH2 0x1199 PUSH1 0x0 NOT DUP5 PUSH1 0x8 MUL PUSH2 0x117B JUMP JUMPDEST NOT DUP1 DUP4 AND SWAP2 POP POP SWAP3 SWAP2 POP POP JUMP JUMPDEST PUSH1 0x0 PUSH2 0x11B2 DUP4 DUP4 PUSH2 0x1188 JUMP JUMPDEST SWAP2 POP DUP3 PUSH1 0x2 MUL DUP3 OR SWAP1 POP SWAP3 SWAP2 POP POP JUMP JUMPDEST PUSH2 0x11CB DUP3 PUSH2 0xAF1 JUMP JUMPDEST PUSH8 0xFFFFFFFFFFFFFFFF DUP2 GT ISZERO PUSH2 0x11E4 JUMPI PUSH2 0x11E3 PUSH2 0x8EC JUMP JUMPDEST JUMPDEST PUSH2 0x11EE DUP3 SLOAD PUSH2 0xFEF JUMP JUMPDEST PUSH2 0x11F9 DUP3 DUP3 DUP6 PUSH2 0x1135 JUMP JUMPDEST PUSH1 0x0 PUSH1 0x20 SWAP1 POP PUSH1 0x1F DUP4 GT PUSH1 0x1 DUP2 EQ PUSH2 0x122C JUMPI PUSH1 0x0 DUP5 ISZERO PUSH2 0x121A JUMPI DUP3 DUP8 ADD MLOAD SWAP1 POP JUMPDEST PUSH2 0x1224 DUP6 DUP3 PUSH2 0x11A6 JUMP JUMPDEST DUP7 SSTORE POP PUSH2 0x128C JUMP JUMPDEST PUSH1 0x1F NOT DUP5 AND PUSH2 0x123A DUP7 PUSH2 0x1020 JUMP JUMPDEST PUSH1 0x0 JUMPDEST DUP3 DUP2 LT ISZERO PUSH2 0x1262 JUMPI DUP5 DUP10 ADD MLOAD DUP3 SSTORE PUSH1 0x1 DUP3 ADD SWAP2 POP PUSH1 0x20 DUP6 ADD SWAP5 POP PUSH1 0x20 DUP2 ADD SWAP1 POP PUSH2 0x123D JUMP JUMPDEST DUP7 DUP4 LT ISZERO PUSH2 0x127F JUMPI DUP5 DUP10 ADD MLOAD PUSH2 0x127B PUSH1 0x1F DUP10 AND DUP3 PUSH2 0x1188 JUMP JUMPDEST DUP4 SSTORE POP JUMPDEST PUSH1 0x1 PUSH1 0x2 DUP9 MUL ADD DUP9 SSTORE POP POP POP JUMPDEST POP POP POP POP POP POP JUMP JUMPDEST PUSH1 0x0 PUSH1 0x20 DUP3 ADD SWAP1 POP DUP2 DUP2 SUB PUSH1 0x0 DUP4 ADD MSTORE PUSH2 0x12AE DUP2 DUP5 PUSH2 0xCCC JUMP JUMPDEST SWAP1 POP SWAP3 SWAP2 POP POP JUMP INVALID LOG2 PUSH5 0x6970667358 0x22 SLT KECCAK256 SWAP15 0xF9 0x4F SWAP10 GAS PUSH9 0xB884A756AB09D63CB8 0x29 BYTE SWAP14 DUP4 0xCA LOG3 GASPRICE 0xCF CALLDATALOAD 0xB0 0xB4 PUSH20 0x43963E5D6E64736F6C6343000811003300000000 "},"methodIdentifiers":{"LPEvents()":"5fad0a8e","LilypadEventsContract()":"35f3cf03","fetchAllJobs()":"ce4af1d7","lilypadEventCaller()":"510255b9","lilypadJobs(uint256)":"f1cb28ad","lilypadReceiver(address,uint256,string,string)":"6742bfda","setLPEventsAddress(address)":"0972c2fa"}},"storageLayout":{"storage":[{"astId":85,"contract":"contracts/LilypadCaller.sol:LilypadCaller","label":"LPEvents","offset":0,"slot":"0","type":"t_address"},{"astId":88,"contract":"contracts/LilypadCaller.sol:LilypadCaller","label":"LilypadEventsContract","offset":0,"slot":"1","type":"t_contract(LilypadEvents)435"},{"astId":99,"contract":"contracts/LilypadCaller.sol:LilypadCaller","label":"lilypadJobs","offset":0,"slot":"2","type":"t_array(t_struct(LilypadJob)95_storage)dyn_storage"}],"types":{"t_address":{"encoding":"inplace","label":"address","numberOfBytes":"20"},"t_array(t_struct(LilypadJob)95_storage)dyn_storage":{"base":"t_struct(LilypadJob)95_storage","encoding":"dynamic_array","label":"struct LilypadCaller.LilypadJob[]","numberOfBytes":"32"},"t_contract(LilypadEvents)435":{"encoding":"inplace","label":"contract LilypadEvents","numberOfBytes":"20"},"t_string_storage":{"encoding":"bytes","label":"string","numberOfBytes":"32"},"t_struct(LilypadJob)95_storage":{"encoding":"inplace","label":"struct LilypadCaller.LilypadJob","members":[{"astId":90,"contract":"contracts/LilypadCaller.sol:LilypadCaller","label":"jobId","offset":0,"slot":"0","type":"t_uint256"},{"astId":92,"contract":"contracts/LilypadCaller.sol:LilypadCaller","label":"jobName","offset":0,"slot":"1","type":"t_string_storage"},{"astId":94,"contract":"contracts/LilypadCaller.sol:LilypadCaller","label":"ipfsResult","offset":0,"slot":"2","type":"t_string_storage"}],"numberOfBytes":"96"},"t_uint256":{"encoding":"inplace","label":"uint256","numberOfBytes":"32"}}}}}}