{"contracts/LilypadEvents.sol":{"LilypadEvents":{"abi":[{"inputs":[],"stateMutability":"nonpayable","type":"constructor"},{"anonymous":false,"inputs":[{"indexed":false,"internalType":"address","name":"from","type":"address"},{"indexed":true,"internalType":"string","name":"jobName","type":"string"},{"indexed":false,"internalType":"string","name":"params","type":"string"}],"name":"NewBacalhauJobSubmitted","type":"event"},{"inputs":[{"internalType":"address","name":"to","type":"address"},{"internalType":"string","name":"jobID","type":"string"},{"internalType":"string","name":"ipfsID","type":"string"}],"name":"returnResults","outputs":[],"stateMutability":"nonpayable","type":"function"},{"inputs":[{"internalType":"address","name":"from","type":"address"},{"internalType":"string","name":"_jobName","type":"string"},{"internalType":"string","name":"params","type":"string"}],"name":"runBacalhauJob","outputs":[],"stateMutability":"nonpayable","type":"function"}],"evm":{"bytecode":{"linkReferences":{},"object":"608060405234801561001057600080fd5b506100596040518060400160405280602081526020017f4465706c6f79696e67204c696c797061644576656e747320636f6e747261637481525061005e60201b61010f1760201c565b6101d8565b6100fa8160405160240161007291906101b6565b6040516020818303038152906040527f41304fac000000000000000000000000000000000000000000000000000000007bffffffffffffffffffffffffffffffffffffffffffffffffffffffff19166020820180517bffffffffffffffffffffffffffffffffffffffffffffffffffffffff83818316178352505050506100fd60201b60201c565b50565b60008151905060006a636f6e736f6c652e6c6f679050602083016000808483855afa5050505050565b600081519050919050565b600082825260208201905092915050565b60005b83811015610160578082015181840152602081019050610145565b60008484015250505050565b6000601f19601f8301169050919050565b600061018882610126565b6101928185610131565b93506101a2818560208601610142565b6101ab8161016c565b840191505092915050565b600060208201905081810360008301526101d0818461017d565b905092915050565b610694806101e76000396000f3fe608060405234801561001057600080fd5b50600436106100365760003560e01c8063390109341461003b578063fe41ff3b14610057575b600080fd5b61005560048036038101906100509190610422565b610073565b005b610071600480360381019061006c9190610422565b6100b6565b005b6100b16040518060400160405280600881526020017f646f20737475666600000000000000000000000000000000000000000000000081525061010f565b505050565b6100bf336101a8565b6040516100cb90610504565b60405180910390207fbd4c84f97376a916a5ac1d6ba01328a813fc80455c92026c217af8c04f8e3bb1336040516101029190610585565b60405180910390a2505050565b6101a5816040516024016101239190610621565b6040516020818303038152906040527f41304fac000000000000000000000000000000000000000000000000000000007bffffffffffffffffffffffffffffffffffffffffffffffffffffffff19166020820180517bffffffffffffffffffffffffffffffffffffffffffffffffffffffff8381831617835250505050610241565b50565b61023e816040516024016101bc9190610643565b6040516020818303038152906040527f2c2ecbc2000000000000000000000000000000000000000000000000000000007bffffffffffffffffffffffffffffffffffffffffffffffffffffffff19166020820180517bffffffffffffffffffffffffffffffffffffffffffffffffffffffff8381831617835250505050610241565b50565b60008151905060006a636f6e736f6c652e6c6f679050602083016000808483855afa5050505050565b6000604051905090565b600080fd5b600080fd5b600073ffffffffffffffffffffffffffffffffffffffff82169050919050565b60006102a98261027e565b9050919050565b6102b98161029e565b81146102c457600080fd5b50565b6000813590506102d6816102b0565b92915050565b600080fd5b600080fd5b6000601f19601f8301169050919050565b7f4e487b7100000000000000000000000000000000000000000000000000000000600052604160045260246000fd5b61032f826102e6565b810181811067ffffffffffffffff8211171561034e5761034d6102f7565b5b80604052505050565b600061036161026a565b905061036d8282610326565b919050565b600067ffffffffffffffff82111561038d5761038c6102f7565b5b610396826102e6565b9050602081019050919050565b82818337600083830152505050565b60006103c56103c084610372565b610357565b9050828152602081018484840111156103e1576103e06102e1565b5b6103ec8482856103a3565b509392505050565b600082601f830112610409576104086102dc565b5b81356104198482602086016103b2565b91505092915050565b60008060006060848603121561043b5761043a610274565b5b6000610449868287016102c7565b935050602084013567ffffffffffffffff81111561046a57610469610279565b5b610476868287016103f4565b925050604084013567ffffffffffffffff81111561049757610496610279565b5b6104a3868287016103f4565b9150509250925092565b600081905092915050565b7f537461626c65446966667573696f6e4750550000000000000000000000000000600082015250565b60006104ee6012836104ad565b91506104f9826104b8565b601282019050919050565b600061050f826104e1565b9150819050919050565b6105228161029e565b82525050565b600082825260208201905092915050565b7f5261696e626f7720556e69636f726e0000000000000000000000000000000000600082015250565b600061056f600f83610528565b915061057a82610539565b602082019050919050565b600060408201905061059a6000830184610519565b81810360208301526105ab81610562565b905092915050565b600081519050919050565b60005b838110156105dc5780820151818401526020810190506105c1565b60008484015250505050565b60006105f3826105b3565b6105fd8185610528565b935061060d8185602086016105be565b610616816102e6565b840191505092915050565b6000602082019050818103600083015261063b81846105e8565b905092915050565b60006020820190506106586000830184610519565b9291505056fea26469706673582212203555002a97d672e5841cd381fae40390c587f4361ec241f9a96aa4295acfe96664736f6c63430008110033","opcodes":"PUSH1 0x80 PUSH1 0x40 MSTORE CALLVALUE DUP1 ISZERO PUSH2 0x10 JUMPI PUSH1 0x0 DUP1 REVERT JUMPDEST POP PUSH2 0x59 PUSH1 0x40 MLOAD DUP1 PUSH1 0x40 ADD PUSH1 0x40 MSTORE DUP1 PUSH1 0x20 DUP2 MSTORE PUSH1 0x20 ADD PUSH32 0x4465706C6F79696E67204C696C797061644576656E747320636F6E7472616374 DUP2 MSTORE POP PUSH2 0x5E PUSH1 0x20 SHL PUSH2 0x10F OR PUSH1 0x20 SHR JUMP JUMPDEST PUSH2 0x1D8 JUMP JUMPDEST PUSH2 0xFA DUP2 PUSH1 0x40 MLOAD PUSH1 0x24 ADD PUSH2 0x72 SWAP2 SWAP1 PUSH2 0x1B6 JUMP JUMPDEST PUSH1 0x40 MLOAD PUSH1 0x20 DUP2 DUP4 SUB SUB DUP2 MSTORE SWAP1 PUSH1 0x40 MSTORE PUSH32 0x41304FAC00000000000000000000000000000000000000000000000000000000 PUSH28 0xFFFFFFFFFFFFFFFFFFFFFFFFFFFFFFFFFFFFFFFFFFFFFFFFFFFFFFFF NOT AND PUSH1 0x20 DUP3 ADD DUP1 MLOAD PUSH28 0xFFFFFFFFFFFFFFFFFFFFFFFFFFFFFFFFFFFFFFFFFFFFFFFFFFFFFFFF DUP4 DUP2 DUP4 AND OR DUP4 MSTORE POP POP POP POP PUSH2 0xFD PUSH1 0x20 SHL PUSH1 0x20 SHR JUMP JUMPDEST POP JUMP JUMPDEST PUSH1 0x0 DUP2 MLOAD SWAP1 POP PUSH1 0x0 PUSH11 0x636F6E736F6C652E6C6F67 SWAP1 POP PUSH1 0x20 DUP4 ADD PUSH1 0x0 DUP1 DUP5 DUP4 DUP6 GAS STATICCALL POP POP POP POP POP JUMP JUMPDEST PUSH1 0x0 DUP2 MLOAD SWAP1 POP SWAP2 SWAP1 POP JUMP JUMPDEST PUSH1 0x0 DUP3 DUP3 MSTORE PUSH1 0x20 DUP3 ADD SWAP1 POP SWAP3 SWAP2 POP POP JUMP JUMPDEST PUSH1 0x0 JUMPDEST DUP4 DUP2 LT ISZERO PUSH2 0x160 JUMPI DUP1 DUP3 ADD MLOAD DUP2 DUP5 ADD MSTORE PUSH1 0x20 DUP2 ADD SWAP1 POP PUSH2 0x145 JUMP JUMPDEST PUSH1 0x0 DUP5 DUP5 ADD MSTORE POP POP POP POP JUMP JUMPDEST PUSH1 0x0 PUSH1 0x1F NOT PUSH1 0x1F DUP4 ADD AND SWAP1 POP SWAP2 SWAP1 POP JUMP JUMPDEST PUSH1 0x0 PUSH2 0x188 DUP3 PUSH2 0x126 JUMP JUMPDEST PUSH2 0x192 DUP2 DUP6 PUSH2 0x131 JUMP JUMPDEST SWAP4 POP PUSH2 0x1A2 DUP2 DUP6 PUSH1 0x20 DUP7 ADD PUSH2 0x142 JUMP JUMPDEST PUSH2 0x1AB DUP2 PUSH2 0x16C JUMP JUMPDEST DUP5 ADD SWAP2 POP POP SWAP3 SWAP2 POP POP JUMP JUMPDEST PUSH1 0x0 PUSH1 0x20 DUP3 ADD SWAP1 POP DUP2 DUP2 SUB PUSH1 0x0 DUP4 ADD MSTORE PUSH2 0x1D0 DUP2 DUP5 PUSH2 0x17D JUMP JUMPDEST SWAP1 POP SWAP3 SWAP2 POP POP JUMP JUMPDEST PUSH2 0x694 DUP1 PUSH2 0x1E7 PUSH1 0x0 CODECOPY PUSH1 0x0 RETURN INVALID PUSH1 0x80 PUSH1 0x40 MSTORE CALLVALUE DUP1 ISZERO PUSH2 0x10 JUMPI PUSH1 0x0 DUP1 REVERT JUMPDEST POP PUSH1 0x4 CALLDATASIZE LT PUSH2 0x36 JUMPI PUSH1 0x0 CALLDATALOAD PUSH1 0xE0 SHR DUP1 PUSH4 0x39010934 EQ PUSH2 0x3B JUMPI DUP1 PUSH4 0xFE41FF3B EQ PUSH2 0x57 JUMPI JUMPDEST PUSH1 0x0 DUP1 REVERT JUMPDEST PUSH2 0x55 PUSH1 0x4 DUP1 CALLDATASIZE SUB DUP2 ADD SWAP1 PUSH2 0x50 SWAP2 SWAP1 PUSH2 0x422 JUMP JUMPDEST PUSH2 0x73 JUMP JUMPDEST STOP JUMPDEST PUSH2 0x71 PUSH1 0x4 DUP1 CALLDATASIZE SUB DUP2 ADD SWAP1 PUSH2 0x6C SWAP2 SWAP1 PUSH2 0x422 JUMP JUMPDEST PUSH2 0xB6 JUMP JUMPDEST STOP JUMPDEST PUSH2 0xB1 PUSH1 0x40 MLOAD DUP1 PUSH1 0x40 ADD PUSH1 0x40 MSTORE DUP1 PUSH1 0x8 DUP2 MSTORE PUSH1 0x20 ADD PUSH32 0x646F207374756666000000000000000000000000000000000000000000000000 DUP2 MSTORE POP PUSH2 0x10F JUMP JUMPDEST POP POP POP JUMP JUMPDEST PUSH2 0xBF CALLER PUSH2 0x1A8 JUMP JUMPDEST PUSH1 0x40 MLOAD PUSH2 0xCB SWAP1 PUSH2 0x504 JUMP JUMPDEST PUSH1 0x40 MLOAD DUP1 SWAP2 SUB SWAP1 KECCAK256 PUSH32 0xBD4C84F97376A916A5AC1D6BA01328A813FC80455C92026C217AF8C04F8E3BB1 CALLER PUSH1 0x40 MLOAD PUSH2 0x102 SWAP2 SWAP1 PUSH2 0x585 JUMP JUMPDEST PUSH1 0x40 MLOAD DUP1 SWAP2 SUB SWAP1 LOG2 POP POP POP JUMP JUMPDEST PUSH2 0x1A5 DUP2 PUSH1 0x40 MLOAD PUSH1 0x24 ADD PUSH2 0x123 SWAP2 SWAP1 PUSH2 0x621 JUMP JUMPDEST PUSH1 0x40 MLOAD PUSH1 0x20 DUP2 DUP4 SUB SUB DUP2 MSTORE SWAP1 PUSH1 0x40 MSTORE PUSH32 0x41304FAC00000000000000000000000000000000000000000000000000000000 PUSH28 0xFFFFFFFFFFFFFFFFFFFFFFFFFFFFFFFFFFFFFFFFFFFFFFFFFFFFFFFF NOT AND PUSH1 0x20 DUP3 ADD DUP1 MLOAD PUSH28 0xFFFFFFFFFFFFFFFFFFFFFFFFFFFFFFFFFFFFFFFFFFFFFFFFFFFFFFFF DUP4 DUP2 DUP4 AND OR DUP4 MSTORE POP POP POP POP PUSH2 0x241 JUMP JUMPDEST POP JUMP JUMPDEST PUSH2 0x23E DUP2 PUSH1 0x40 MLOAD PUSH1 0x24 ADD PUSH2 0x1BC SWAP2 SWAP1 PUSH2 0x643 JUMP JUMPDEST PUSH1 0x40 MLOAD PUSH1 0x20 DUP2 DUP4 SUB SUB DUP2 MSTORE SWAP1 PUSH1 0x40 MSTORE PUSH32 0x2C2ECBC200000000000000000000000000000000000000000000000000000000 PUSH28 0xFFFFFFFFFFFFFFFFFFFFFFFFFFFFFFFFFFFFFFFFFFFFFFFFFFFFFFFF NOT AND PUSH1 0x20 DUP3 ADD DUP1 MLOAD PUSH28 0xFFFFFFFFFFFFFFFFFFFFFFFFFFFFFFFFFFFFFFFFFFFFFFFFFFFFFFFF DUP4 DUP2 DUP4 AND OR DUP4 MSTORE POP POP POP POP PUSH2 0x241 JUMP JUMPDEST POP JUMP JUMPDEST PUSH1 0x0 DUP2 MLOAD SWAP1 POP PUSH1 0x0 PUSH11 0x636F6E736F6C652E6C6F67 SWAP1 POP PUSH1 0x20 DUP4 ADD PUSH1 0x0 DUP1 DUP5 DUP4 DUP6 GAS STATICCALL POP POP POP POP POP JUMP JUMPDEST PUSH1 0x0 PUSH1 0x40 MLOAD SWAP1 POP SWAP1 JUMP JUMPDEST PUSH1 0x0 DUP1 REVERT JUMPDEST PUSH1 0x0 DUP1 REVERT JUMPDEST PUSH1 0x0 PUSH20 0xFFFFFFFFFFFFFFFFFFFFFFFFFFFFFFFFFFFFFFFF DUP3 AND SWAP1 POP SWAP2 SWAP1 POP JUMP JUMPDEST PUSH1 0x0 PUSH2 0x2A9 DUP3 PUSH2 0x27E JUMP JUMPDEST SWAP1 POP SWAP2 SWAP1 POP JUMP JUMPDEST PUSH2 0x2B9 DUP2 PUSH2 0x29E JUMP JUMPDEST DUP2 EQ PUSH2 0x2C4 JUMPI PUSH1 0x0 DUP1 REVERT JUMPDEST POP JUMP JUMPDEST PUSH1 0x0 DUP2 CALLDATALOAD SWAP1 POP PUSH2 0x2D6 DUP2 PUSH2 0x2B0 JUMP JUMPDEST SWAP3 SWAP2 POP POP JUMP JUMPDEST PUSH1 0x0 DUP1 REVERT JUMPDEST PUSH1 0x0 DUP1 REVERT JUMPDEST PUSH1 0x0 PUSH1 0x1F NOT PUSH1 0x1F DUP4 ADD AND SWAP1 POP SWAP2 SWAP1 POP JUMP JUMPDEST PUSH32 0x4E487B7100000000000000000000000000000000000000000000000000000000 PUSH1 0x0 MSTORE PUSH1 0x41 PUSH1 0x4 MSTORE PUSH1 0x24 PUSH1 0x0 REVERT JUMPDEST PUSH2 0x32F DUP3 PUSH2 0x2E6 JUMP JUMPDEST DUP2 ADD DUP2 DUP2 LT PUSH8 0xFFFFFFFFFFFFFFFF DUP3 GT OR ISZERO PUSH2 0x34E JUMPI PUSH2 0x34D PUSH2 0x2F7 JUMP JUMPDEST JUMPDEST DUP1 PUSH1 0x40 MSTORE POP POP POP JUMP JUMPDEST PUSH1 0x0 PUSH2 0x361 PUSH2 0x26A JUMP JUMPDEST SWAP1 POP PUSH2 0x36D DUP3 DUP3 PUSH2 0x326 JUMP JUMPDEST SWAP2 SWAP1 POP JUMP JUMPDEST PUSH1 0x0 PUSH8 0xFFFFFFFFFFFFFFFF DUP3 GT ISZERO PUSH2 0x38D JUMPI PUSH2 0x38C PUSH2 0x2F7 JUMP JUMPDEST JUMPDEST PUSH2 0x396 DUP3 PUSH2 0x2E6 JUMP JUMPDEST SWAP1 POP PUSH1 0x20 DUP2 ADD SWAP1 POP SWAP2 SWAP1 POP JUMP JUMPDEST DUP3 DUP2 DUP4 CALLDATACOPY PUSH1 0x0 DUP4 DUP4 ADD MSTORE POP POP POP JUMP JUMPDEST PUSH1 0x0 PUSH2 0x3C5 PUSH2 0x3C0 DUP5 PUSH2 0x372 JUMP JUMPDEST PUSH2 0x357 JUMP JUMPDEST SWAP1 POP DUP3 DUP2 MSTORE PUSH1 0x20 DUP2 ADD DUP5 DUP5 DUP5 ADD GT ISZERO PUSH2 0x3E1 JUMPI PUSH2 0x3E0 PUSH2 0x2E1 JUMP JUMPDEST JUMPDEST PUSH2 0x3EC DUP5 DUP3 DUP6 PUSH2 0x3A3 JUMP JUMPDEST POP SWAP4 SWAP3 POP POP POP JUMP JUMPDEST PUSH1 0x0 DUP3 PUSH1 0x1F DUP4 ADD SLT PUSH2 0x409 JUMPI PUSH2 0x408 PUSH2 0x2DC JUMP JUMPDEST JUMPDEST DUP2 CALLDATALOAD PUSH2 0x419 DUP5 DUP3 PUSH1 0x20 DUP7 ADD PUSH2 0x3B2 JUMP JUMPDEST SWAP2 POP POP SWAP3 SWAP2 POP POP JUMP JUMPDEST PUSH1 0x0 DUP1 PUSH1 0x0 PUSH1 0x60 DUP5 DUP7 SUB SLT ISZERO PUSH2 0x43B JUMPI PUSH2 0x43A PUSH2 0x274 JUMP JUMPDEST JUMPDEST PUSH1 0x0 PUSH2 0x449 DUP7 DUP3 DUP8 ADD PUSH2 0x2C7 JUMP JUMPDEST SWAP4 POP POP PUSH1 0x20 DUP5 ADD CALLDATALOAD PUSH8 0xFFFFFFFFFFFFFFFF DUP2 GT ISZERO PUSH2 0x46A JUMPI PUSH2 0x469 PUSH2 0x279 JUMP JUMPDEST JUMPDEST PUSH2 0x476 DUP7 DUP3 DUP8 ADD PUSH2 0x3F4 JUMP JUMPDEST SWAP3 POP POP PUSH1 0x40 DUP5 ADD CALLDATALOAD PUSH8 0xFFFFFFFFFFFFFFFF DUP2 GT ISZERO PUSH2 0x497 JUMPI PUSH2 0x496 PUSH2 0x279 JUMP JUMPDEST JUMPDEST PUSH2 0x4A3 DUP7 DUP3 DUP8 ADD PUSH2 0x3F4 JUMP JUMPDEST SWAP2 POP POP SWAP3 POP SWAP3 POP SWAP3 JUMP JUMPDEST PUSH1 0x0 DUP2 SWAP1 POP SWAP3 SWAP2 POP POP JUMP JUMPDEST PUSH32 0x537461626C65446966667573696F6E4750550000000000000000000000000000 PUSH1 0x0 DUP3 ADD MSTORE POP JUMP JUMPDEST PUSH1 0x0 PUSH2 0x4EE PUSH1 0x12 DUP4 PUSH2 0x4AD JUMP JUMPDEST SWAP2 POP PUSH2 0x4F9 DUP3 PUSH2 0x4B8 JUMP JUMPDEST PUSH1 0x12 DUP3 ADD SWAP1 POP SWAP2 SWAP1 POP JUMP JUMPDEST PUSH1 0x0 PUSH2 0x50F DUP3 PUSH2 0x4E1 JUMP JUMPDEST SWAP2 POP DUP2 SWAP1 POP SWAP2 SWAP1 POP JUMP JUMPDEST PUSH2 0x522 DUP2 PUSH2 0x29E JUMP JUMPDEST DUP3 MSTORE POP POP JUMP JUMPDEST PUSH1 0x0 DUP3 DUP3 MSTORE PUSH1 0x20 DUP3 ADD SWAP1 POP SWAP3 SWAP2 POP POP JUMP JUMPDEST PUSH32 0x5261696E626F7720556E69636F726E0000000000000000000000000000000000 PUSH1 0x0 DUP3 ADD MSTORE POP JUMP JUMPDEST PUSH1 0x0 PUSH2 0x56F PUSH1 0xF DUP4 PUSH2 0x528 JUMP JUMPDEST SWAP2 POP PUSH2 0x57A DUP3 PUSH2 0x539 JUMP JUMPDEST PUSH1 0x20 DUP3 ADD SWAP1 POP SWAP2 SWAP1 POP JUMP JUMPDEST PUSH1 0x0 PUSH1 0x40 DUP3 ADD SWAP1 POP PUSH2 0x59A PUSH1 0x0 DUP4 ADD DUP5 PUSH2 0x519 JUMP JUMPDEST DUP2 DUP2 SUB PUSH1 0x20 DUP4 ADD MSTORE PUSH2 0x5AB DUP2 PUSH2 0x562 JUMP JUMPDEST SWAP1 POP SWAP3 SWAP2 POP POP JUMP JUMPDEST PUSH1 0x0 DUP2 MLOAD SWAP1 POP SWAP2 SWAP1 POP JUMP JUMPDEST PUSH1 0x0 JUMPDEST DUP4 DUP2 LT ISZERO PUSH2 0x5DC JUMPI DUP1 DUP3 ADD MLOAD DUP2 DUP5 ADD MSTORE PUSH1 0x20 DUP2 ADD SWAP1 POP PUSH2 0x5C1 JUMP JUMPDEST PUSH1 0x0 DUP5 DUP5 ADD MSTORE POP POP POP POP JUMP JUMPDEST PUSH1 0x0 PUSH2 0x5F3 DUP3 PUSH2 0x5B3 JUMP JUMPDEST PUSH2 0x5FD DUP2 DUP6 PUSH2 0x528 JUMP JUMPDEST SWAP4 POP PUSH2 0x60D DUP2 DUP6 PUSH1 0x20 DUP7 ADD PUSH2 0x5BE JUMP JUMPDEST PUSH2 0x616 DUP2 PUSH2 0x2E6 JUMP JUMPDEST DUP5 ADD SWAP2 POP POP SWAP3 SWAP2 POP POP JUMP JUMPDEST PUSH1 0x0 PUSH1 0x20 DUP3 ADD SWAP1 POP DUP2 DUP2 SUB PUSH1 0x0 DUP4 ADD MSTORE PUSH2 0x63B DUP2 DUP5 PUSH2 0x5E8 JUMP JUMPDEST SWAP1 POP SWAP3 SWAP2 POP POP JUMP JUMPDEST PUSH1 0x0 PUSH1 0x20 DUP3 ADD SWAP1 POP PUSH2 0x658 PUSH1 0x0 DUP4 ADD DUP5 PUSH2 0x519 JUMP JUMPDEST SWAP3 SWAP2 POP POP JUMP INVALID LOG2 PUSH5 0x6970667358 0x22 SLT KECCAK256 CALLDATALOAD SSTORE STOP 0x2A SWAP8 0xD6 PUSH19 0xE5841CD381FAE40390C587F4361EC241F9A96A LOG4 0x29 GAS 0xCF 0xE9 PUSH7 0x64736F6C634300 ADDMOD GT STOP CALLER "},"methodIdentifiers":{"returnResults(address,string,string)":"39010934","runBacalhauJob(address,string,string)":"fe41ff3b"}}}}}