{"contracts/DrandCaller.sol":{"DrandCaller":{"abi":[{"inputs":[{"internalType":"address","name":"bridgeContract","type":"address"}],"stateMutability":"nonpayable","type":"constructor"},{"anonymous":false,"inputs":[{"indexed":false,"internalType":"uint256","name":"id","type":"uint256"},{"indexed":false,"internalType":"uint256","name":"number","type":"uint256"}],"name":"RandomNumberGenerated","type":"event"},{"inputs":[{"internalType":"uint256","name":"minimum","type":"uint256"},{"internalType":"uint256","name":"maximum","type":"uint256"}],"name":"getRandomNumber","outputs":[],"stateMutability":"nonpayable","type":"function"},{"inputs":[{"internalType":"address","name":"_from","type":"address"},{"internalType":"uint256","name":"_jobId","type":"uint256"},{"internalType":"enum LilypadResultType","name":"_resultType","type":"uint8"},{"internalType":"string","name":"_result","type":"string"}],"name":"lilypadReceiver","outputs":[],"stateMutability":"nonpayable","type":"function"}],"evm":{"bytecode":{"linkReferences":{},"object":"60806040523480156200001157600080fd5b5060405162001270380380620012708339818101604052810190620000379190620000e8565b806000806101000a81548173ffffffffffffffffffffffffffffffffffffffff021916908373ffffffffffffffffffffffffffffffffffffffff160217905550506200011a565b600080fd5b600073ffffffffffffffffffffffffffffffffffffffff82169050919050565b6000620000b08262000083565b9050919050565b620000c281620000a3565b8114620000ce57600080fd5b50565b600081519050620000e281620000b7565b92915050565b6000602082840312156200010157620001006200007e565b5b60006200011184828501620000d1565b91505092915050565b611146806200012a6000396000f3fe608060405234801561001057600080fd5b50600436106100365760003560e01c8063511deb471461003b5780636e68fc0a14610057575b600080fd5b610055600480360381019061005091906109fa565b610073565b005b610071600480360381019061006c9190610a82565b610145565b005b6001600381111561008757610086610ac2565b5b83600381111561009a57610099610ac2565b5b146100a457600080fd5b60008054906101000a900473ffffffffffffffffffffffffffffffffffffffff1673ffffffffffffffffffffffffffffffffffffffff168573ffffffffffffffffffffffffffffffffffffffff16146100fc57600080fd5b7f252851c72bba973a3eff4c55d976631b74c5e463b736ab3ba7ea37cbe40bbc19846101288484610252565b604051610136929190610b00565b60405180910390a15050505050565b6000610150836105e8565b9050600061015d836105e8565b9050600060405180610100016040528060e0815260200161103160e09139838360405180610100016040528060c58152602001610f6c60c591396040516020016101aa9493929190610bc0565b604051602081830303815290604052905060008054906101000a900473ffffffffffffffffffffffffffffffffffffffff1673ffffffffffffffffffffffffffffffffffffffff1663d992cac8308360016040518463ffffffff1660e01b815260040161021993929190610cbf565b600060405180830381600087803b15801561023357600080fd5b505af1158015610247573d6000803e3d6000fd5b505050505050505050565b6000366000848491509150604082829050111561026e57600080fd5b6000828290501161027e57600080fd5b6000805b838390508160ff1610156105db57600482901b915083838260ff168181106102ad576102ac610cfd565b5b9050013560f81c60f81b60f81c60ff16826102c89190610d5b565b91507f410000000000000000000000000000000000000000000000000000000000000084848360ff1681811061030157610300610cfd565b5b9050013560f81c60f81b7effffffffffffffffffffffffffffffffffffffffffffffffffffffffffffff19161015801561039c57507f460000000000000000000000000000000000000000000000000000000000000084848360ff1681811061036d5761036c610cfd565b5b9050013560f81c60f81b7effffffffffffffffffffffffffffffffffffffffffffffffffffffffffffff191611155b156103b5576037826103ae9190610d8f565b91506105c8565b7f610000000000000000000000000000000000000000000000000000000000000084848360ff168181106103ec576103eb610cfd565b5b9050013560f81c60f81b7effffffffffffffffffffffffffffffffffffffffffffffffffffffffffffff19161015801561048757507f660000000000000000000000000000000000000000000000000000000000000084848360ff1681811061045857610457610cfd565b5b9050013560f81c60f81b7effffffffffffffffffffffffffffffffffffffffffffffffffffffffffffff191611155b156104a0576057826104999190610d8f565b91506105c7565b7f300000000000000000000000000000000000000000000000000000000000000084848360ff168181106104d7576104d6610cfd565b5b9050013560f81c60f81b7effffffffffffffffffffffffffffffffffffffffffffffffffffffffffffff19161015801561057257507f390000000000000000000000000000000000000000000000000000000000000084848360ff1681811061054357610542610cfd565b5b9050013560f81c60f81b7effffffffffffffffffffffffffffffffffffffffffffffffffffffffffffff191611155b1561058b576030826105849190610d8f565b91506105c6565b6040517f08c379a00000000000000000000000000000000000000000000000000000000081526004016105bd90610e0f565b60405180910390fd5b5b5b80806105d390610e3c565b915050610282565b5080935050505092915050565b60606105ff8260016105f985610606565b01610696565b9050919050565b600080600090506000608084901c111561062857608083901c92506010810190505b6000604084901c111561064357604083901c92506008810190505b6000602084901c111561065e57602083901c92506004810190505b6000601084901c111561067957601083901c92506002810190505b6000600884901c111561068d576001810190505b80915050919050565b6060600060028360026106a99190610e65565b6106b39190610d5b565b67ffffffffffffffff8111156106cc576106cb610ea7565b5b6040519080825280601f01601f1916602001820160405280156106fe5781602001600182028036833780820191505090505b5090507f30000000000000000000000000000000000000000000000000000000000000008160008151811061073657610735610cfd565b5b60200101907effffffffffffffffffffffffffffffffffffffffffffffffffffffffffffff1916908160001a9053507f78000000000000000000000000000000000000000000000000000000000000008160018151811061079a57610799610cfd565b5b60200101907effffffffffffffffffffffffffffffffffffffffffffffffffffffffffffff1916908160001a905350600060018460026107da9190610e65565b6107e49190610d5b565b90505b6001811115610884577f3031323334353637383961626364656600000000000000000000000000000000600f86166010811061082657610825610cfd565b5b1a60f81b82828151811061083d5761083c610cfd565b5b60200101907effffffffffffffffffffffffffffffffffffffffffffffffffffffffffffff1916908160001a905350600485901c94508061087d90610ed6565b90506107e7565b50600084146108c8576040517f08c379a00000000000000000000000000000000000000000000000000000000081526004016108bf90610f4b565b60405180910390fd5b8091505092915050565b600080fd5b600080fd5b600073ffffffffffffffffffffffffffffffffffffffff82169050919050565b6000610907826108dc565b9050919050565b610917816108fc565b811461092257600080fd5b50565b6000813590506109348161090e565b92915050565b6000819050919050565b61094d8161093a565b811461095857600080fd5b50565b60008135905061096a81610944565b92915050565b6004811061097d57600080fd5b50565b60008135905061098f81610970565b92915050565b600080fd5b600080fd5b600080fd5b60008083601f8401126109ba576109b9610995565b5b8235905067ffffffffffffffff8111156109d7576109d661099a565b5b6020830191508360018202830111156109f3576109f261099f565b5b9250929050565b600080600080600060808688031215610a1657610a156108d2565b5b6000610a2488828901610925565b9550506020610a358882890161095b565b9450506040610a4688828901610980565b935050606086013567ffffffffffffffff811115610a6757610a666108d7565b5b610a73888289016109a4565b92509250509295509295909350565b60008060408385031215610a9957610a986108d2565b5b6000610aa78582860161095b565b9250506020610ab88582860161095b565b9150509250929050565b7f4e487b7100000000000000000000000000000000000000000000000000000000600052602160045260246000fd5b610afa8161093a565b82525050565b6000604082019050610b156000830185610af1565b610b226020830184610af1565b9392505050565b600081519050919050565b600081905092915050565b60005b83811015610b5d578082015181840152602081019050610b42565b60008484015250505050565b6000610b7482610b29565b610b7e8185610b34565b9350610b8e818560208601610b3f565b80840191505092915050565b7f222c220000000000000000000000000000000000000000000000000000000000815250565b6000610bcc8287610b69565b9150610bd88286610b69565b9150610be382610b9a565b600382019150610bf38285610b69565b9150610bff8284610b69565b915081905095945050505050565b610c16816108fc565b82525050565b600082825260208201905092915050565b6000601f19601f8301169050919050565b6000610c4982610b29565b610c538185610c1c565b9350610c63818560208601610b3f565b610c6c81610c2d565b840191505092915050565b60048110610c8857610c87610ac2565b5b50565b6000819050610c9982610c77565b919050565b6000610ca982610c8b565b9050919050565b610cb981610c9e565b82525050565b6000606082019050610cd46000830186610c0d565b8181036020830152610ce68185610c3e565b9050610cf56040830184610cb0565b949350505050565b7f4e487b7100000000000000000000000000000000000000000000000000000000600052603260045260246000fd5b7f4e487b7100000000000000000000000000000000000000000000000000000000600052601160045260246000fd5b6000610d668261093a565b9150610d718361093a565b9250828201905080821115610d8957610d88610d2c565b5b92915050565b6000610d9a8261093a565b9150610da58361093a565b9250828203905081811115610dbd57610dbc610d2c565b5b92915050565b7f696e76616c69642063686172616374657220696e2068657820737472696e6700600082015250565b6000610df9601f83610c1c565b9150610e0482610dc3565b602082019050919050565b60006020820190508181036000830152610e2881610dec565b9050919050565b600060ff82169050919050565b6000610e4782610e2f565b915060ff8203610e5a57610e59610d2c565b5b600182019050919050565b6000610e708261093a565b9150610e7b8361093a565b9250828202610e898161093a565b91508282048414831517610ea057610e9f610d2c565b5b5092915050565b7f4e487b7100000000000000000000000000000000000000000000000000000000600052604160045260246000fd5b6000610ee18261093a565b915060008203610ef457610ef3610d2c565b5b600182039050919050565b7f537472696e67733a20686578206c656e67746820696e73756666696369656e74600082015250565b6000610f35602083610c1c565b9150610f4082610eff565b602082019050919050565b60006020820190508181036000830152610f6481610f28565b905091905056fe225d7d2c22696e70757473223a5b7b2253746f72616765536f75726365223a2255524c446f776e6c6f6164222c2255524c223a2268747470733a2f2f6170692e6472616e642e73682f383939306537613961616564326666656437336462643730393231323364366632383939333035343064373635313333363232356463313732653531623263652f7075626c69632f6c6174657374222c2270617468223a222f696e70757473227d5d2c224465616c223a7b22436f6e63757272656e6379223a317d7d7b22456e67696e65223a22446f636b6572222c225665726966696572223a224e6f6f70222c225075626c6973686572223a2245737475617279222c22446f636b6572223a7b22496d616765223a22676863722e696f2f626163616c6861752d70726f6a6563742f6472616e642d6578616d706c653a6c6174657374407368613235363a61306330353030363935313236386532336462343638623032383735643961343338386239623063313036373738303162376230376131636534646433653830222c22456e747279706f696e74223a5b222f62696e2f72616e64222c22a26469706673582212202ce3907f5fbf894f1d3c4f91a21c69f43708592b8bb94c7a80bbb70242d2db4c64736f6c63430008110033","opcodes":"PUSH1 0x80 PUSH1 0x40 MSTORE CALLVALUE DUP1 ISZERO PUSH3 0x11 JUMPI PUSH1 0x0 DUP1 REVERT JUMPDEST POP PUSH1 0x40 MLOAD PUSH3 0x1270 CODESIZE SUB DUP1 PUSH3 0x1270 DUP4 CODECOPY DUP2 DUP2 ADD PUSH1 0x40 MSTORE DUP2 ADD SWAP1 PUSH3 0x37 SWAP2 SWAP1 PUSH3 0xE8 JUMP JUMPDEST DUP1 PUSH1 0x0 DUP1 PUSH2 0x100 EXP DUP2 SLOAD DUP2 PUSH20 0xFFFFFFFFFFFFFFFFFFFFFFFFFFFFFFFFFFFFFFFF MUL NOT AND SWAP1 DUP4 PUSH20 0xFFFFFFFFFFFFFFFFFFFFFFFFFFFFFFFFFFFFFFFF AND MUL OR SWAP1 SSTORE POP POP PUSH3 0x11A JUMP JUMPDEST PUSH1 0x0 DUP1 REVERT JUMPDEST PUSH1 0x0 PUSH20 0xFFFFFFFFFFFFFFFFFFFFFFFFFFFFFFFFFFFFFFFF DUP3 AND SWAP1 POP SWAP2 SWAP1 POP JUMP JUMPDEST PUSH1 0x0 PUSH3 0xB0 DUP3 PUSH3 0x83 JUMP JUMPDEST SWAP1 POP SWAP2 SWAP1 POP JUMP JUMPDEST PUSH3 0xC2 DUP2 PUSH3 0xA3 JUMP JUMPDEST DUP2 EQ PUSH3 0xCE JUMPI PUSH1 0x0 DUP1 REVERT JUMPDEST POP JUMP JUMPDEST PUSH1 0x0 DUP2 MLOAD SWAP1 POP PUSH3 0xE2 DUP2 PUSH3 0xB7 JUMP JUMPDEST SWAP3 SWAP2 POP POP JUMP JUMPDEST PUSH1 0x0 PUSH1 0x20 DUP3 DUP5 SUB SLT ISZERO PUSH3 0x101 JUMPI PUSH3 0x100 PUSH3 0x7E JUMP JUMPDEST JUMPDEST PUSH1 0x0 PUSH3 0x111 DUP5 DUP3 DUP6 ADD PUSH3 0xD1 JUMP JUMPDEST SWAP2 POP POP SWAP3 SWAP2 POP POP JUMP JUMPDEST PUSH2 0x1146 DUP1 PUSH3 0x12A PUSH1 0x0 CODECOPY PUSH1 0x0 RETURN INVALID PUSH1 0x80 PUSH1 0x40 MSTORE CALLVALUE DUP1 ISZERO PUSH2 0x10 JUMPI PUSH1 0x0 DUP1 REVERT JUMPDEST POP PUSH1 0x4 CALLDATASIZE LT PUSH2 0x36 JUMPI PUSH1 0x0 CALLDATALOAD PUSH1 0xE0 SHR DUP1 PUSH4 0x511DEB47 EQ PUSH2 0x3B JUMPI DUP1 PUSH4 0x6E68FC0A EQ PUSH2 0x57 JUMPI JUMPDEST PUSH1 0x0 DUP1 REVERT JUMPDEST PUSH2 0x55 PUSH1 0x4 DUP1 CALLDATASIZE SUB DUP2 ADD SWAP1 PUSH2 0x50 SWAP2 SWAP1 PUSH2 0x9FA JUMP JUMPDEST PUSH2 0x73 JUMP JUMPDEST STOP JUMPDEST PUSH2 0x71 PUSH1 0x4 DUP1 CALLDATASIZE SUB DUP2 ADD SWAP1 PUSH2 0x6C SWAP2 SWAP1 PUSH2 0xA82 JUMP JUMPDEST PUSH2 0x145 JUMP JUMPDEST STOP JUMPDEST PUSH1 0x1 PUSH1 0x3 DUP2 GT ISZERO PUSH2 0x87 JUMPI PUSH2 0x86 PUSH2 0xAC2 JUMP JUMPDEST JUMPDEST DUP4 PUSH1 0x3 DUP2 GT ISZERO PUSH2 0x9A JUMPI PUSH2 0x99 PUSH2 0xAC2 JUMP JUMPDEST JUMPDEST EQ PUSH2 0xA4 JUMPI PUSH1 0x0 DUP1 REVERT JUMPDEST PUSH1 0x0 DUP1 SLOAD SWAP1 PUSH2 0x100 EXP SWAP1 DIV PUSH20 0xFFFFFFFFFFFFFFFFFFFFFFFFFFFFFFFFFFFFFFFF AND PUSH20 0xFFFFFFFFFFFFFFFFFFFFFFFFFFFFFFFFFFFFFFFF AND DUP6 PUSH20 0xFFFFFFFFFFFFFFFFFFFFFFFFFFFFFFFFFFFFFFFF AND EQ PUSH2 0xFC JUMPI PUSH1 0x0 DUP1 REVERT JUMPDEST PUSH32 0x252851C72BBA973A3EFF4C55D976631B74C5E463B736AB3BA7EA37CBE40BBC19 DUP5 PUSH2 0x128 DUP5 DUP5 PUSH2 0x252 JUMP JUMPDEST PUSH1 0x40 MLOAD PUSH2 0x136 SWAP3 SWAP2 SWAP1 PUSH2 0xB00 JUMP JUMPDEST PUSH1 0x40 MLOAD DUP1 SWAP2 SUB SWAP1 LOG1 POP POP POP POP POP JUMP JUMPDEST PUSH1 0x0 PUSH2 0x150 DUP4 PUSH2 0x5E8 JUMP JUMPDEST SWAP1 POP PUSH1 0x0 PUSH2 0x15D DUP4 PUSH2 0x5E8 JUMP JUMPDEST SWAP1 POP PUSH1 0x0 PUSH1 0x40 MLOAD DUP1 PUSH2 0x100 ADD PUSH1 0x40 MSTORE DUP1 PUSH1 0xE0 DUP2 MSTORE PUSH1 0x20 ADD PUSH2 0x1031 PUSH1 0xE0 SWAP2 CODECOPY DUP4 DUP4 PUSH1 0x40 MLOAD DUP1 PUSH2 0x100 ADD PUSH1 0x40 MSTORE DUP1 PUSH1 0xC5 DUP2 MSTORE PUSH1 0x20 ADD PUSH2 0xF6C PUSH1 0xC5 SWAP2 CODECOPY PUSH1 0x40 MLOAD PUSH1 0x20 ADD PUSH2 0x1AA SWAP5 SWAP4 SWAP3 SWAP2 SWAP1 PUSH2 0xBC0 JUMP JUMPDEST PUSH1 0x40 MLOAD PUSH1 0x20 DUP2 DUP4 SUB SUB DUP2 MSTORE SWAP1 PUSH1 0x40 MSTORE SWAP1 POP PUSH1 0x0 DUP1 SLOAD SWAP1 PUSH2 0x100 EXP SWAP1 DIV PUSH20 0xFFFFFFFFFFFFFFFFFFFFFFFFFFFFFFFFFFFFFFFF AND PUSH20 0xFFFFFFFFFFFFFFFFFFFFFFFFFFFFFFFFFFFFFFFF AND PUSH4 0xD992CAC8 ADDRESS DUP4 PUSH1 0x1 PUSH1 0x40 MLOAD DUP5 PUSH4 0xFFFFFFFF AND PUSH1 0xE0 SHL DUP2 MSTORE PUSH1 0x4 ADD PUSH2 0x219 SWAP4 SWAP3 SWAP2 SWAP1 PUSH2 0xCBF JUMP JUMPDEST PUSH1 0x0 PUSH1 0x40 MLOAD DUP1 DUP4 SUB DUP2 PUSH1 0x0 DUP8 DUP1 EXTCODESIZE ISZERO DUP1 ISZERO PUSH2 0x233 JUMPI PUSH1 0x0 DUP1 REVERT JUMPDEST POP GAS CALL ISZERO DUP1 ISZERO PUSH2 0x247 JUMPI RETURNDATASIZE PUSH1 0x0 DUP1 RETURNDATACOPY RETURNDATASIZE PUSH1 0x0 REVERT JUMPDEST POP POP POP POP POP POP POP POP POP JUMP JUMPDEST PUSH1 0x0 CALLDATASIZE PUSH1 0x0 DUP5 DUP5 SWAP2 POP SWAP2 POP PUSH1 0x40 DUP3 DUP3 SWAP1 POP GT ISZERO PUSH2 0x26E JUMPI PUSH1 0x0 DUP1 REVERT JUMPDEST PUSH1 0x0 DUP3 DUP3 SWAP1 POP GT PUSH2 0x27E JUMPI PUSH1 0x0 DUP1 REVERT JUMPDEST PUSH1 0x0 DUP1 JUMPDEST DUP4 DUP4 SWAP1 POP DUP2 PUSH1 0xFF AND LT ISZERO PUSH2 0x5DB JUMPI PUSH1 0x4 DUP3 SWAP1 SHL SWAP2 POP DUP4 DUP4 DUP3 PUSH1 0xFF AND DUP2 DUP2 LT PUSH2 0x2AD JUMPI PUSH2 0x2AC PUSH2 0xCFD JUMP JUMPDEST JUMPDEST SWAP1 POP ADD CALLDATALOAD PUSH1 0xF8 SHR PUSH1 0xF8 SHL PUSH1 0xF8 SHR PUSH1 0xFF AND DUP3 PUSH2 0x2C8 SWAP2 SWAP1 PUSH2 0xD5B JUMP JUMPDEST SWAP2 POP PUSH32 0x4100000000000000000000000000000000000000000000000000000000000000 DUP5 DUP5 DUP4 PUSH1 0xFF AND DUP2 DUP2 LT PUSH2 0x301 JUMPI PUSH2 0x300 PUSH2 0xCFD JUMP JUMPDEST JUMPDEST SWAP1 POP ADD CALLDATALOAD PUSH1 0xF8 SHR PUSH1 0xF8 SHL PUSH31 0xFFFFFFFFFFFFFFFFFFFFFFFFFFFFFFFFFFFFFFFFFFFFFFFFFFFFFFFFFFFFFF NOT AND LT ISZERO DUP1 ISZERO PUSH2 0x39C JUMPI POP PUSH32 0x4600000000000000000000000000000000000000000000000000000000000000 DUP5 DUP5 DUP4 PUSH1 0xFF AND DUP2 DUP2 LT PUSH2 0x36D JUMPI PUSH2 0x36C PUSH2 0xCFD JUMP JUMPDEST JUMPDEST SWAP1 POP ADD CALLDATALOAD PUSH1 0xF8 SHR PUSH1 0xF8 SHL PUSH31 0xFFFFFFFFFFFFFFFFFFFFFFFFFFFFFFFFFFFFFFFFFFFFFFFFFFFFFFFFFFFFFF NOT AND GT ISZERO JUMPDEST ISZERO PUSH2 0x3B5 JUMPI PUSH1 0x37 DUP3 PUSH2 0x3AE SWAP2 SWAP1 PUSH2 0xD8F JUMP JUMPDEST SWAP2 POP PUSH2 0x5C8 JUMP JUMPDEST PUSH32 0x6100000000000000000000000000000000000000000000000000000000000000 DUP5 DUP5 DUP4 PUSH1 0xFF AND DUP2 DUP2 LT PUSH2 0x3EC JUMPI PUSH2 0x3EB PUSH2 0xCFD JUMP JUMPDEST JUMPDEST SWAP1 POP ADD CALLDATALOAD PUSH1 0xF8 SHR PUSH1 0xF8 SHL PUSH31 0xFFFFFFFFFFFFFFFFFFFFFFFFFFFFFFFFFFFFFFFFFFFFFFFFFFFFFFFFFFFFFF NOT AND LT ISZERO DUP1 ISZERO PUSH2 0x487 JUMPI POP PUSH32 0x6600000000000000000000000000000000000000000000000000000000000000 DUP5 DUP5 DUP4 PUSH1 0xFF AND DUP2 DUP2 LT PUSH2 0x458 JUMPI PUSH2 0x457 PUSH2 0xCFD JUMP JUMPDEST JUMPDEST SWAP1 POP ADD CALLDATALOAD PUSH1 0xF8 SHR PUSH1 0xF8 SHL PUSH31 0xFFFFFFFFFFFFFFFFFFFFFFFFFFFFFFFFFFFFFFFFFFFFFFFFFFFFFFFFFFFFFF NOT AND GT ISZERO JUMPDEST ISZERO PUSH2 0x4A0 JUMPI PUSH1 0x57 DUP3 PUSH2 0x499 SWAP2 SWAP1 PUSH2 0xD8F JUMP JUMPDEST SWAP2 POP PUSH2 0x5C7 JUMP JUMPDEST PUSH32 0x3000000000000000000000000000000000000000000000000000000000000000 DUP5 DUP5 DUP4 PUSH1 0xFF AND DUP2 DUP2 LT PUSH2 0x4D7 JUMPI PUSH2 0x4D6 PUSH2 0xCFD JUMP JUMPDEST JUMPDEST SWAP1 POP ADD CALLDATALOAD PUSH1 0xF8 SHR PUSH1 0xF8 SHL PUSH31 0xFFFFFFFFFFFFFFFFFFFFFFFFFFFFFFFFFFFFFFFFFFFFFFFFFFFFFFFFFFFFFF NOT AND LT ISZERO DUP1 ISZERO PUSH2 0x572 JUMPI POP PUSH32 0x3900000000000000000000000000000000000000000000000000000000000000 DUP5 DUP5 DUP4 PUSH1 0xFF AND DUP2 DUP2 LT PUSH2 0x543 JUMPI PUSH2 0x542 PUSH2 0xCFD JUMP JUMPDEST JUMPDEST SWAP1 POP ADD CALLDATALOAD PUSH1 0xF8 SHR PUSH1 0xF8 SHL PUSH31 0xFFFFFFFFFFFFFFFFFFFFFFFFFFFFFFFFFFFFFFFFFFFFFFFFFFFFFFFFFFFFFF NOT AND GT ISZERO JUMPDEST ISZERO PUSH2 0x58B JUMPI PUSH1 0x30 DUP3 PUSH2 0x584 SWAP2 SWAP1 PUSH2 0xD8F JUMP JUMPDEST SWAP2 POP PUSH2 0x5C6 JUMP JUMPDEST PUSH1 0x40 MLOAD PUSH32 0x8C379A000000000000000000000000000000000000000000000000000000000 DUP2 MSTORE PUSH1 0x4 ADD PUSH2 0x5BD SWAP1 PUSH2 0xE0F JUMP JUMPDEST PUSH1 0x40 MLOAD DUP1 SWAP2 SUB SWAP1 REVERT JUMPDEST JUMPDEST JUMPDEST DUP1 DUP1 PUSH2 0x5D3 SWAP1 PUSH2 0xE3C JUMP JUMPDEST SWAP2 POP POP PUSH2 0x282 JUMP JUMPDEST POP DUP1 SWAP4 POP POP POP POP SWAP3 SWAP2 POP POP JUMP JUMPDEST PUSH1 0x60 PUSH2 0x5FF DUP3 PUSH1 0x1 PUSH2 0x5F9 DUP6 PUSH2 0x606 JUMP JUMPDEST ADD PUSH2 0x696 JUMP JUMPDEST SWAP1 POP SWAP2 SWAP1 POP JUMP JUMPDEST PUSH1 0x0 DUP1 PUSH1 0x0 SWAP1 POP PUSH1 0x0 PUSH1 0x80 DUP5 SWAP1 SHR GT ISZERO PUSH2 0x628 JUMPI PUSH1 0x80 DUP4 SWAP1 SHR SWAP3 POP PUSH1 0x10 DUP2 ADD SWAP1 POP JUMPDEST PUSH1 0x0 PUSH1 0x40 DUP5 SWAP1 SHR GT ISZERO PUSH2 0x643 JUMPI PUSH1 0x40 DUP4 SWAP1 SHR SWAP3 POP PUSH1 0x8 DUP2 ADD SWAP1 POP JUMPDEST PUSH1 0x0 PUSH1 0x20 DUP5 SWAP1 SHR GT ISZERO PUSH2 0x65E JUMPI PUSH1 0x20 DUP4 SWAP1 SHR SWAP3 POP PUSH1 0x4 DUP2 ADD SWAP1 POP JUMPDEST PUSH1 0x0 PUSH1 0x10 DUP5 SWAP1 SHR GT ISZERO PUSH2 0x679 JUMPI PUSH1 0x10 DUP4 SWAP1 SHR SWAP3 POP PUSH1 0x2 DUP2 ADD SWAP1 POP JUMPDEST PUSH1 0x0 PUSH1 0x8 DUP5 SWAP1 SHR GT ISZERO PUSH2 0x68D JUMPI PUSH1 0x1 DUP2 ADD SWAP1 POP JUMPDEST DUP1 SWAP2 POP POP SWAP2 SWAP1 POP JUMP JUMPDEST PUSH1 0x60 PUSH1 0x0 PUSH1 0x2 DUP4 PUSH1 0x2 PUSH2 0x6A9 SWAP2 SWAP1 PUSH2 0xE65 JUMP JUMPDEST PUSH2 0x6B3 SWAP2 SWAP1 PUSH2 0xD5B JUMP JUMPDEST PUSH8 0xFFFFFFFFFFFFFFFF DUP2 GT ISZERO PUSH2 0x6CC JUMPI PUSH2 0x6CB PUSH2 0xEA7 JUMP JUMPDEST JUMPDEST PUSH1 0x40 MLOAD SWAP1 DUP1 DUP3 MSTORE DUP1 PUSH1 0x1F ADD PUSH1 0x1F NOT AND PUSH1 0x20 ADD DUP3 ADD PUSH1 0x40 MSTORE DUP1 ISZERO PUSH2 0x6FE JUMPI DUP2 PUSH1 0x20 ADD PUSH1 0x1 DUP3 MUL DUP1 CALLDATASIZE DUP4 CALLDATACOPY DUP1 DUP3 ADD SWAP2 POP POP SWAP1 POP JUMPDEST POP SWAP1 POP PUSH32 0x3000000000000000000000000000000000000000000000000000000000000000 DUP2 PUSH1 0x0 DUP2 MLOAD DUP2 LT PUSH2 0x736 JUMPI PUSH2 0x735 PUSH2 0xCFD JUMP JUMPDEST JUMPDEST PUSH1 0x20 ADD ADD SWAP1 PUSH31 0xFFFFFFFFFFFFFFFFFFFFFFFFFFFFFFFFFFFFFFFFFFFFFFFFFFFFFFFFFFFFFF NOT AND SWAP1 DUP2 PUSH1 0x0 BYTE SWAP1 MSTORE8 POP PUSH32 0x7800000000000000000000000000000000000000000000000000000000000000 DUP2 PUSH1 0x1 DUP2 MLOAD DUP2 LT PUSH2 0x79A JUMPI PUSH2 0x799 PUSH2 0xCFD JUMP JUMPDEST JUMPDEST PUSH1 0x20 ADD ADD SWAP1 PUSH31 0xFFFFFFFFFFFFFFFFFFFFFFFFFFFFFFFFFFFFFFFFFFFFFFFFFFFFFFFFFFFFFF NOT AND SWAP1 DUP2 PUSH1 0x0 BYTE SWAP1 MSTORE8 POP PUSH1 0x0 PUSH1 0x1 DUP5 PUSH1 0x2 PUSH2 0x7DA SWAP2 SWAP1 PUSH2 0xE65 JUMP JUMPDEST PUSH2 0x7E4 SWAP2 SWAP1 PUSH2 0xD5B JUMP JUMPDEST SWAP1 POP JUMPDEST PUSH1 0x1 DUP2 GT ISZERO PUSH2 0x884 JUMPI PUSH32 0x3031323334353637383961626364656600000000000000000000000000000000 PUSH1 0xF DUP7 AND PUSH1 0x10 DUP2 LT PUSH2 0x826 JUMPI PUSH2 0x825 PUSH2 0xCFD JUMP JUMPDEST JUMPDEST BYTE PUSH1 0xF8 SHL DUP3 DUP3 DUP2 MLOAD DUP2 LT PUSH2 0x83D JUMPI PUSH2 0x83C PUSH2 0xCFD JUMP JUMPDEST JUMPDEST PUSH1 0x20 ADD ADD SWAP1 PUSH31 0xFFFFFFFFFFFFFFFFFFFFFFFFFFFFFFFFFFFFFFFFFFFFFFFFFFFFFFFFFFFFFF NOT AND SWAP1 DUP2 PUSH1 0x0 BYTE SWAP1 MSTORE8 POP PUSH1 0x4 DUP6 SWAP1 SHR SWAP5 POP DUP1 PUSH2 0x87D SWAP1 PUSH2 0xED6 JUMP JUMPDEST SWAP1 POP PUSH2 0x7E7 JUMP JUMPDEST POP PUSH1 0x0 DUP5 EQ PUSH2 0x8C8 JUMPI PUSH1 0x40 MLOAD PUSH32 0x8C379A000000000000000000000000000000000000000000000000000000000 DUP2 MSTORE PUSH1 0x4 ADD PUSH2 0x8BF SWAP1 PUSH2 0xF4B JUMP JUMPDEST PUSH1 0x40 MLOAD DUP1 SWAP2 SUB SWAP1 REVERT JUMPDEST DUP1 SWAP2 POP POP SWAP3 SWAP2 POP POP JUMP JUMPDEST PUSH1 0x0 DUP1 REVERT JUMPDEST PUSH1 0x0 DUP1 REVERT JUMPDEST PUSH1 0x0 PUSH20 0xFFFFFFFFFFFFFFFFFFFFFFFFFFFFFFFFFFFFFFFF DUP3 AND SWAP1 POP SWAP2 SWAP1 POP JUMP JUMPDEST PUSH1 0x0 PUSH2 0x907 DUP3 PUSH2 0x8DC JUMP JUMPDEST SWAP1 POP SWAP2 SWAP1 POP JUMP JUMPDEST PUSH2 0x917 DUP2 PUSH2 0x8FC JUMP JUMPDEST DUP2 EQ PUSH2 0x922 JUMPI PUSH1 0x0 DUP1 REVERT JUMPDEST POP JUMP JUMPDEST PUSH1 0x0 DUP2 CALLDATALOAD SWAP1 POP PUSH2 0x934 DUP2 PUSH2 0x90E JUMP JUMPDEST SWAP3 SWAP2 POP POP JUMP JUMPDEST PUSH1 0x0 DUP2 SWAP1 POP SWAP2 SWAP1 POP JUMP JUMPDEST PUSH2 0x94D DUP2 PUSH2 0x93A JUMP JUMPDEST DUP2 EQ PUSH2 0x958 JUMPI PUSH1 0x0 DUP1 REVERT JUMPDEST POP JUMP JUMPDEST PUSH1 0x0 DUP2 CALLDATALOAD SWAP1 POP PUSH2 0x96A DUP2 PUSH2 0x944 JUMP JUMPDEST SWAP3 SWAP2 POP POP JUMP JUMPDEST PUSH1 0x4 DUP2 LT PUSH2 0x97D JUMPI PUSH1 0x0 DUP1 REVERT JUMPDEST POP JUMP JUMPDEST PUSH1 0x0 DUP2 CALLDATALOAD SWAP1 POP PUSH2 0x98F DUP2 PUSH2 0x970 JUMP JUMPDEST SWAP3 SWAP2 POP POP JUMP JUMPDEST PUSH1 0x0 DUP1 REVERT JUMPDEST PUSH1 0x0 DUP1 REVERT JUMPDEST PUSH1 0x0 DUP1 REVERT JUMPDEST PUSH1 0x0 DUP1 DUP4 PUSH1 0x1F DUP5 ADD SLT PUSH2 0x9BA JUMPI PUSH2 0x9B9 PUSH2 0x995 JUMP JUMPDEST JUMPDEST DUP3 CALLDATALOAD SWAP1 POP PUSH8 0xFFFFFFFFFFFFFFFF DUP2 GT ISZERO PUSH2 0x9D7 JUMPI PUSH2 0x9D6 PUSH2 0x99A JUMP JUMPDEST JUMPDEST PUSH1 0x20 DUP4 ADD SWAP2 POP DUP4 PUSH1 0x1 DUP3 MUL DUP4 ADD GT ISZERO PUSH2 0x9F3 JUMPI PUSH2 0x9F2 PUSH2 0x99F JUMP JUMPDEST JUMPDEST SWAP3 POP SWAP3 SWAP1 POP JUMP JUMPDEST PUSH1 0x0 DUP1 PUSH1 0x0 DUP1 PUSH1 0x0 PUSH1 0x80 DUP7 DUP9 SUB SLT ISZERO PUSH2 0xA16 JUMPI PUSH2 0xA15 PUSH2 0x8D2 JUMP JUMPDEST JUMPDEST PUSH1 0x0 PUSH2 0xA24 DUP9 DUP3 DUP10 ADD PUSH2 0x925 JUMP JUMPDEST SWAP6 POP POP PUSH1 0x20 PUSH2 0xA35 DUP9 DUP3 DUP10 ADD PUSH2 0x95B JUMP JUMPDEST SWAP5 POP POP PUSH1 0x40 PUSH2 0xA46 DUP9 DUP3 DUP10 ADD PUSH2 0x980 JUMP JUMPDEST SWAP4 POP POP PUSH1 0x60 DUP7 ADD CALLDATALOAD PUSH8 0xFFFFFFFFFFFFFFFF DUP2 GT ISZERO PUSH2 0xA67 JUMPI PUSH2 0xA66 PUSH2 0x8D7 JUMP JUMPDEST JUMPDEST PUSH2 0xA73 DUP9 DUP3 DUP10 ADD PUSH2 0x9A4 JUMP JUMPDEST SWAP3 POP SWAP3 POP POP SWAP3 SWAP6 POP SWAP3 SWAP6 SWAP1 SWAP4 POP JUMP JUMPDEST PUSH1 0x0 DUP1 PUSH1 0x40 DUP4 DUP6 SUB SLT ISZERO PUSH2 0xA99 JUMPI PUSH2 0xA98 PUSH2 0x8D2 JUMP JUMPDEST JUMPDEST PUSH1 0x0 PUSH2 0xAA7 DUP6 DUP3 DUP7 ADD PUSH2 0x95B JUMP JUMPDEST SWAP3 POP POP PUSH1 0x20 PUSH2 0xAB8 DUP6 DUP3 DUP7 ADD PUSH2 0x95B JUMP JUMPDEST SWAP2 POP POP SWAP3 POP SWAP3 SWAP1 POP JUMP JUMPDEST PUSH32 0x4E487B7100000000000000000000000000000000000000000000000000000000 PUSH1 0x0 MSTORE PUSH1 0x21 PUSH1 0x4 MSTORE PUSH1 0x24 PUSH1 0x0 REVERT JUMPDEST PUSH2 0xAFA DUP2 PUSH2 0x93A JUMP JUMPDEST DUP3 MSTORE POP POP JUMP JUMPDEST PUSH1 0x0 PUSH1 0x40 DUP3 ADD SWAP1 POP PUSH2 0xB15 PUSH1 0x0 DUP4 ADD DUP6 PUSH2 0xAF1 JUMP JUMPDEST PUSH2 0xB22 PUSH1 0x20 DUP4 ADD DUP5 PUSH2 0xAF1 JUMP JUMPDEST SWAP4 SWAP3 POP POP POP JUMP JUMPDEST PUSH1 0x0 DUP2 MLOAD SWAP1 POP SWAP2 SWAP1 POP JUMP JUMPDEST PUSH1 0x0 DUP2 SWAP1 POP SWAP3 SWAP2 POP POP JUMP JUMPDEST PUSH1 0x0 JUMPDEST DUP4 DUP2 LT ISZERO PUSH2 0xB5D JUMPI DUP1 DUP3 ADD MLOAD DUP2 DUP5 ADD MSTORE PUSH1 0x20 DUP2 ADD SWAP1 POP PUSH2 0xB42 JUMP JUMPDEST PUSH1 0x0 DUP5 DUP5 ADD MSTORE POP POP POP POP JUMP JUMPDEST PUSH1 0x0 PUSH2 0xB74 DUP3 PUSH2 0xB29 JUMP JUMPDEST PUSH2 0xB7E DUP2 DUP6 PUSH2 0xB34 JUMP JUMPDEST SWAP4 POP PUSH2 0xB8E DUP2 DUP6 PUSH1 0x20 DUP7 ADD PUSH2 0xB3F JUMP JUMPDEST DUP1 DUP5 ADD SWAP2 POP POP SWAP3 SWAP2 POP POP JUMP JUMPDEST PUSH32 0x222C220000000000000000000000000000000000000000000000000000000000 DUP2 MSTORE POP JUMP JUMPDEST PUSH1 0x0 PUSH2 0xBCC DUP3 DUP8 PUSH2 0xB69 JUMP JUMPDEST SWAP2 POP PUSH2 0xBD8 DUP3 DUP7 PUSH2 0xB69 JUMP JUMPDEST SWAP2 POP PUSH2 0xBE3 DUP3 PUSH2 0xB9A JUMP JUMPDEST PUSH1 0x3 DUP3 ADD SWAP2 POP PUSH2 0xBF3 DUP3 DUP6 PUSH2 0xB69 JUMP JUMPDEST SWAP2 POP PUSH2 0xBFF DUP3 DUP5 PUSH2 0xB69 JUMP JUMPDEST SWAP2 POP DUP2 SWAP1 POP SWAP6 SWAP5 POP POP POP POP POP JUMP JUMPDEST PUSH2 0xC16 DUP2 PUSH2 0x8FC JUMP JUMPDEST DUP3 MSTORE POP POP JUMP JUMPDEST PUSH1 0x0 DUP3 DUP3 MSTORE PUSH1 0x20 DUP3 ADD SWAP1 POP SWAP3 SWAP2 POP POP JUMP JUMPDEST PUSH1 0x0 PUSH1 0x1F NOT PUSH1 0x1F DUP4 ADD AND SWAP1 POP SWAP2 SWAP1 POP JUMP JUMPDEST PUSH1 0x0 PUSH2 0xC49 DUP3 PUSH2 0xB29 JUMP JUMPDEST PUSH2 0xC53 DUP2 DUP6 PUSH2 0xC1C JUMP JUMPDEST SWAP4 POP PUSH2 0xC63 DUP2 DUP6 PUSH1 0x20 DUP7 ADD PUSH2 0xB3F JUMP JUMPDEST PUSH2 0xC6C DUP2 PUSH2 0xC2D JUMP JUMPDEST DUP5 ADD SWAP2 POP POP SWAP3 SWAP2 POP POP JUMP JUMPDEST PUSH1 0x4 DUP2 LT PUSH2 0xC88 JUMPI PUSH2 0xC87 PUSH2 0xAC2 JUMP JUMPDEST JUMPDEST POP JUMP JUMPDEST PUSH1 0x0 DUP2 SWAP1 POP PUSH2 0xC99 DUP3 PUSH2 0xC77 JUMP JUMPDEST SWAP2 SWAP1 POP JUMP JUMPDEST PUSH1 0x0 PUSH2 0xCA9 DUP3 PUSH2 0xC8B JUMP JUMPDEST SWAP1 POP SWAP2 SWAP1 POP JUMP JUMPDEST PUSH2 0xCB9 DUP2 PUSH2 0xC9E JUMP JUMPDEST DUP3 MSTORE POP POP JUMP JUMPDEST PUSH1 0x0 PUSH1 0x60 DUP3 ADD SWAP1 POP PUSH2 0xCD4 PUSH1 0x0 DUP4 ADD DUP7 PUSH2 0xC0D JUMP JUMPDEST DUP2 DUP2 SUB PUSH1 0x20 DUP4 ADD MSTORE PUSH2 0xCE6 DUP2 DUP6 PUSH2 0xC3E JUMP JUMPDEST SWAP1 POP PUSH2 0xCF5 PUSH1 0x40 DUP4 ADD DUP5 PUSH2 0xCB0 JUMP JUMPDEST SWAP5 SWAP4 POP POP POP POP JUMP JUMPDEST PUSH32 0x4E487B7100000000000000000000000000000000000000000000000000000000 PUSH1 0x0 MSTORE PUSH1 0x32 PUSH1 0x4 MSTORE PUSH1 0x24 PUSH1 0x0 REVERT JUMPDEST PUSH32 0x4E487B7100000000000000000000000000000000000000000000000000000000 PUSH1 0x0 MSTORE PUSH1 0x11 PUSH1 0x4 MSTORE PUSH1 0x24 PUSH1 0x0 REVERT JUMPDEST PUSH1 0x0 PUSH2 0xD66 DUP3 PUSH2 0x93A JUMP JUMPDEST SWAP2 POP PUSH2 0xD71 DUP4 PUSH2 0x93A JUMP JUMPDEST SWAP3 POP DUP3 DUP3 ADD SWAP1 POP DUP1 DUP3 GT ISZERO PUSH2 0xD89 JUMPI PUSH2 0xD88 PUSH2 0xD2C JUMP JUMPDEST JUMPDEST SWAP3 SWAP2 POP POP JUMP JUMPDEST PUSH1 0x0 PUSH2 0xD9A DUP3 PUSH2 0x93A JUMP JUMPDEST SWAP2 POP PUSH2 0xDA5 DUP4 PUSH2 0x93A JUMP JUMPDEST SWAP3 POP DUP3 DUP3 SUB SWAP1 POP DUP2 DUP2 GT ISZERO PUSH2 0xDBD JUMPI PUSH2 0xDBC PUSH2 0xD2C JUMP JUMPDEST JUMPDEST SWAP3 SWAP2 POP POP JUMP JUMPDEST PUSH32 0x696E76616C69642063686172616374657220696E2068657820737472696E6700 PUSH1 0x0 DUP3 ADD MSTORE POP JUMP JUMPDEST PUSH1 0x0 PUSH2 0xDF9 PUSH1 0x1F DUP4 PUSH2 0xC1C JUMP JUMPDEST SWAP2 POP PUSH2 0xE04 DUP3 PUSH2 0xDC3 JUMP JUMPDEST PUSH1 0x20 DUP3 ADD SWAP1 POP SWAP2 SWAP1 POP JUMP JUMPDEST PUSH1 0x0 PUSH1 0x20 DUP3 ADD SWAP1 POP DUP2 DUP2 SUB PUSH1 0x0 DUP4 ADD MSTORE PUSH2 0xE28 DUP2 PUSH2 0xDEC JUMP JUMPDEST SWAP1 POP SWAP2 SWAP1 POP JUMP JUMPDEST PUSH1 0x0 PUSH1 0xFF DUP3 AND SWAP1 POP SWAP2 SWAP1 POP JUMP JUMPDEST PUSH1 0x0 PUSH2 0xE47 DUP3 PUSH2 0xE2F JUMP JUMPDEST SWAP2 POP PUSH1 0xFF DUP3 SUB PUSH2 0xE5A JUMPI PUSH2 0xE59 PUSH2 0xD2C JUMP JUMPDEST JUMPDEST PUSH1 0x1 DUP3 ADD SWAP1 POP SWAP2 SWAP1 POP JUMP JUMPDEST PUSH1 0x0 PUSH2 0xE70 DUP3 PUSH2 0x93A JUMP JUMPDEST SWAP2 POP PUSH2 0xE7B DUP4 PUSH2 0x93A JUMP JUMPDEST SWAP3 POP DUP3 DUP3 MUL PUSH2 0xE89 DUP2 PUSH2 0x93A JUMP JUMPDEST SWAP2 POP DUP3 DUP3 DIV DUP5 EQ DUP4 ISZERO OR PUSH2 0xEA0 JUMPI PUSH2 0xE9F PUSH2 0xD2C JUMP JUMPDEST JUMPDEST POP SWAP3 SWAP2 POP POP JUMP JUMPDEST PUSH32 0x4E487B7100000000000000000000000000000000000000000000000000000000 PUSH1 0x0 MSTORE PUSH1 0x41 PUSH1 0x4 MSTORE PUSH1 0x24 PUSH1 0x0 REVERT JUMPDEST PUSH1 0x0 PUSH2 0xEE1 DUP3 PUSH2 0x93A JUMP JUMPDEST SWAP2 POP PUSH1 0x0 DUP3 SUB PUSH2 0xEF4 JUMPI PUSH2 0xEF3 PUSH2 0xD2C JUMP JUMPDEST JUMPDEST PUSH1 0x1 DUP3 SUB SWAP1 POP SWAP2 SWAP1 POP JUMP JUMPDEST PUSH32 0x537472696E67733A20686578206C656E67746820696E73756666696369656E74 PUSH1 0x0 DUP3 ADD MSTORE POP JUMP JUMPDEST PUSH1 0x0 PUSH2 0xF35 PUSH1 0x20 DUP4 PUSH2 0xC1C JUMP JUMPDEST SWAP2 POP PUSH2 0xF40 DUP3 PUSH2 0xEFF JUMP JUMPDEST PUSH1 0x20 DUP3 ADD SWAP1 POP SWAP2 SWAP1 POP JUMP JUMPDEST PUSH1 0x0 PUSH1 0x20 DUP3 ADD SWAP1 POP DUP2 DUP2 SUB PUSH1 0x0 DUP4 ADD MSTORE PUSH2 0xF64 DUP2 PUSH2 0xF28 JUMP JUMPDEST SWAP1 POP SWAP2 SWAP1 POP JUMP INVALID 0x22 0x5D PUSH30 0x2C22696E70757473223A5B7B2253746F72616765536F75726365223A2255 MSTORE 0x4C DIFFICULTY PUSH16 0x776E6C6F6164222C2255524C223A2268 PUSH21 0x7470733A2F2F6170692E6472616E642E73682F3839 CODECOPY ADDRESS PUSH6 0x376139616165 PUSH5 0x3266666564 CALLDATACOPY CALLER PUSH5 0x6264373039 ORIGIN BALANCE ORIGIN CALLER PUSH5 0x3666323839 CODECOPY CALLER ADDRESS CALLDATALOAD CALLVALUE ADDRESS PUSH5 0x3736353133 CALLER CALLDATASIZE ORIGIN ORIGIN CALLDATALOAD PUSH5 0x6331373265 CALLDATALOAD BALANCE PUSH3 0x326365 0x2F PUSH17 0x75626C69632F6C6174657374222C227061 PUSH21 0x68223A222F696E70757473227D5D2C224465616C22 GASPRICE PUSH28 0x22436F6E63757272656E6379223A317D7D7B22456E67696E65223A22 DIFFICULTY PUSH16 0x636B6572222C22566572696669657222 GASPRICE 0x22 0x4E PUSH16 0x6F70222C225075626C6973686572223A 0x22 GASLIMIT PUSH20 0x7475617279222C22446F636B6572223A7B22496D PUSH2 0x6765 0x22 GASPRICE 0x22 PUSH8 0x6863722E696F2F62 PUSH2 0x6361 PUSH13 0x6861752D70726F6A6563742F64 PUSH19 0x616E642D6578616D706C653A6C617465737440 PUSH20 0x68613235363A6130633035303036393531323638 PUSH6 0x323364623436 CODESIZE PUSH3 0x303238 CALLDATACOPY CALLDATALOAD PUSH5 0x3961343338 CODESIZE PUSH3 0x396230 PUSH4 0x31303637 CALLDATACOPY CODESIZE ADDRESS BALANCE PUSH3 0x376230 CALLDATACOPY PUSH2 0x3163 PUSH6 0x346464336538 ADDRESS 0x22 0x2C 0x22 GASLIMIT PUSH15 0x747279706F696E74223A5B222F6269 PUSH15 0x2F72616E64222C22A2646970667358 0x22 SLT KECCAK256 0x2C 0xE3 SWAP1 PUSH32 0x5FBF894F1D3C4F91A21C69F43708592B8BB94C7A80BBB70242D2DB4C64736F6C PUSH4 0x43000811 STOP CALLER "},"methodIdentifiers":{"getRandomNumber(uint256,uint256)":"6e68fc0a","lilypadReceiver(address,uint256,uint8,string)":"511deb47"}}}}}