{"contracts/DrandCaller.sol":{"DrandCaller":{"abi":[{"inputs":[{"internalType":"address","name":"bridgeContract","type":"address"}],"stateMutability":"nonpayable","type":"constructor"},{"anonymous":false,"inputs":[{"indexed":false,"internalType":"uint256","name":"id","type":"uint256"},{"indexed":false,"internalType":"uint256","name":"number","type":"uint256"}],"name":"RandomNumberGenerated","type":"event"},{"inputs":[{"internalType":"uint256","name":"minimum","type":"uint256"},{"internalType":"uint256","name":"maximum","type":"uint256"}],"name":"getRandomNumber","outputs":[],"stateMutability":"nonpayable","type":"function"},{"inputs":[{"internalType":"address","name":"_from","type":"address"},{"internalType":"uint256","name":"_jobId","type":"uint256"},{"internalType":"enum LilypadResultType","name":"_resultType","type":"uint8"},{"internalType":"string","name":"_result","type":"string"}],"name":"lilypadReceiver","outputs":[],"stateMutability":"nonpayable","type":"function"}],"evm":{"bytecode":{"linkReferences":{},"object":"60806040523480156200001157600080fd5b50604051620013f6380380620013f68339818101604052810190620000379190620000e8565b806000806101000a81548173ffffffffffffffffffffffffffffffffffffffff021916908373ffffffffffffffffffffffffffffffffffffffff160217905550506200011a565b600080fd5b600073ffffffffffffffffffffffffffffffffffffffff82169050919050565b6000620000b08262000083565b9050919050565b620000c281620000a3565b8114620000ce57600080fd5b50565b600081519050620000e281620000b7565b92915050565b6000602082840312156200010157620001006200007e565b5b60006200011184828501620000d1565b91505092915050565b6112cc806200012a6000396000f3fe608060405234801561001057600080fd5b50600436106100365760003560e01c8063511deb471461003b5780636e68fc0a14610057575b600080fd5b61005560048036038101906100509190610a3d565b610073565b005b610071600480360381019061006c9190610ac5565b610145565b005b6001600381111561008757610086610b05565b5b83600381111561009a57610099610b05565b5b146100a457600080fd5b60008054906101000a900473ffffffffffffffffffffffffffffffffffffffff1673ffffffffffffffffffffffffffffffffffffffff168573ffffffffffffffffffffffffffffffffffffffff16146100fc57600080fd5b7f252851c72bba973a3eff4c55d976631b74c5e463b736ab3ba7ea37cbe40bbc19846101288484610295565b604051610136929190610b43565b60405180910390a15050505050565b60006101508361062b565b9050600061015d8361062b565b90506000826040518060600160405280603c815260200161107f603c913983856040516020016101909493929190610c75565b6040516020818303038152906040529050600060405180610140016040528061010381526020016110bb61010391398260405180610100016040528060d981526020016111be60d991396040516020016101ec93929190610cef565b604051602081830303815290604052905060008054906101000a900473ffffffffffffffffffffffffffffffffffffffff1673ffffffffffffffffffffffffffffffffffffffff1663d992cac8308360016040518463ffffffff1660e01b815260040161025b93929190610dd2565b600060405180830381600087803b15801561027557600080fd5b505af1158015610289573d6000803e3d6000fd5b50505050505050505050565b600036600084849150915060408282905011156102b157600080fd5b600082829050116102c157600080fd5b6000805b838390508160ff16101561061e57600482901b915083838260ff168181106102f0576102ef610e10565b5b9050013560f81c60f81b60f81c60ff168261030b9190610e6e565b91507f410000000000000000000000000000000000000000000000000000000000000084848360ff1681811061034457610343610e10565b5b9050013560f81c60f81b7effffffffffffffffffffffffffffffffffffffffffffffffffffffffffffff1916101580156103df57507f460000000000000000000000000000000000000000000000000000000000000084848360ff168181106103b0576103af610e10565b5b9050013560f81c60f81b7effffffffffffffffffffffffffffffffffffffffffffffffffffffffffffff191611155b156103f8576037826103f19190610ea2565b915061060b565b7f610000000000000000000000000000000000000000000000000000000000000084848360ff1681811061042f5761042e610e10565b5b9050013560f81c60f81b7effffffffffffffffffffffffffffffffffffffffffffffffffffffffffffff1916101580156104ca57507f660000000000000000000000000000000000000000000000000000000000000084848360ff1681811061049b5761049a610e10565b5b9050013560f81c60f81b7effffffffffffffffffffffffffffffffffffffffffffffffffffffffffffff191611155b156104e3576057826104dc9190610ea2565b915061060a565b7f300000000000000000000000000000000000000000000000000000000000000084848360ff1681811061051a57610519610e10565b5b9050013560f81c60f81b7effffffffffffffffffffffffffffffffffffffffffffffffffffffffffffff1916101580156105b557507f390000000000000000000000000000000000000000000000000000000000000084848360ff1681811061058657610585610e10565b5b9050013560f81c60f81b7effffffffffffffffffffffffffffffffffffffffffffffffffffffffffffff191611155b156105ce576030826105c79190610ea2565b9150610609565b6040517f08c379a000000000000000000000000000000000000000000000000000000000815260040161060090610f22565b60405180910390fd5b5b5b808061061690610f4f565b9150506102c5565b5080935050505092915050565b606061064282600161063c85610649565b016106d9565b9050919050565b600080600090506000608084901c111561066b57608083901c92506010810190505b6000604084901c111561068657604083901c92506008810190505b6000602084901c11156106a157602083901c92506004810190505b6000601084901c11156106bc57601083901c92506002810190505b6000600884901c11156106d0576001810190505b80915050919050565b6060600060028360026106ec9190610f78565b6106f69190610e6e565b67ffffffffffffffff81111561070f5761070e610fba565b5b6040519080825280601f01601f1916602001820160405280156107415781602001600182028036833780820191505090505b5090507f30000000000000000000000000000000000000000000000000000000000000008160008151811061077957610778610e10565b5b60200101907effffffffffffffffffffffffffffffffffffffffffffffffffffffffffffff1916908160001a9053507f7800000000000000000000000000000000000000000000000000000000000000816001815181106107dd576107dc610e10565b5b60200101907effffffffffffffffffffffffffffffffffffffffffffffffffffffffffffff1916908160001a9053506000600184600261081d9190610f78565b6108279190610e6e565b90505b60018111156108c7577f3031323334353637383961626364656600000000000000000000000000000000600f86166010811061086957610868610e10565b5b1a60f81b8282815181106108805761087f610e10565b5b60200101907effffffffffffffffffffffffffffffffffffffffffffffffffffffffffffff1916908160001a905350600485901c9450806108c090610fe9565b905061082a565b506000841461090b576040517f08c379a00000000000000000000000000000000000000000000000000000000081526004016109029061105e565b60405180910390fd5b8091505092915050565b600080fd5b600080fd5b600073ffffffffffffffffffffffffffffffffffffffff82169050919050565b600061094a8261091f565b9050919050565b61095a8161093f565b811461096557600080fd5b50565b60008135905061097781610951565b92915050565b6000819050919050565b6109908161097d565b811461099b57600080fd5b50565b6000813590506109ad81610987565b92915050565b600481106109c057600080fd5b50565b6000813590506109d2816109b3565b92915050565b600080fd5b600080fd5b600080fd5b60008083601f8401126109fd576109fc6109d8565b5b8235905067ffffffffffffffff811115610a1a57610a196109dd565b5b602083019150836001820283011115610a3657610a356109e2565b5b9250929050565b600080600080600060808688031215610a5957610a58610915565b5b6000610a6788828901610968565b9550506020610a788882890161099e565b9450506040610a89888289016109c3565b935050606086013567ffffffffffffffff811115610aaa57610aa961091a565b5b610ab6888289016109e7565b92509250509295509295909350565b60008060408385031215610adc57610adb610915565b5b6000610aea8582860161099e565b9250506020610afb8582860161099e565b9150509250929050565b7f4e487b7100000000000000000000000000000000000000000000000000000000600052602160045260246000fd5b610b3d8161097d565b82525050565b6000604082019050610b586000830185610b34565b610b656020830184610b34565b9392505050565b600081519050919050565b600081905092915050565b60005b83811015610ba0578082015181840152602081019050610b85565b60008484015250505050565b6000610bb782610b6c565b610bc18185610b77565b9350610bd1818560208601610b82565b80840191505092915050565b7f202b200000000000000000000000000000000000000000000000000000000000815250565b7f2025202800000000000000000000000000000000000000000000000000000000815250565b7f202d200000000000000000000000000000000000000000000000000000000000815250565b7f2900000000000000000000000000000000000000000000000000000000000000815250565b6000610c818287610bac565b9150610c8c82610bdd565b600382019150610c9c8286610bac565b9150610ca782610c03565b600482019150610cb78285610bac565b9150610cc282610c29565b600382019150610cd28284610bac565b9150610cdd82610c4f565b60018201915081905095945050505050565b6000610cfb8286610bac565b9150610d078285610bac565b9150610d138284610bac565b9150819050949350505050565b610d298161093f565b82525050565b600082825260208201905092915050565b6000601f19601f8301169050919050565b6000610d5c82610b6c565b610d668185610d2f565b9350610d76818560208601610b82565b610d7f81610d40565b840191505092915050565b60048110610d9b57610d9a610b05565b5b50565b6000819050610dac82610d8a565b919050565b6000610dbc82610d9e565b9050919050565b610dcc81610db1565b82525050565b6000606082019050610de76000830186610d20565b8181036020830152610df98185610d51565b9050610e086040830184610dc3565b949350505050565b7f4e487b7100000000000000000000000000000000000000000000000000000000600052603260045260246000fd5b7f4e487b7100000000000000000000000000000000000000000000000000000000600052601160045260246000fd5b6000610e798261097d565b9150610e848361097d565b9250828201905080821115610e9c57610e9b610e3f565b5b92915050565b6000610ead8261097d565b9150610eb88361097d565b9250828203905081811115610ed057610ecf610e3f565b5b92915050565b7f696e76616c69642063686172616374657220696e2068657820737472696e6700600082015250565b6000610f0c601f83610d2f565b9150610f1782610ed6565b602082019050919050565b60006020820190508181036000830152610f3b81610eff565b9050919050565b600060ff82169050919050565b6000610f5a82610f42565b915060ff8203610f6d57610f6c610e3f565b5b600182019050919050565b6000610f838261097d565b9150610f8e8361097d565b9250828202610f9c8161097d565b91508282048414831517610fb357610fb2610e3f565b5b5092915050565b7f4e487b7100000000000000000000000000000000000000000000000000000000600052604160045260246000fd5b6000610ff48261097d565b91506000820361100757611006610e3f565b5b600182039050919050565b7f537472696e67733a20686578206c656e67746820696e73756666696369656e74600082015250565b6000611048602083610d2f565b915061105382611012565b602082019050919050565b600060208201905081810360008301526110778161103b565b905091905056fe2428636174202f696e707574732f6c6174657374207c206a71202d7220222e72616e646f6d6e65737322207c2074722022612d7a222022412d5a22297b2253706563223a7b22456e67696e65223a22446f636b6572222c225665726966696572223a224e6f6f70222c225075626c6973686572223a2245737475617279222c22446f636b6572223a7b22496d616765223a22676863722e696f2f626163616c6861752d70726f6a6563742f6472616e642d6578616d706c653a6c6174657374407368613235363a63323935393861623464343362663339376138366263393833633461333366646237363735333566393065393862343262356335616661376266303536633463222c22456e747279706f696e74223a5b2262617368222c222d63222c226563686f202269626173653d31363b206f626173653d31363b20282922207c206263207c207472202d6420220a22225d7d2c22696e70757473223a5b7b2253746f72616765536f75726365223a2255524c446f776e6c6f6164222c2255524c223a2268747470733a2f2f6170692e6472616e642e73682f383939306537613961616564326666656437336462643730393231323364366632383939333035343064373635313333363232356463313732653531623263652f7075626c69632f6c6174657374222c2270617468223a222f696e70757473227d5d2c224465616c223a7b22436f6e63757272656e6379223a317d7d7da2646970667358221220ef665e02a681572220771d188a22cb32d5b72f7f047d32c9e118731f0157865464736f6c63430008110033","opcodes":"PUSH1 0x80 PUSH1 0x40 MSTORE CALLVALUE DUP1 ISZERO PUSH3 0x11 JUMPI PUSH1 0x0 DUP1 REVERT JUMPDEST POP PUSH1 0x40 MLOAD PUSH3 0x13F6 CODESIZE SUB DUP1 PUSH3 0x13F6 DUP4 CODECOPY DUP2 DUP2 ADD PUSH1 0x40 MSTORE DUP2 ADD SWAP1 PUSH3 0x37 SWAP2 SWAP1 PUSH3 0xE8 JUMP JUMPDEST DUP1 PUSH1 0x0 DUP1 PUSH2 0x100 EXP DUP2 SLOAD DUP2 PUSH20 0xFFFFFFFFFFFFFFFFFFFFFFFFFFFFFFFFFFFFFFFF MUL NOT AND SWAP1 DUP4 PUSH20 0xFFFFFFFFFFFFFFFFFFFFFFFFFFFFFFFFFFFFFFFF AND MUL OR SWAP1 SSTORE POP POP PUSH3 0x11A JUMP JUMPDEST PUSH1 0x0 DUP1 REVERT JUMPDEST PUSH1 0x0 PUSH20 0xFFFFFFFFFFFFFFFFFFFFFFFFFFFFFFFFFFFFFFFF DUP3 AND SWAP1 POP SWAP2 SWAP1 POP JUMP JUMPDEST PUSH1 0x0 PUSH3 0xB0 DUP3 PUSH3 0x83 JUMP JUMPDEST SWAP1 POP SWAP2 SWAP1 POP JUMP JUMPDEST PUSH3 0xC2 DUP2 PUSH3 0xA3 JUMP JUMPDEST DUP2 EQ PUSH3 0xCE JUMPI PUSH1 0x0 DUP1 REVERT JUMPDEST POP JUMP JUMPDEST PUSH1 0x0 DUP2 MLOAD SWAP1 POP PUSH3 0xE2 DUP2 PUSH3 0xB7 JUMP JUMPDEST SWAP3 SWAP2 POP POP JUMP JUMPDEST PUSH1 0x0 PUSH1 0x20 DUP3 DUP5 SUB SLT ISZERO PUSH3 0x101 JUMPI PUSH3 0x100 PUSH3 0x7E JUMP JUMPDEST JUMPDEST PUSH1 0x0 PUSH3 0x111 DUP5 DUP3 DUP6 ADD PUSH3 0xD1 JUMP JUMPDEST SWAP2 POP POP SWAP3 SWAP2 POP POP JUMP JUMPDEST PUSH2 0x12CC DUP1 PUSH3 0x12A PUSH1 0x0 CODECOPY PUSH1 0x0 RETURN INVALID PUSH1 0x80 PUSH1 0x40 MSTORE CALLVALUE DUP1 ISZERO PUSH2 0x10 JUMPI PUSH1 0x0 DUP1 REVERT JUMPDEST POP PUSH1 0x4 CALLDATASIZE LT PUSH2 0x36 JUMPI PUSH1 0x0 CALLDATALOAD PUSH1 0xE0 SHR DUP1 PUSH4 0x511DEB47 EQ PUSH2 0x3B JUMPI DUP1 PUSH4 0x6E68FC0A EQ PUSH2 0x57 JUMPI JUMPDEST PUSH1 0x0 DUP1 REVERT JUMPDEST PUSH2 0x55 PUSH1 0x4 DUP1 CALLDATASIZE SUB DUP2 ADD SWAP1 PUSH2 0x50 SWAP2 SWAP1 PUSH2 0xA3D JUMP JUMPDEST PUSH2 0x73 JUMP JUMPDEST STOP JUMPDEST PUSH2 0x71 PUSH1 0x4 DUP1 CALLDATASIZE SUB DUP2 ADD SWAP1 PUSH2 0x6C SWAP2 SWAP1 PUSH2 0xAC5 JUMP JUMPDEST PUSH2 0x145 JUMP JUMPDEST STOP JUMPDEST PUSH1 0x1 PUSH1 0x3 DUP2 GT ISZERO PUSH2 0x87 JUMPI PUSH2 0x86 PUSH2 0xB05 JUMP JUMPDEST JUMPDEST DUP4 PUSH1 0x3 DUP2 GT ISZERO PUSH2 0x9A JUMPI PUSH2 0x99 PUSH2 0xB05 JUMP JUMPDEST JUMPDEST EQ PUSH2 0xA4 JUMPI PUSH1 0x0 DUP1 REVERT JUMPDEST PUSH1 0x0 DUP1 SLOAD SWAP1 PUSH2 0x100 EXP SWAP1 DIV PUSH20 0xFFFFFFFFFFFFFFFFFFFFFFFFFFFFFFFFFFFFFFFF AND PUSH20 0xFFFFFFFFFFFFFFFFFFFFFFFFFFFFFFFFFFFFFFFF AND DUP6 PUSH20 0xFFFFFFFFFFFFFFFFFFFFFFFFFFFFFFFFFFFFFFFF AND EQ PUSH2 0xFC JUMPI PUSH1 0x0 DUP1 REVERT JUMPDEST PUSH32 0x252851C72BBA973A3EFF4C55D976631B74C5E463B736AB3BA7EA37CBE40BBC19 DUP5 PUSH2 0x128 DUP5 DUP5 PUSH2 0x295 JUMP JUMPDEST PUSH1 0x40 MLOAD PUSH2 0x136 SWAP3 SWAP2 SWAP1 PUSH2 0xB43 JUMP JUMPDEST PUSH1 0x40 MLOAD DUP1 SWAP2 SUB SWAP1 LOG1 POP POP POP POP POP JUMP JUMPDEST PUSH1 0x0 PUSH2 0x150 DUP4 PUSH2 0x62B JUMP JUMPDEST SWAP1 POP PUSH1 0x0 PUSH2 0x15D DUP4 PUSH2 0x62B JUMP JUMPDEST SWAP1 POP PUSH1 0x0 DUP3 PUSH1 0x40 MLOAD DUP1 PUSH1 0x60 ADD PUSH1 0x40 MSTORE DUP1 PUSH1 0x3C DUP2 MSTORE PUSH1 0x20 ADD PUSH2 0x107F PUSH1 0x3C SWAP2 CODECOPY DUP4 DUP6 PUSH1 0x40 MLOAD PUSH1 0x20 ADD PUSH2 0x190 SWAP5 SWAP4 SWAP3 SWAP2 SWAP1 PUSH2 0xC75 JUMP JUMPDEST PUSH1 0x40 MLOAD PUSH1 0x20 DUP2 DUP4 SUB SUB DUP2 MSTORE SWAP1 PUSH1 0x40 MSTORE SWAP1 POP PUSH1 0x0 PUSH1 0x40 MLOAD DUP1 PUSH2 0x140 ADD PUSH1 0x40 MSTORE DUP1 PUSH2 0x103 DUP2 MSTORE PUSH1 0x20 ADD PUSH2 0x10BB PUSH2 0x103 SWAP2 CODECOPY DUP3 PUSH1 0x40 MLOAD DUP1 PUSH2 0x100 ADD PUSH1 0x40 MSTORE DUP1 PUSH1 0xD9 DUP2 MSTORE PUSH1 0x20 ADD PUSH2 0x11BE PUSH1 0xD9 SWAP2 CODECOPY PUSH1 0x40 MLOAD PUSH1 0x20 ADD PUSH2 0x1EC SWAP4 SWAP3 SWAP2 SWAP1 PUSH2 0xCEF JUMP JUMPDEST PUSH1 0x40 MLOAD PUSH1 0x20 DUP2 DUP4 SUB SUB DUP2 MSTORE SWAP1 PUSH1 0x40 MSTORE SWAP1 POP PUSH1 0x0 DUP1 SLOAD SWAP1 PUSH2 0x100 EXP SWAP1 DIV PUSH20 0xFFFFFFFFFFFFFFFFFFFFFFFFFFFFFFFFFFFFFFFF AND PUSH20 0xFFFFFFFFFFFFFFFFFFFFFFFFFFFFFFFFFFFFFFFF AND PUSH4 0xD992CAC8 ADDRESS DUP4 PUSH1 0x1 PUSH1 0x40 MLOAD DUP5 PUSH4 0xFFFFFFFF AND PUSH1 0xE0 SHL DUP2 MSTORE PUSH1 0x4 ADD PUSH2 0x25B SWAP4 SWAP3 SWAP2 SWAP1 PUSH2 0xDD2 JUMP JUMPDEST PUSH1 0x0 PUSH1 0x40 MLOAD DUP1 DUP4 SUB DUP2 PUSH1 0x0 DUP8 DUP1 EXTCODESIZE ISZERO DUP1 ISZERO PUSH2 0x275 JUMPI PUSH1 0x0 DUP1 REVERT JUMPDEST POP GAS CALL ISZERO DUP1 ISZERO PUSH2 0x289 JUMPI RETURNDATASIZE PUSH1 0x0 DUP1 RETURNDATACOPY RETURNDATASIZE PUSH1 0x0 REVERT JUMPDEST POP POP POP POP POP POP POP POP POP POP JUMP JUMPDEST PUSH1 0x0 CALLDATASIZE PUSH1 0x0 DUP5 DUP5 SWAP2 POP SWAP2 POP PUSH1 0x40 DUP3 DUP3 SWAP1 POP GT ISZERO PUSH2 0x2B1 JUMPI PUSH1 0x0 DUP1 REVERT JUMPDEST PUSH1 0x0 DUP3 DUP3 SWAP1 POP GT PUSH2 0x2C1 JUMPI PUSH1 0x0 DUP1 REVERT JUMPDEST PUSH1 0x0 DUP1 JUMPDEST DUP4 DUP4 SWAP1 POP DUP2 PUSH1 0xFF AND LT ISZERO PUSH2 0x61E JUMPI PUSH1 0x4 DUP3 SWAP1 SHL SWAP2 POP DUP4 DUP4 DUP3 PUSH1 0xFF AND DUP2 DUP2 LT PUSH2 0x2F0 JUMPI PUSH2 0x2EF PUSH2 0xE10 JUMP JUMPDEST JUMPDEST SWAP1 POP ADD CALLDATALOAD PUSH1 0xF8 SHR PUSH1 0xF8 SHL PUSH1 0xF8 SHR PUSH1 0xFF AND DUP3 PUSH2 0x30B SWAP2 SWAP1 PUSH2 0xE6E JUMP JUMPDEST SWAP2 POP PUSH32 0x4100000000000000000000000000000000000000000000000000000000000000 DUP5 DUP5 DUP4 PUSH1 0xFF AND DUP2 DUP2 LT PUSH2 0x344 JUMPI PUSH2 0x343 PUSH2 0xE10 JUMP JUMPDEST JUMPDEST SWAP1 POP ADD CALLDATALOAD PUSH1 0xF8 SHR PUSH1 0xF8 SHL PUSH31 0xFFFFFFFFFFFFFFFFFFFFFFFFFFFFFFFFFFFFFFFFFFFFFFFFFFFFFFFFFFFFFF NOT AND LT ISZERO DUP1 ISZERO PUSH2 0x3DF JUMPI POP PUSH32 0x4600000000000000000000000000000000000000000000000000000000000000 DUP5 DUP5 DUP4 PUSH1 0xFF AND DUP2 DUP2 LT PUSH2 0x3B0 JUMPI PUSH2 0x3AF PUSH2 0xE10 JUMP JUMPDEST JUMPDEST SWAP1 POP ADD CALLDATALOAD PUSH1 0xF8 SHR PUSH1 0xF8 SHL PUSH31 0xFFFFFFFFFFFFFFFFFFFFFFFFFFFFFFFFFFFFFFFFFFFFFFFFFFFFFFFFFFFFFF NOT AND GT ISZERO JUMPDEST ISZERO PUSH2 0x3F8 JUMPI PUSH1 0x37 DUP3 PUSH2 0x3F1 SWAP2 SWAP1 PUSH2 0xEA2 JUMP JUMPDEST SWAP2 POP PUSH2 0x60B JUMP JUMPDEST PUSH32 0x6100000000000000000000000000000000000000000000000000000000000000 DUP5 DUP5 DUP4 PUSH1 0xFF AND DUP2 DUP2 LT PUSH2 0x42F JUMPI PUSH2 0x42E PUSH2 0xE10 JUMP JUMPDEST JUMPDEST SWAP1 POP ADD CALLDATALOAD PUSH1 0xF8 SHR PUSH1 0xF8 SHL PUSH31 0xFFFFFFFFFFFFFFFFFFFFFFFFFFFFFFFFFFFFFFFFFFFFFFFFFFFFFFFFFFFFFF NOT AND LT ISZERO DUP1 ISZERO PUSH2 0x4CA JUMPI POP PUSH32 0x6600000000000000000000000000000000000000000000000000000000000000 DUP5 DUP5 DUP4 PUSH1 0xFF AND DUP2 DUP2 LT PUSH2 0x49B JUMPI PUSH2 0x49A PUSH2 0xE10 JUMP JUMPDEST JUMPDEST SWAP1 POP ADD CALLDATALOAD PUSH1 0xF8 SHR PUSH1 0xF8 SHL PUSH31 0xFFFFFFFFFFFFFFFFFFFFFFFFFFFFFFFFFFFFFFFFFFFFFFFFFFFFFFFFFFFFFF NOT AND GT ISZERO JUMPDEST ISZERO PUSH2 0x4E3 JUMPI PUSH1 0x57 DUP3 PUSH2 0x4DC SWAP2 SWAP1 PUSH2 0xEA2 JUMP JUMPDEST SWAP2 POP PUSH2 0x60A JUMP JUMPDEST PUSH32 0x3000000000000000000000000000000000000000000000000000000000000000 DUP5 DUP5 DUP4 PUSH1 0xFF AND DUP2 DUP2 LT PUSH2 0x51A JUMPI PUSH2 0x519 PUSH2 0xE10 JUMP JUMPDEST JUMPDEST SWAP1 POP ADD CALLDATALOAD PUSH1 0xF8 SHR PUSH1 0xF8 SHL PUSH31 0xFFFFFFFFFFFFFFFFFFFFFFFFFFFFFFFFFFFFFFFFFFFFFFFFFFFFFFFFFFFFFF NOT AND LT ISZERO DUP1 ISZERO PUSH2 0x5B5 JUMPI POP PUSH32 0x3900000000000000000000000000000000000000000000000000000000000000 DUP5 DUP5 DUP4 PUSH1 0xFF AND DUP2 DUP2 LT PUSH2 0x586 JUMPI PUSH2 0x585 PUSH2 0xE10 JUMP JUMPDEST JUMPDEST SWAP1 POP ADD CALLDATALOAD PUSH1 0xF8 SHR PUSH1 0xF8 SHL PUSH31 0xFFFFFFFFFFFFFFFFFFFFFFFFFFFFFFFFFFFFFFFFFFFFFFFFFFFFFFFFFFFFFF NOT AND GT ISZERO JUMPDEST ISZERO PUSH2 0x5CE JUMPI PUSH1 0x30 DUP3 PUSH2 0x5C7 SWAP2 SWAP1 PUSH2 0xEA2 JUMP JUMPDEST SWAP2 POP PUSH2 0x609 JUMP JUMPDEST PUSH1 0x40 MLOAD PUSH32 0x8C379A000000000000000000000000000000000000000000000000000000000 DUP2 MSTORE PUSH1 0x4 ADD PUSH2 0x600 SWAP1 PUSH2 0xF22 JUMP JUMPDEST PUSH1 0x40 MLOAD DUP1 SWAP2 SUB SWAP1 REVERT JUMPDEST JUMPDEST JUMPDEST DUP1 DUP1 PUSH2 0x616 SWAP1 PUSH2 0xF4F JUMP JUMPDEST SWAP2 POP POP PUSH2 0x2C5 JUMP JUMPDEST POP DUP1 SWAP4 POP POP POP POP SWAP3 SWAP2 POP POP JUMP JUMPDEST PUSH1 0x60 PUSH2 0x642 DUP3 PUSH1 0x1 PUSH2 0x63C DUP6 PUSH2 0x649 JUMP JUMPDEST ADD PUSH2 0x6D9 JUMP JUMPDEST SWAP1 POP SWAP2 SWAP1 POP JUMP JUMPDEST PUSH1 0x0 DUP1 PUSH1 0x0 SWAP1 POP PUSH1 0x0 PUSH1 0x80 DUP5 SWAP1 SHR GT ISZERO PUSH2 0x66B JUMPI PUSH1 0x80 DUP4 SWAP1 SHR SWAP3 POP PUSH1 0x10 DUP2 ADD SWAP1 POP JUMPDEST PUSH1 0x0 PUSH1 0x40 DUP5 SWAP1 SHR GT ISZERO PUSH2 0x686 JUMPI PUSH1 0x40 DUP4 SWAP1 SHR SWAP3 POP PUSH1 0x8 DUP2 ADD SWAP1 POP JUMPDEST PUSH1 0x0 PUSH1 0x20 DUP5 SWAP1 SHR GT ISZERO PUSH2 0x6A1 JUMPI PUSH1 0x20 DUP4 SWAP1 SHR SWAP3 POP PUSH1 0x4 DUP2 ADD SWAP1 POP JUMPDEST PUSH1 0x0 PUSH1 0x10 DUP5 SWAP1 SHR GT ISZERO PUSH2 0x6BC JUMPI PUSH1 0x10 DUP4 SWAP1 SHR SWAP3 POP PUSH1 0x2 DUP2 ADD SWAP1 POP JUMPDEST PUSH1 0x0 PUSH1 0x8 DUP5 SWAP1 SHR GT ISZERO PUSH2 0x6D0 JUMPI PUSH1 0x1 DUP2 ADD SWAP1 POP JUMPDEST DUP1 SWAP2 POP POP SWAP2 SWAP1 POP JUMP JUMPDEST PUSH1 0x60 PUSH1 0x0 PUSH1 0x2 DUP4 PUSH1 0x2 PUSH2 0x6EC SWAP2 SWAP1 PUSH2 0xF78 JUMP JUMPDEST PUSH2 0x6F6 SWAP2 SWAP1 PUSH2 0xE6E JUMP JUMPDEST PUSH8 0xFFFFFFFFFFFFFFFF DUP2 GT ISZERO PUSH2 0x70F JUMPI PUSH2 0x70E PUSH2 0xFBA JUMP JUMPDEST JUMPDEST PUSH1 0x40 MLOAD SWAP1 DUP1 DUP3 MSTORE DUP1 PUSH1 0x1F ADD PUSH1 0x1F NOT AND PUSH1 0x20 ADD DUP3 ADD PUSH1 0x40 MSTORE DUP1 ISZERO PUSH2 0x741 JUMPI DUP2 PUSH1 0x20 ADD PUSH1 0x1 DUP3 MUL DUP1 CALLDATASIZE DUP4 CALLDATACOPY DUP1 DUP3 ADD SWAP2 POP POP SWAP1 POP JUMPDEST POP SWAP1 POP PUSH32 0x3000000000000000000000000000000000000000000000000000000000000000 DUP2 PUSH1 0x0 DUP2 MLOAD DUP2 LT PUSH2 0x779 JUMPI PUSH2 0x778 PUSH2 0xE10 JUMP JUMPDEST JUMPDEST PUSH1 0x20 ADD ADD SWAP1 PUSH31 0xFFFFFFFFFFFFFFFFFFFFFFFFFFFFFFFFFFFFFFFFFFFFFFFFFFFFFFFFFFFFFF NOT AND SWAP1 DUP2 PUSH1 0x0 BYTE SWAP1 MSTORE8 POP PUSH32 0x7800000000000000000000000000000000000000000000000000000000000000 DUP2 PUSH1 0x1 DUP2 MLOAD DUP2 LT PUSH2 0x7DD JUMPI PUSH2 0x7DC PUSH2 0xE10 JUMP JUMPDEST JUMPDEST PUSH1 0x20 ADD ADD SWAP1 PUSH31 0xFFFFFFFFFFFFFFFFFFFFFFFFFFFFFFFFFFFFFFFFFFFFFFFFFFFFFFFFFFFFFF NOT AND SWAP1 DUP2 PUSH1 0x0 BYTE SWAP1 MSTORE8 POP PUSH1 0x0 PUSH1 0x1 DUP5 PUSH1 0x2 PUSH2 0x81D SWAP2 SWAP1 PUSH2 0xF78 JUMP JUMPDEST PUSH2 0x827 SWAP2 SWAP1 PUSH2 0xE6E JUMP JUMPDEST SWAP1 POP JUMPDEST PUSH1 0x1 DUP2 GT ISZERO PUSH2 0x8C7 JUMPI PUSH32 0x3031323334353637383961626364656600000000000000000000000000000000 PUSH1 0xF DUP7 AND PUSH1 0x10 DUP2 LT PUSH2 0x869 JUMPI PUSH2 0x868 PUSH2 0xE10 JUMP JUMPDEST JUMPDEST BYTE PUSH1 0xF8 SHL DUP3 DUP3 DUP2 MLOAD DUP2 LT PUSH2 0x880 JUMPI PUSH2 0x87F PUSH2 0xE10 JUMP JUMPDEST JUMPDEST PUSH1 0x20 ADD ADD SWAP1 PUSH31 0xFFFFFFFFFFFFFFFFFFFFFFFFFFFFFFFFFFFFFFFFFFFFFFFFFFFFFFFFFFFFFF NOT AND SWAP1 DUP2 PUSH1 0x0 BYTE SWAP1 MSTORE8 POP PUSH1 0x4 DUP6 SWAP1 SHR SWAP5 POP DUP1 PUSH2 0x8C0 SWAP1 PUSH2 0xFE9 JUMP JUMPDEST SWAP1 POP PUSH2 0x82A JUMP JUMPDEST POP PUSH1 0x0 DUP5 EQ PUSH2 0x90B JUMPI PUSH1 0x40 MLOAD PUSH32 0x8C379A000000000000000000000000000000000000000000000000000000000 DUP2 MSTORE PUSH1 0x4 ADD PUSH2 0x902 SWAP1 PUSH2 0x105E JUMP JUMPDEST PUSH1 0x40 MLOAD DUP1 SWAP2 SUB SWAP1 REVERT JUMPDEST DUP1 SWAP2 POP POP SWAP3 SWAP2 POP POP JUMP JUMPDEST PUSH1 0x0 DUP1 REVERT JUMPDEST PUSH1 0x0 DUP1 REVERT JUMPDEST PUSH1 0x0 PUSH20 0xFFFFFFFFFFFFFFFFFFFFFFFFFFFFFFFFFFFFFFFF DUP3 AND SWAP1 POP SWAP2 SWAP1 POP JUMP JUMPDEST PUSH1 0x0 PUSH2 0x94A DUP3 PUSH2 0x91F JUMP JUMPDEST SWAP1 POP SWAP2 SWAP1 POP JUMP JUMPDEST PUSH2 0x95A DUP2 PUSH2 0x93F JUMP JUMPDEST DUP2 EQ PUSH2 0x965 JUMPI PUSH1 0x0 DUP1 REVERT JUMPDEST POP JUMP JUMPDEST PUSH1 0x0 DUP2 CALLDATALOAD SWAP1 POP PUSH2 0x977 DUP2 PUSH2 0x951 JUMP JUMPDEST SWAP3 SWAP2 POP POP JUMP JUMPDEST PUSH1 0x0 DUP2 SWAP1 POP SWAP2 SWAP1 POP JUMP JUMPDEST PUSH2 0x990 DUP2 PUSH2 0x97D JUMP JUMPDEST DUP2 EQ PUSH2 0x99B JUMPI PUSH1 0x0 DUP1 REVERT JUMPDEST POP JUMP JUMPDEST PUSH1 0x0 DUP2 CALLDATALOAD SWAP1 POP PUSH2 0x9AD DUP2 PUSH2 0x987 JUMP JUMPDEST SWAP3 SWAP2 POP POP JUMP JUMPDEST PUSH1 0x4 DUP2 LT PUSH2 0x9C0 JUMPI PUSH1 0x0 DUP1 REVERT JUMPDEST POP JUMP JUMPDEST PUSH1 0x0 DUP2 CALLDATALOAD SWAP1 POP PUSH2 0x9D2 DUP2 PUSH2 0x9B3 JUMP JUMPDEST SWAP3 SWAP2 POP POP JUMP JUMPDEST PUSH1 0x0 DUP1 REVERT JUMPDEST PUSH1 0x0 DUP1 REVERT JUMPDEST PUSH1 0x0 DUP1 REVERT JUMPDEST PUSH1 0x0 DUP1 DUP4 PUSH1 0x1F DUP5 ADD SLT PUSH2 0x9FD JUMPI PUSH2 0x9FC PUSH2 0x9D8 JUMP JUMPDEST JUMPDEST DUP3 CALLDATALOAD SWAP1 POP PUSH8 0xFFFFFFFFFFFFFFFF DUP2 GT ISZERO PUSH2 0xA1A JUMPI PUSH2 0xA19 PUSH2 0x9DD JUMP JUMPDEST JUMPDEST PUSH1 0x20 DUP4 ADD SWAP2 POP DUP4 PUSH1 0x1 DUP3 MUL DUP4 ADD GT ISZERO PUSH2 0xA36 JUMPI PUSH2 0xA35 PUSH2 0x9E2 JUMP JUMPDEST JUMPDEST SWAP3 POP SWAP3 SWAP1 POP JUMP JUMPDEST PUSH1 0x0 DUP1 PUSH1 0x0 DUP1 PUSH1 0x0 PUSH1 0x80 DUP7 DUP9 SUB SLT ISZERO PUSH2 0xA59 JUMPI PUSH2 0xA58 PUSH2 0x915 JUMP JUMPDEST JUMPDEST PUSH1 0x0 PUSH2 0xA67 DUP9 DUP3 DUP10 ADD PUSH2 0x968 JUMP JUMPDEST SWAP6 POP POP PUSH1 0x20 PUSH2 0xA78 DUP9 DUP3 DUP10 ADD PUSH2 0x99E JUMP JUMPDEST SWAP5 POP POP PUSH1 0x40 PUSH2 0xA89 DUP9 DUP3 DUP10 ADD PUSH2 0x9C3 JUMP JUMPDEST SWAP4 POP POP PUSH1 0x60 DUP7 ADD CALLDATALOAD PUSH8 0xFFFFFFFFFFFFFFFF DUP2 GT ISZERO PUSH2 0xAAA JUMPI PUSH2 0xAA9 PUSH2 0x91A JUMP JUMPDEST JUMPDEST PUSH2 0xAB6 DUP9 DUP3 DUP10 ADD PUSH2 0x9E7 JUMP JUMPDEST SWAP3 POP SWAP3 POP POP SWAP3 SWAP6 POP SWAP3 SWAP6 SWAP1 SWAP4 POP JUMP JUMPDEST PUSH1 0x0 DUP1 PUSH1 0x40 DUP4 DUP6 SUB SLT ISZERO PUSH2 0xADC JUMPI PUSH2 0xADB PUSH2 0x915 JUMP JUMPDEST JUMPDEST PUSH1 0x0 PUSH2 0xAEA DUP6 DUP3 DUP7 ADD PUSH2 0x99E JUMP JUMPDEST SWAP3 POP POP PUSH1 0x20 PUSH2 0xAFB DUP6 DUP3 DUP7 ADD PUSH2 0x99E JUMP JUMPDEST SWAP2 POP POP SWAP3 POP SWAP3 SWAP1 POP JUMP JUMPDEST PUSH32 0x4E487B7100000000000000000000000000000000000000000000000000000000 PUSH1 0x0 MSTORE PUSH1 0x21 PUSH1 0x4 MSTORE PUSH1 0x24 PUSH1 0x0 REVERT JUMPDEST PUSH2 0xB3D DUP2 PUSH2 0x97D JUMP JUMPDEST DUP3 MSTORE POP POP JUMP JUMPDEST PUSH1 0x0 PUSH1 0x40 DUP3 ADD SWAP1 POP PUSH2 0xB58 PUSH1 0x0 DUP4 ADD DUP6 PUSH2 0xB34 JUMP JUMPDEST PUSH2 0xB65 PUSH1 0x20 DUP4 ADD DUP5 PUSH2 0xB34 JUMP JUMPDEST SWAP4 SWAP3 POP POP POP JUMP JUMPDEST PUSH1 0x0 DUP2 MLOAD SWAP1 POP SWAP2 SWAP1 POP JUMP JUMPDEST PUSH1 0x0 DUP2 SWAP1 POP SWAP3 SWAP2 POP POP JUMP JUMPDEST PUSH1 0x0 JUMPDEST DUP4 DUP2 LT ISZERO PUSH2 0xBA0 JUMPI DUP1 DUP3 ADD MLOAD DUP2 DUP5 ADD MSTORE PUSH1 0x20 DUP2 ADD SWAP1 POP PUSH2 0xB85 JUMP JUMPDEST PUSH1 0x0 DUP5 DUP5 ADD MSTORE POP POP POP POP JUMP JUMPDEST PUSH1 0x0 PUSH2 0xBB7 DUP3 PUSH2 0xB6C JUMP JUMPDEST PUSH2 0xBC1 DUP2 DUP6 PUSH2 0xB77 JUMP JUMPDEST SWAP4 POP PUSH2 0xBD1 DUP2 DUP6 PUSH1 0x20 DUP7 ADD PUSH2 0xB82 JUMP JUMPDEST DUP1 DUP5 ADD SWAP2 POP POP SWAP3 SWAP2 POP POP JUMP JUMPDEST PUSH32 0x202B200000000000000000000000000000000000000000000000000000000000 DUP2 MSTORE POP JUMP JUMPDEST PUSH32 0x2025202800000000000000000000000000000000000000000000000000000000 DUP2 MSTORE POP JUMP JUMPDEST PUSH32 0x202D200000000000000000000000000000000000000000000000000000000000 DUP2 MSTORE POP JUMP JUMPDEST PUSH32 0x2900000000000000000000000000000000000000000000000000000000000000 DUP2 MSTORE POP JUMP JUMPDEST PUSH1 0x0 PUSH2 0xC81 DUP3 DUP8 PUSH2 0xBAC JUMP JUMPDEST SWAP2 POP PUSH2 0xC8C DUP3 PUSH2 0xBDD JUMP JUMPDEST PUSH1 0x3 DUP3 ADD SWAP2 POP PUSH2 0xC9C DUP3 DUP7 PUSH2 0xBAC JUMP JUMPDEST SWAP2 POP PUSH2 0xCA7 DUP3 PUSH2 0xC03 JUMP JUMPDEST PUSH1 0x4 DUP3 ADD SWAP2 POP PUSH2 0xCB7 DUP3 DUP6 PUSH2 0xBAC JUMP JUMPDEST SWAP2 POP PUSH2 0xCC2 DUP3 PUSH2 0xC29 JUMP JUMPDEST PUSH1 0x3 DUP3 ADD SWAP2 POP PUSH2 0xCD2 DUP3 DUP5 PUSH2 0xBAC JUMP JUMPDEST SWAP2 POP PUSH2 0xCDD DUP3 PUSH2 0xC4F JUMP JUMPDEST PUSH1 0x1 DUP3 ADD SWAP2 POP DUP2 SWAP1 POP SWAP6 SWAP5 POP POP POP POP POP JUMP JUMPDEST PUSH1 0x0 PUSH2 0xCFB DUP3 DUP7 PUSH2 0xBAC JUMP JUMPDEST SWAP2 POP PUSH2 0xD07 DUP3 DUP6 PUSH2 0xBAC JUMP JUMPDEST SWAP2 POP PUSH2 0xD13 DUP3 DUP5 PUSH2 0xBAC JUMP JUMPDEST SWAP2 POP DUP2 SWAP1 POP SWAP5 SWAP4 POP POP POP POP JUMP JUMPDEST PUSH2 0xD29 DUP2 PUSH2 0x93F JUMP JUMPDEST DUP3 MSTORE POP POP JUMP JUMPDEST PUSH1 0x0 DUP3 DUP3 MSTORE PUSH1 0x20 DUP3 ADD SWAP1 POP SWAP3 SWAP2 POP POP JUMP JUMPDEST PUSH1 0x0 PUSH1 0x1F NOT PUSH1 0x1F DUP4 ADD AND SWAP1 POP SWAP2 SWAP1 POP JUMP JUMPDEST PUSH1 0x0 PUSH2 0xD5C DUP3 PUSH2 0xB6C JUMP JUMPDEST PUSH2 0xD66 DUP2 DUP6 PUSH2 0xD2F JUMP JUMPDEST SWAP4 POP PUSH2 0xD76 DUP2 DUP6 PUSH1 0x20 DUP7 ADD PUSH2 0xB82 JUMP JUMPDEST PUSH2 0xD7F DUP2 PUSH2 0xD40 JUMP JUMPDEST DUP5 ADD SWAP2 POP POP SWAP3 SWAP2 POP POP JUMP JUMPDEST PUSH1 0x4 DUP2 LT PUSH2 0xD9B JUMPI PUSH2 0xD9A PUSH2 0xB05 JUMP JUMPDEST JUMPDEST POP JUMP JUMPDEST PUSH1 0x0 DUP2 SWAP1 POP PUSH2 0xDAC DUP3 PUSH2 0xD8A JUMP JUMPDEST SWAP2 SWAP1 POP JUMP JUMPDEST PUSH1 0x0 PUSH2 0xDBC DUP3 PUSH2 0xD9E JUMP JUMPDEST SWAP1 POP SWAP2 SWAP1 POP JUMP JUMPDEST PUSH2 0xDCC DUP2 PUSH2 0xDB1 JUMP JUMPDEST DUP3 MSTORE POP POP JUMP JUMPDEST PUSH1 0x0 PUSH1 0x60 DUP3 ADD SWAP1 POP PUSH2 0xDE7 PUSH1 0x0 DUP4 ADD DUP7 PUSH2 0xD20 JUMP JUMPDEST DUP2 DUP2 SUB PUSH1 0x20 DUP4 ADD MSTORE PUSH2 0xDF9 DUP2 DUP6 PUSH2 0xD51 JUMP JUMPDEST SWAP1 POP PUSH2 0xE08 PUSH1 0x40 DUP4 ADD DUP5 PUSH2 0xDC3 JUMP JUMPDEST SWAP5 SWAP4 POP POP POP POP JUMP JUMPDEST PUSH32 0x4E487B7100000000000000000000000000000000000000000000000000000000 PUSH1 0x0 MSTORE PUSH1 0x32 PUSH1 0x4 MSTORE PUSH1 0x24 PUSH1 0x0 REVERT JUMPDEST PUSH32 0x4E487B7100000000000000000000000000000000000000000000000000000000 PUSH1 0x0 MSTORE PUSH1 0x11 PUSH1 0x4 MSTORE PUSH1 0x24 PUSH1 0x0 REVERT JUMPDEST PUSH1 0x0 PUSH2 0xE79 DUP3 PUSH2 0x97D JUMP JUMPDEST SWAP2 POP PUSH2 0xE84 DUP4 PUSH2 0x97D JUMP JUMPDEST SWAP3 POP DUP3 DUP3 ADD SWAP1 POP DUP1 DUP3 GT ISZERO PUSH2 0xE9C JUMPI PUSH2 0xE9B PUSH2 0xE3F JUMP JUMPDEST JUMPDEST SWAP3 SWAP2 POP POP JUMP JUMPDEST PUSH1 0x0 PUSH2 0xEAD DUP3 PUSH2 0x97D JUMP JUMPDEST SWAP2 POP PUSH2 0xEB8 DUP4 PUSH2 0x97D JUMP JUMPDEST SWAP3 POP DUP3 DUP3 SUB SWAP1 POP DUP2 DUP2 GT ISZERO PUSH2 0xED0 JUMPI PUSH2 0xECF PUSH2 0xE3F JUMP JUMPDEST JUMPDEST SWAP3 SWAP2 POP POP JUMP JUMPDEST PUSH32 0x696E76616C69642063686172616374657220696E2068657820737472696E6700 PUSH1 0x0 DUP3 ADD MSTORE POP JUMP JUMPDEST PUSH1 0x0 PUSH2 0xF0C PUSH1 0x1F DUP4 PUSH2 0xD2F JUMP JUMPDEST SWAP2 POP PUSH2 0xF17 DUP3 PUSH2 0xED6 JUMP JUMPDEST PUSH1 0x20 DUP3 ADD SWAP1 POP SWAP2 SWAP1 POP JUMP JUMPDEST PUSH1 0x0 PUSH1 0x20 DUP3 ADD SWAP1 POP DUP2 DUP2 SUB PUSH1 0x0 DUP4 ADD MSTORE PUSH2 0xF3B DUP2 PUSH2 0xEFF JUMP JUMPDEST SWAP1 POP SWAP2 SWAP1 POP JUMP JUMPDEST PUSH1 0x0 PUSH1 0xFF DUP3 AND SWAP1 POP SWAP2 SWAP1 POP JUMP JUMPDEST PUSH1 0x0 PUSH2 0xF5A DUP3 PUSH2 0xF42 JUMP JUMPDEST SWAP2 POP PUSH1 0xFF DUP3 SUB PUSH2 0xF6D JUMPI PUSH2 0xF6C PUSH2 0xE3F JUMP JUMPDEST JUMPDEST PUSH1 0x1 DUP3 ADD SWAP1 POP SWAP2 SWAP1 POP JUMP JUMPDEST PUSH1 0x0 PUSH2 0xF83 DUP3 PUSH2 0x97D JUMP JUMPDEST SWAP2 POP PUSH2 0xF8E DUP4 PUSH2 0x97D JUMP JUMPDEST SWAP3 POP DUP3 DUP3 MUL PUSH2 0xF9C DUP2 PUSH2 0x97D JUMP JUMPDEST SWAP2 POP DUP3 DUP3 DIV DUP5 EQ DUP4 ISZERO OR PUSH2 0xFB3 JUMPI PUSH2 0xFB2 PUSH2 0xE3F JUMP JUMPDEST JUMPDEST POP SWAP3 SWAP2 POP POP JUMP JUMPDEST PUSH32 0x4E487B7100000000000000000000000000000000000000000000000000000000 PUSH1 0x0 MSTORE PUSH1 0x41 PUSH1 0x4 MSTORE PUSH1 0x24 PUSH1 0x0 REVERT JUMPDEST PUSH1 0x0 PUSH2 0xFF4 DUP3 PUSH2 0x97D JUMP JUMPDEST SWAP2 POP PUSH1 0x0 DUP3 SUB PUSH2 0x1007 JUMPI PUSH2 0x1006 PUSH2 0xE3F JUMP JUMPDEST JUMPDEST PUSH1 0x1 DUP3 SUB SWAP1 POP SWAP2 SWAP1 POP JUMP JUMPDEST PUSH32 0x537472696E67733A20686578206C656E67746820696E73756666696369656E74 PUSH1 0x0 DUP3 ADD MSTORE POP JUMP JUMPDEST PUSH1 0x0 PUSH2 0x1048 PUSH1 0x20 DUP4 PUSH2 0xD2F JUMP JUMPDEST SWAP2 POP PUSH2 0x1053 DUP3 PUSH2 0x1012 JUMP JUMPDEST PUSH1 0x20 DUP3 ADD SWAP1 POP SWAP2 SWAP1 POP JUMP JUMPDEST PUSH1 0x0 PUSH1 0x20 DUP3 ADD SWAP1 POP DUP2 DUP2 SUB PUSH1 0x0 DUP4 ADD MSTORE PUSH2 0x1077 DUP2 PUSH2 0x103B JUMP JUMPDEST SWAP1 POP SWAP2 SWAP1 POP JUMP INVALID 0x24 0x28 PUSH4 0x6174202F PUSH10 0x6E707574732F6C617465 PUSH20 0x74207C206A71202D7220222E72616E646F6D6E65 PUSH20 0x7322207C2074722022612D7A222022412D5A2229 PUSH28 0x2253706563223A7B22456E67696E65223A22446F636B6572222C2256 PUSH6 0x726966696572 0x22 GASPRICE 0x22 0x4E PUSH16 0x6F70222C225075626C6973686572223A 0x22 GASLIMIT PUSH20 0x7475617279222C22446F636B6572223A7B22496D PUSH2 0x6765 0x22 GASPRICE 0x22 PUSH8 0x6863722E696F2F62 PUSH2 0x6361 PUSH13 0x6861752D70726F6A6563742F64 PUSH19 0x616E642D6578616D706C653A6C617465737440 PUSH20 0x68613235363A6332393539386162346434336266 CALLER CODECOPY CALLDATACOPY PUSH2 0x3836 PUSH3 0x633938 CALLER PUSH4 0x34613333 PUSH7 0x64623736373533 CALLDATALOAD PUSH7 0x39306539386234 ORIGIN PUSH3 0x356335 PUSH2 0x6661 CALLDATACOPY PUSH3 0x663035 CALLDATASIZE PUSH4 0x3463222C 0x22 GASLIMIT PUSH15 0x747279706F696E74223A5B22626173 PUSH9 0x222C222D63222C2265 PUSH4 0x686F2022 PUSH10 0x626173653D31363B206F PUSH3 0x617365 RETURNDATASIZE BALANCE CALLDATASIZE EXTCODESIZE KECCAK256 0x28 0x29 0x22 KECCAK256 PUSH29 0x206263207C207472202D6420220A22225D7D2C22696E70757473223A5B PUSH28 0x2253746F72616765536F75726365223A2255524C446F776E6C6F6164 0x22 0x2C 0x22 SSTORE MSTORE 0x4C 0x22 GASPRICE 0x22 PUSH9 0x747470733A2F2F6170 PUSH10 0x2E6472616E642E73682F CODESIZE CODECOPY CODECOPY ADDRESS PUSH6 0x376139616165 PUSH5 0x3266666564 CALLDATACOPY CALLER PUSH5 0x6264373039 ORIGIN BALANCE ORIGIN CALLER PUSH5 0x3666323839 CODECOPY CALLER ADDRESS CALLDATALOAD CALLVALUE ADDRESS PUSH5 0x3736353133 CALLER CALLDATASIZE ORIGIN ORIGIN CALLDATALOAD PUSH5 0x6331373265 CALLDATALOAD BALANCE PUSH3 0x326365 0x2F PUSH17 0x75626C69632F6C6174657374222C227061 PUSH21 0x68223A222F696E70757473227D5D2C224465616C22 GASPRICE PUSH28 0x22436F6E63757272656E6379223A317D7D7DA2646970667358221220 0xEF PUSH7 0x5E02A681572220 PUSH24 0x1D188A22CB32D5B72F7F047D32C9E118731F015786546473 PUSH16 0x6C634300081100330000000000000000 "},"methodIdentifiers":{"getRandomNumber(uint256,uint256)":"6e68fc0a","lilypadReceiver(address,uint256,uint8,string)":"511deb47"}}}}}