{"contracts/StableDiffusionCaller.sol":{"StableDiffusionCaller":{"abi":[{"inputs":[{"internalType":"address","name":"bridgeContract","type":"address"}],"stateMutability":"nonpayable","type":"constructor"},{"anonymous":false,"inputs":[{"indexed":false,"internalType":"uint256","name":"jobId","type":"uint256"},{"indexed":false,"internalType":"string","name":"ipfsResult","type":"string"}],"name":"LilypadResponse","type":"event"},{"inputs":[{"internalType":"string","name":"_prompt","type":"string"}],"name":"StableDiffusion","outputs":[],"stateMutability":"nonpayable","type":"function"},{"inputs":[],"name":"bridge","outputs":[{"internalType":"contract LilypadEvents","name":"","type":"address"}],"stateMutability":"view","type":"function"},{"inputs":[],"name":"fetchAllJobs","outputs":[{"components":[{"internalType":"uint256","name":"jobId","type":"uint256"},{"internalType":"string","name":"ipfsResult","type":"string"}],"internalType":"struct StableDiffusionCaller.LilypadJob[]","name":"","type":"tuple[]"}],"stateMutability":"view","type":"function"},{"inputs":[{"internalType":"uint256","name":"","type":"uint256"}],"name":"lilypadJobs","outputs":[{"internalType":"uint256","name":"jobId","type":"uint256"},{"internalType":"string","name":"ipfsResult","type":"string"}],"stateMutability":"view","type":"function"},{"inputs":[{"internalType":"address","name":"_from","type":"address"},{"internalType":"uint256","name":"_jobId","type":"uint256"},{"internalType":"string","name":"_ipfsResult","type":"string"}],"name":"lilypadReceiver","outputs":[],"stateMutability":"nonpayable","type":"function"},{"inputs":[{"internalType":"address","name":"_eventsAddress","type":"address"}],"name":"setLPEventsAddress","outputs":[],"stateMutability":"nonpayable","type":"function"}],"evm":{"bytecode":{"linkReferences":{},"object":"60806040523480156200001157600080fd5b5060405162001460380380620014608339818101604052810190620000379190620001f7565b620000666040518060600160405280602281526020016200143e602291396200007e60201b620005311760201c565b62000077816200012160201b60201c565b50620002e7565b6200011e81604051602401620000959190620002c3565b6040516020818303038152906040527f41304fac000000000000000000000000000000000000000000000000000000007bffffffffffffffffffffffffffffffffffffffffffffffffffffffff19166020820180517bffffffffffffffffffffffffffffffffffffffffffffffffffffffff83818316178352505050506200016460201b60201c565b50565b806000806101000a81548173ffffffffffffffffffffffffffffffffffffffff021916908373ffffffffffffffffffffffffffffffffffffffff16021790555050565b60008151905060006a636f6e736f6c652e6c6f679050602083016000808483855afa5050505050565b600080fd5b600073ffffffffffffffffffffffffffffffffffffffff82169050919050565b6000620001bf8262000192565b9050919050565b620001d181620001b2565b8114620001dd57600080fd5b50565b600081519050620001f181620001c6565b92915050565b60006020828403121562000210576200020f6200018d565b5b60006200022084828501620001e0565b91505092915050565b600081519050919050565b600082825260208201905092915050565b60005b838110156200026557808201518184015260208101905062000248565b60008484015250505050565b6000601f19601f8301169050919050565b60006200028f8262000229565b6200029b818562000234565b9350620002ad81856020860162000245565b620002b88162000271565b840191505092915050565b60006020820190508181036000830152620002df818462000282565b905092915050565b61114780620002f76000396000f3fe608060405234801561001057600080fd5b50600436106100625760003560e01c80630972c2fa1461006757806335c764e314610083578063c3357f4e1461009f578063ce4af1d7146100bb578063e78cea92146100d9578063f1cb28ad146100f7575b600080fd5b610081600480360381019061007c9190610665565b610128565b005b61009d6004803603810190610098919061080e565b61016b565b005b6100b960048036038101906100b491906108dd565b610269565b005b6100c3610356565b6040516100d09190610ab7565b60405180910390f35b6100e1610451565b6040516100ee9190610b38565b60405180910390f35b610111600480360381019061010c9190610b53565b610475565b60405161011f929190610bd9565b60405180910390f35b806000806101000a81548173ffffffffffffffffffffffffffffffffffffffff021916908373ffffffffffffffffffffffffffffffffffffffff16021790555050565b60008054906101000a900473ffffffffffffffffffffffffffffffffffffffff1673ffffffffffffffffffffffffffffffffffffffff168373ffffffffffffffffffffffffffffffffffffffff16146101c357600080fd5b6000604051806040016040528084815260200183815250905060018190806001815401808255809150506001900390600052602060002090600202016000909190919091506000820151816000015560208201518160010190816102279190610e0b565b5050507f5658d669440c482d6eed1ca4a3e301ae71f7b56ae0d72c6743316907e62d190a838360405161025b929190610bd9565b60405180910390a150505050565b600060405180610100016040528060d18152602001610fd360d1913983836040518060a00160405280606e81526020016110a4606e91396040516020016102b39493929190610f3e565b604051602081830303815290604052905060008054906101000a900473ffffffffffffffffffffffffffffffffffffffff1673ffffffffffffffffffffffffffffffffffffffff166346b3c95230836040518363ffffffff1660e01b815260040161031f929190610f80565b600060405180830381600087803b15801561033957600080fd5b505af115801561034d573d6000803e3d6000fd5b50505050505050565b60606001805480602002602001604051908101604052809291908181526020016000905b828210156104485783829060005260206000209060020201604051806040016040529081600082015481526020016001820180546103b790610c38565b80601f01602080910402602001604051908101604052809291908181526020018280546103e390610c38565b80156104305780601f1061040557610100808354040283529160200191610430565b820191906000526020600020905b81548152906001019060200180831161041357829003601f168201915b5050505050815250508152602001906001019061037a565b50505050905090565b60008054906101000a900473ffffffffffffffffffffffffffffffffffffffff1681565b6001818154811061048557600080fd5b90600052602060002090600202016000915090508060000154908060010180546104ae90610c38565b80601f01602080910402602001604051908101604052809291908181526020018280546104da90610c38565b80156105275780601f106104fc57610100808354040283529160200191610527565b820191906000526020600020905b81548152906001019060200180831161050a57829003601f168201915b5050505050905082565b6105c7816040516024016105459190610fb0565b6040516020818303038152906040527f41304fac000000000000000000000000000000000000000000000000000000007bffffffffffffffffffffffffffffffffffffffffffffffffffffffff19166020820180517bffffffffffffffffffffffffffffffffffffffffffffffffffffffff83818316178352505050506105ca565b50565b60008151905060006a636f6e736f6c652e6c6f679050602083016000808483855afa5050505050565b6000604051905090565b600080fd5b600080fd5b600073ffffffffffffffffffffffffffffffffffffffff82169050919050565b600061063282610607565b9050919050565b61064281610627565b811461064d57600080fd5b50565b60008135905061065f81610639565b92915050565b60006020828403121561067b5761067a6105fd565b5b600061068984828501610650565b91505092915050565b6000819050919050565b6106a581610692565b81146106b057600080fd5b50565b6000813590506106c28161069c565b92915050565b600080fd5b600080fd5b6000601f19601f8301169050919050565b7f4e487b7100000000000000000000000000000000000000000000000000000000600052604160045260246000fd5b61071b826106d2565b810181811067ffffffffffffffff8211171561073a576107396106e3565b5b80604052505050565b600061074d6105f3565b90506107598282610712565b919050565b600067ffffffffffffffff821115610779576107786106e3565b5b610782826106d2565b9050602081019050919050565b82818337600083830152505050565b60006107b16107ac8461075e565b610743565b9050828152602081018484840111156107cd576107cc6106cd565b5b6107d884828561078f565b509392505050565b600082601f8301126107f5576107f46106c8565b5b813561080584826020860161079e565b91505092915050565b600080600060608486031215610827576108266105fd565b5b600061083586828701610650565b9350506020610846868287016106b3565b925050604084013567ffffffffffffffff81111561086757610866610602565b5b610873868287016107e0565b9150509250925092565b600080fd5b600080fd5b60008083601f84011261089d5761089c6106c8565b5b8235905067ffffffffffffffff8111156108ba576108b961087d565b5b6020830191508360018202830111156108d6576108d5610882565b5b9250929050565b600080602083850312156108f4576108f36105fd565b5b600083013567ffffffffffffffff81111561091257610911610602565b5b61091e85828601610887565b92509250509250929050565b600081519050919050565b600082825260208201905092915050565b6000819050602082019050919050565b61095f81610692565b82525050565b600081519050919050565b600082825260208201905092915050565b60005b8381101561099f578082015181840152602081019050610984565b60008484015250505050565b60006109b682610965565b6109c08185610970565b93506109d0818560208601610981565b6109d9816106d2565b840191505092915050565b60006040830160008301516109fc6000860182610956565b5060208301518482036020860152610a1482826109ab565b9150508091505092915050565b6000610a2d83836109e4565b905092915050565b6000602082019050919050565b6000610a4d8261092a565b610a578185610935565b935083602082028501610a6985610946565b8060005b85811015610aa55784840389528151610a868582610a21565b9450610a9183610a35565b925060208a01995050600181019050610a6d565b50829750879550505050505092915050565b60006020820190508181036000830152610ad18184610a42565b905092915050565b6000819050919050565b6000610afe610af9610af484610607565b610ad9565b610607565b9050919050565b6000610b1082610ae3565b9050919050565b6000610b2282610b05565b9050919050565b610b3281610b17565b82525050565b6000602082019050610b4d6000830184610b29565b92915050565b600060208284031215610b6957610b686105fd565b5b6000610b77848285016106b3565b91505092915050565b610b8981610692565b82525050565b600082825260208201905092915050565b6000610bab82610965565b610bb58185610b8f565b9350610bc5818560208601610981565b610bce816106d2565b840191505092915050565b6000604082019050610bee6000830185610b80565b8181036020830152610c008184610ba0565b90509392505050565b7f4e487b7100000000000000000000000000000000000000000000000000000000600052602260045260246000fd5b60006002820490506001821680610c5057607f821691505b602082108103610c6357610c62610c09565b5b50919050565b60008190508160005260206000209050919050565b60006020601f8301049050919050565b600082821b905092915050565b600060088302610ccb7fffffffffffffffffffffffffffffffffffffffffffffffffffffffffffffffff82610c8e565b610cd58683610c8e565b95508019841693508086168417925050509392505050565b6000610d08610d03610cfe84610692565b610ad9565b610692565b9050919050565b6000819050919050565b610d2283610ced565b610d36610d2e82610d0f565b848454610c9b565b825550505050565b600090565b610d4b610d3e565b610d56818484610d19565b505050565b5b81811015610d7a57610d6f600082610d43565b600181019050610d5c565b5050565b601f821115610dbf57610d9081610c69565b610d9984610c7e565b81016020851015610da8578190505b610dbc610db485610c7e565b830182610d5b565b50505b505050565b600082821c905092915050565b6000610de260001984600802610dc4565b1980831691505092915050565b6000610dfb8383610dd1565b9150826002028217905092915050565b610e1482610965565b67ffffffffffffffff811115610e2d57610e2c6106e3565b5b610e378254610c38565b610e42828285610d7e565b600060209050601f831160018114610e755760008415610e63578287015190505b610e6d8582610def565b865550610ed5565b601f198416610e8386610c69565b60005b82811015610eab57848901518255600182019150602085019450602081019050610e86565b86831015610ec85784890151610ec4601f891682610dd1565b8355505b6001600288020188555050505b505050505050565b600081905092915050565b6000610ef382610965565b610efd8185610edd565b9350610f0d818560208601610981565b80840191505092915050565b6000610f258385610edd565b9350610f3283858461078f565b82840190509392505050565b6000610f4a8287610ee8565b9150610f57828587610f19565b9150610f638284610ee8565b915081905095945050505050565b610f7a81610627565b82525050565b6000604082019050610f956000830185610f71565b8181036020830152610fa78184610ba0565b90509392505050565b60006020820190508181036000830152610fca8184610ba0565b90509291505056fe7b22456e67696e65223a2022646f636b6572222c225665726966696572223a20226e6f6f70222c225075626c6973686572223a202265737475617279222c22446f636b6572223a207b22496d616765223a2022676863722e696f2f626163616c6861752d70726f6a6563742f6578616d706c65732f737461626c652d646966667573696f6e2d6770753a302e302e31222c22456e747279706f696e74223a205b22707974686f6e222c20226d61696e2e7079222c20222d2d6f222c20222e2f6f757470757473222c20222d2d70222c2022225d7d2c225265736f7572636573223a207b22475055223a202231227d2c224f757470757473223a205b7b224e616d65223a20226f757470757473222c202250617468223a20222f6f757470757473227d5d2c224465616c223a207b22436f6e63757272656e6379223a20317d7da26469706673582212201b6d3087c79618349814465450640a56d1db47008ab5f3018c1b6e450c24994c64736f6c634300081100334465706c6f79696e6720537461626c65446966667573696f6e20636f6e7472616374","opcodes":"PUSH1 0x80 PUSH1 0x40 MSTORE CALLVALUE DUP1 ISZERO PUSH3 0x11 JUMPI PUSH1 0x0 DUP1 REVERT JUMPDEST POP PUSH1 0x40 MLOAD PUSH3 0x1460 CODESIZE SUB DUP1 PUSH3 0x1460 DUP4 CODECOPY DUP2 DUP2 ADD PUSH1 0x40 MSTORE DUP2 ADD SWAP1 PUSH3 0x37 SWAP2 SWAP1 PUSH3 0x1F7 JUMP JUMPDEST PUSH3 0x66 PUSH1 0x40 MLOAD DUP1 PUSH1 0x60 ADD PUSH1 0x40 MSTORE DUP1 PUSH1 0x22 DUP2 MSTORE PUSH1 0x20 ADD PUSH3 0x143E PUSH1 0x22 SWAP2 CODECOPY PUSH3 0x7E PUSH1 0x20 SHL PUSH3 0x531 OR PUSH1 0x20 SHR JUMP JUMPDEST PUSH3 0x77 DUP2 PUSH3 0x121 PUSH1 0x20 SHL PUSH1 0x20 SHR JUMP JUMPDEST POP PUSH3 0x2E7 JUMP JUMPDEST PUSH3 0x11E DUP2 PUSH1 0x40 MLOAD PUSH1 0x24 ADD PUSH3 0x95 SWAP2 SWAP1 PUSH3 0x2C3 JUMP JUMPDEST PUSH1 0x40 MLOAD PUSH1 0x20 DUP2 DUP4 SUB SUB DUP2 MSTORE SWAP1 PUSH1 0x40 MSTORE PUSH32 0x41304FAC00000000000000000000000000000000000000000000000000000000 PUSH28 0xFFFFFFFFFFFFFFFFFFFFFFFFFFFFFFFFFFFFFFFFFFFFFFFFFFFFFFFF NOT AND PUSH1 0x20 DUP3 ADD DUP1 MLOAD PUSH28 0xFFFFFFFFFFFFFFFFFFFFFFFFFFFFFFFFFFFFFFFFFFFFFFFFFFFFFFFF DUP4 DUP2 DUP4 AND OR DUP4 MSTORE POP POP POP POP PUSH3 0x164 PUSH1 0x20 SHL PUSH1 0x20 SHR JUMP JUMPDEST POP JUMP JUMPDEST DUP1 PUSH1 0x0 DUP1 PUSH2 0x100 EXP DUP2 SLOAD DUP2 PUSH20 0xFFFFFFFFFFFFFFFFFFFFFFFFFFFFFFFFFFFFFFFF MUL NOT AND SWAP1 DUP4 PUSH20 0xFFFFFFFFFFFFFFFFFFFFFFFFFFFFFFFFFFFFFFFF AND MUL OR SWAP1 SSTORE POP POP JUMP JUMPDEST PUSH1 0x0 DUP2 MLOAD SWAP1 POP PUSH1 0x0 PUSH11 0x636F6E736F6C652E6C6F67 SWAP1 POP PUSH1 0x20 DUP4 ADD PUSH1 0x0 DUP1 DUP5 DUP4 DUP6 GAS STATICCALL POP POP POP POP POP JUMP JUMPDEST PUSH1 0x0 DUP1 REVERT JUMPDEST PUSH1 0x0 PUSH20 0xFFFFFFFFFFFFFFFFFFFFFFFFFFFFFFFFFFFFFFFF DUP3 AND SWAP1 POP SWAP2 SWAP1 POP JUMP JUMPDEST PUSH1 0x0 PUSH3 0x1BF DUP3 PUSH3 0x192 JUMP JUMPDEST SWAP1 POP SWAP2 SWAP1 POP JUMP JUMPDEST PUSH3 0x1D1 DUP2 PUSH3 0x1B2 JUMP JUMPDEST DUP2 EQ PUSH3 0x1DD JUMPI PUSH1 0x0 DUP1 REVERT JUMPDEST POP JUMP JUMPDEST PUSH1 0x0 DUP2 MLOAD SWAP1 POP PUSH3 0x1F1 DUP2 PUSH3 0x1C6 JUMP JUMPDEST SWAP3 SWAP2 POP POP JUMP JUMPDEST PUSH1 0x0 PUSH1 0x20 DUP3 DUP5 SUB SLT ISZERO PUSH3 0x210 JUMPI PUSH3 0x20F PUSH3 0x18D JUMP JUMPDEST JUMPDEST PUSH1 0x0 PUSH3 0x220 DUP5 DUP3 DUP6 ADD PUSH3 0x1E0 JUMP JUMPDEST SWAP2 POP POP SWAP3 SWAP2 POP POP JUMP JUMPDEST PUSH1 0x0 DUP2 MLOAD SWAP1 POP SWAP2 SWAP1 POP JUMP JUMPDEST PUSH1 0x0 DUP3 DUP3 MSTORE PUSH1 0x20 DUP3 ADD SWAP1 POP SWAP3 SWAP2 POP POP JUMP JUMPDEST PUSH1 0x0 JUMPDEST DUP4 DUP2 LT ISZERO PUSH3 0x265 JUMPI DUP1 DUP3 ADD MLOAD DUP2 DUP5 ADD MSTORE PUSH1 0x20 DUP2 ADD SWAP1 POP PUSH3 0x248 JUMP JUMPDEST PUSH1 0x0 DUP5 DUP5 ADD MSTORE POP POP POP POP JUMP JUMPDEST PUSH1 0x0 PUSH1 0x1F NOT PUSH1 0x1F DUP4 ADD AND SWAP1 POP SWAP2 SWAP1 POP JUMP JUMPDEST PUSH1 0x0 PUSH3 0x28F DUP3 PUSH3 0x229 JUMP JUMPDEST PUSH3 0x29B DUP2 DUP6 PUSH3 0x234 JUMP JUMPDEST SWAP4 POP PUSH3 0x2AD DUP2 DUP6 PUSH1 0x20 DUP7 ADD PUSH3 0x245 JUMP JUMPDEST PUSH3 0x2B8 DUP2 PUSH3 0x271 JUMP JUMPDEST DUP5 ADD SWAP2 POP POP SWAP3 SWAP2 POP POP JUMP JUMPDEST PUSH1 0x0 PUSH1 0x20 DUP3 ADD SWAP1 POP DUP2 DUP2 SUB PUSH1 0x0 DUP4 ADD MSTORE PUSH3 0x2DF DUP2 DUP5 PUSH3 0x282 JUMP JUMPDEST SWAP1 POP SWAP3 SWAP2 POP POP JUMP JUMPDEST PUSH2 0x1147 DUP1 PUSH3 0x2F7 PUSH1 0x0 CODECOPY PUSH1 0x0 RETURN INVALID PUSH1 0x80 PUSH1 0x40 MSTORE CALLVALUE DUP1 ISZERO PUSH2 0x10 JUMPI PUSH1 0x0 DUP1 REVERT JUMPDEST POP PUSH1 0x4 CALLDATASIZE LT PUSH2 0x62 JUMPI PUSH1 0x0 CALLDATALOAD PUSH1 0xE0 SHR DUP1 PUSH4 0x972C2FA EQ PUSH2 0x67 JUMPI DUP1 PUSH4 0x35C764E3 EQ PUSH2 0x83 JUMPI DUP1 PUSH4 0xC3357F4E EQ PUSH2 0x9F JUMPI DUP1 PUSH4 0xCE4AF1D7 EQ PUSH2 0xBB JUMPI DUP1 PUSH4 0xE78CEA92 EQ PUSH2 0xD9 JUMPI DUP1 PUSH4 0xF1CB28AD EQ PUSH2 0xF7 JUMPI JUMPDEST PUSH1 0x0 DUP1 REVERT JUMPDEST PUSH2 0x81 PUSH1 0x4 DUP1 CALLDATASIZE SUB DUP2 ADD SWAP1 PUSH2 0x7C SWAP2 SWAP1 PUSH2 0x665 JUMP JUMPDEST PUSH2 0x128 JUMP JUMPDEST STOP JUMPDEST PUSH2 0x9D PUSH1 0x4 DUP1 CALLDATASIZE SUB DUP2 ADD SWAP1 PUSH2 0x98 SWAP2 SWAP1 PUSH2 0x80E JUMP JUMPDEST PUSH2 0x16B JUMP JUMPDEST STOP JUMPDEST PUSH2 0xB9 PUSH1 0x4 DUP1 CALLDATASIZE SUB DUP2 ADD SWAP1 PUSH2 0xB4 SWAP2 SWAP1 PUSH2 0x8DD JUMP JUMPDEST PUSH2 0x269 JUMP JUMPDEST STOP JUMPDEST PUSH2 0xC3 PUSH2 0x356 JUMP JUMPDEST PUSH1 0x40 MLOAD PUSH2 0xD0 SWAP2 SWAP1 PUSH2 0xAB7 JUMP JUMPDEST PUSH1 0x40 MLOAD DUP1 SWAP2 SUB SWAP1 RETURN JUMPDEST PUSH2 0xE1 PUSH2 0x451 JUMP JUMPDEST PUSH1 0x40 MLOAD PUSH2 0xEE SWAP2 SWAP1 PUSH2 0xB38 JUMP JUMPDEST PUSH1 0x40 MLOAD DUP1 SWAP2 SUB SWAP1 RETURN JUMPDEST PUSH2 0x111 PUSH1 0x4 DUP1 CALLDATASIZE SUB DUP2 ADD SWAP1 PUSH2 0x10C SWAP2 SWAP1 PUSH2 0xB53 JUMP JUMPDEST PUSH2 0x475 JUMP JUMPDEST PUSH1 0x40 MLOAD PUSH2 0x11F SWAP3 SWAP2 SWAP1 PUSH2 0xBD9 JUMP JUMPDEST PUSH1 0x40 MLOAD DUP1 SWAP2 SUB SWAP1 RETURN JUMPDEST DUP1 PUSH1 0x0 DUP1 PUSH2 0x100 EXP DUP2 SLOAD DUP2 PUSH20 0xFFFFFFFFFFFFFFFFFFFFFFFFFFFFFFFFFFFFFFFF MUL NOT AND SWAP1 DUP4 PUSH20 0xFFFFFFFFFFFFFFFFFFFFFFFFFFFFFFFFFFFFFFFF AND MUL OR SWAP1 SSTORE POP POP JUMP JUMPDEST PUSH1 0x0 DUP1 SLOAD SWAP1 PUSH2 0x100 EXP SWAP1 DIV PUSH20 0xFFFFFFFFFFFFFFFFFFFFFFFFFFFFFFFFFFFFFFFF AND PUSH20 0xFFFFFFFFFFFFFFFFFFFFFFFFFFFFFFFFFFFFFFFF AND DUP4 PUSH20 0xFFFFFFFFFFFFFFFFFFFFFFFFFFFFFFFFFFFFFFFF AND EQ PUSH2 0x1C3 JUMPI PUSH1 0x0 DUP1 REVERT JUMPDEST PUSH1 0x0 PUSH1 0x40 MLOAD DUP1 PUSH1 0x40 ADD PUSH1 0x40 MSTORE DUP1 DUP5 DUP2 MSTORE PUSH1 0x20 ADD DUP4 DUP2 MSTORE POP SWAP1 POP PUSH1 0x1 DUP2 SWAP1 DUP1 PUSH1 0x1 DUP2 SLOAD ADD DUP1 DUP3 SSTORE DUP1 SWAP2 POP POP PUSH1 0x1 SWAP1 SUB SWAP1 PUSH1 0x0 MSTORE PUSH1 0x20 PUSH1 0x0 KECCAK256 SWAP1 PUSH1 0x2 MUL ADD PUSH1 0x0 SWAP1 SWAP2 SWAP1 SWAP2 SWAP1 SWAP2 POP PUSH1 0x0 DUP3 ADD MLOAD DUP2 PUSH1 0x0 ADD SSTORE PUSH1 0x20 DUP3 ADD MLOAD DUP2 PUSH1 0x1 ADD SWAP1 DUP2 PUSH2 0x227 SWAP2 SWAP1 PUSH2 0xE0B JUMP JUMPDEST POP POP POP PUSH32 0x5658D669440C482D6EED1CA4A3E301AE71F7B56AE0D72C6743316907E62D190A DUP4 DUP4 PUSH1 0x40 MLOAD PUSH2 0x25B SWAP3 SWAP2 SWAP1 PUSH2 0xBD9 JUMP JUMPDEST PUSH1 0x40 MLOAD DUP1 SWAP2 SUB SWAP1 LOG1 POP POP POP POP JUMP JUMPDEST PUSH1 0x0 PUSH1 0x40 MLOAD DUP1 PUSH2 0x100 ADD PUSH1 0x40 MSTORE DUP1 PUSH1 0xD1 DUP2 MSTORE PUSH1 0x20 ADD PUSH2 0xFD3 PUSH1 0xD1 SWAP2 CODECOPY DUP4 DUP4 PUSH1 0x40 MLOAD DUP1 PUSH1 0xA0 ADD PUSH1 0x40 MSTORE DUP1 PUSH1 0x6E DUP2 MSTORE PUSH1 0x20 ADD PUSH2 0x10A4 PUSH1 0x6E SWAP2 CODECOPY PUSH1 0x40 MLOAD PUSH1 0x20 ADD PUSH2 0x2B3 SWAP5 SWAP4 SWAP3 SWAP2 SWAP1 PUSH2 0xF3E JUMP JUMPDEST PUSH1 0x40 MLOAD PUSH1 0x20 DUP2 DUP4 SUB SUB DUP2 MSTORE SWAP1 PUSH1 0x40 MSTORE SWAP1 POP PUSH1 0x0 DUP1 SLOAD SWAP1 PUSH2 0x100 EXP SWAP1 DIV PUSH20 0xFFFFFFFFFFFFFFFFFFFFFFFFFFFFFFFFFFFFFFFF AND PUSH20 0xFFFFFFFFFFFFFFFFFFFFFFFFFFFFFFFFFFFFFFFF AND PUSH4 0x46B3C952 ADDRESS DUP4 PUSH1 0x40 MLOAD DUP4 PUSH4 0xFFFFFFFF AND PUSH1 0xE0 SHL DUP2 MSTORE PUSH1 0x4 ADD PUSH2 0x31F SWAP3 SWAP2 SWAP1 PUSH2 0xF80 JUMP JUMPDEST PUSH1 0x0 PUSH1 0x40 MLOAD DUP1 DUP4 SUB DUP2 PUSH1 0x0 DUP8 DUP1 EXTCODESIZE ISZERO DUP1 ISZERO PUSH2 0x339 JUMPI PUSH1 0x0 DUP1 REVERT JUMPDEST POP GAS CALL ISZERO DUP1 ISZERO PUSH2 0x34D JUMPI RETURNDATASIZE PUSH1 0x0 DUP1 RETURNDATACOPY RETURNDATASIZE PUSH1 0x0 REVERT JUMPDEST POP POP POP POP POP POP POP JUMP JUMPDEST PUSH1 0x60 PUSH1 0x1 DUP1 SLOAD DUP1 PUSH1 0x20 MUL PUSH1 0x20 ADD PUSH1 0x40 MLOAD SWAP1 DUP2 ADD PUSH1 0x40 MSTORE DUP1 SWAP3 SWAP2 SWAP1 DUP2 DUP2 MSTORE PUSH1 0x20 ADD PUSH1 0x0 SWAP1 JUMPDEST DUP3 DUP3 LT ISZERO PUSH2 0x448 JUMPI DUP4 DUP3 SWAP1 PUSH1 0x0 MSTORE PUSH1 0x20 PUSH1 0x0 KECCAK256 SWAP1 PUSH1 0x2 MUL ADD PUSH1 0x40 MLOAD DUP1 PUSH1 0x40 ADD PUSH1 0x40 MSTORE SWAP1 DUP2 PUSH1 0x0 DUP3 ADD SLOAD DUP2 MSTORE PUSH1 0x20 ADD PUSH1 0x1 DUP3 ADD DUP1 SLOAD PUSH2 0x3B7 SWAP1 PUSH2 0xC38 JUMP JUMPDEST DUP1 PUSH1 0x1F ADD PUSH1 0x20 DUP1 SWAP2 DIV MUL PUSH1 0x20 ADD PUSH1 0x40 MLOAD SWAP1 DUP2 ADD PUSH1 0x40 MSTORE DUP1 SWAP3 SWAP2 SWAP1 DUP2 DUP2 MSTORE PUSH1 0x20 ADD DUP3 DUP1 SLOAD PUSH2 0x3E3 SWAP1 PUSH2 0xC38 JUMP JUMPDEST DUP1 ISZERO PUSH2 0x430 JUMPI DUP1 PUSH1 0x1F LT PUSH2 0x405 JUMPI PUSH2 0x100 DUP1 DUP4 SLOAD DIV MUL DUP4 MSTORE SWAP2 PUSH1 0x20 ADD SWAP2 PUSH2 0x430 JUMP JUMPDEST DUP3 ADD SWAP2 SWAP1 PUSH1 0x0 MSTORE PUSH1 0x20 PUSH1 0x0 KECCAK256 SWAP1 JUMPDEST DUP2 SLOAD DUP2 MSTORE SWAP1 PUSH1 0x1 ADD SWAP1 PUSH1 0x20 ADD DUP1 DUP4 GT PUSH2 0x413 JUMPI DUP3 SWAP1 SUB PUSH1 0x1F AND DUP3 ADD SWAP2 JUMPDEST POP POP POP POP POP DUP2 MSTORE POP POP DUP2 MSTORE PUSH1 0x20 ADD SWAP1 PUSH1 0x1 ADD SWAP1 PUSH2 0x37A JUMP JUMPDEST POP POP POP POP SWAP1 POP SWAP1 JUMP JUMPDEST PUSH1 0x0 DUP1 SLOAD SWAP1 PUSH2 0x100 EXP SWAP1 DIV PUSH20 0xFFFFFFFFFFFFFFFFFFFFFFFFFFFFFFFFFFFFFFFF AND DUP2 JUMP JUMPDEST PUSH1 0x1 DUP2 DUP2 SLOAD DUP2 LT PUSH2 0x485 JUMPI PUSH1 0x0 DUP1 REVERT JUMPDEST SWAP1 PUSH1 0x0 MSTORE PUSH1 0x20 PUSH1 0x0 KECCAK256 SWAP1 PUSH1 0x2 MUL ADD PUSH1 0x0 SWAP2 POP SWAP1 POP DUP1 PUSH1 0x0 ADD SLOAD SWAP1 DUP1 PUSH1 0x1 ADD DUP1 SLOAD PUSH2 0x4AE SWAP1 PUSH2 0xC38 JUMP JUMPDEST DUP1 PUSH1 0x1F ADD PUSH1 0x20 DUP1 SWAP2 DIV MUL PUSH1 0x20 ADD PUSH1 0x40 MLOAD SWAP1 DUP2 ADD PUSH1 0x40 MSTORE DUP1 SWAP3 SWAP2 SWAP1 DUP2 DUP2 MSTORE PUSH1 0x20 ADD DUP3 DUP1 SLOAD PUSH2 0x4DA SWAP1 PUSH2 0xC38 JUMP JUMPDEST DUP1 ISZERO PUSH2 0x527 JUMPI DUP1 PUSH1 0x1F LT PUSH2 0x4FC JUMPI PUSH2 0x100 DUP1 DUP4 SLOAD DIV MUL DUP4 MSTORE SWAP2 PUSH1 0x20 ADD SWAP2 PUSH2 0x527 JUMP JUMPDEST DUP3 ADD SWAP2 SWAP1 PUSH1 0x0 MSTORE PUSH1 0x20 PUSH1 0x0 KECCAK256 SWAP1 JUMPDEST DUP2 SLOAD DUP2 MSTORE SWAP1 PUSH1 0x1 ADD SWAP1 PUSH1 0x20 ADD DUP1 DUP4 GT PUSH2 0x50A JUMPI DUP3 SWAP1 SUB PUSH1 0x1F AND DUP3 ADD SWAP2 JUMPDEST POP POP POP POP POP SWAP1 POP DUP3 JUMP JUMPDEST PUSH2 0x5C7 DUP2 PUSH1 0x40 MLOAD PUSH1 0x24 ADD PUSH2 0x545 SWAP2 SWAP1 PUSH2 0xFB0 JUMP JUMPDEST PUSH1 0x40 MLOAD PUSH1 0x20 DUP2 DUP4 SUB SUB DUP2 MSTORE SWAP1 PUSH1 0x40 MSTORE PUSH32 0x41304FAC00000000000000000000000000000000000000000000000000000000 PUSH28 0xFFFFFFFFFFFFFFFFFFFFFFFFFFFFFFFFFFFFFFFFFFFFFFFFFFFFFFFF NOT AND PUSH1 0x20 DUP3 ADD DUP1 MLOAD PUSH28 0xFFFFFFFFFFFFFFFFFFFFFFFFFFFFFFFFFFFFFFFFFFFFFFFFFFFFFFFF DUP4 DUP2 DUP4 AND OR DUP4 MSTORE POP POP POP POP PUSH2 0x5CA JUMP JUMPDEST POP JUMP JUMPDEST PUSH1 0x0 DUP2 MLOAD SWAP1 POP PUSH1 0x0 PUSH11 0x636F6E736F6C652E6C6F67 SWAP1 POP PUSH1 0x20 DUP4 ADD PUSH1 0x0 DUP1 DUP5 DUP4 DUP6 GAS STATICCALL POP POP POP POP POP JUMP JUMPDEST PUSH1 0x0 PUSH1 0x40 MLOAD SWAP1 POP SWAP1 JUMP JUMPDEST PUSH1 0x0 DUP1 REVERT JUMPDEST PUSH1 0x0 DUP1 REVERT JUMPDEST PUSH1 0x0 PUSH20 0xFFFFFFFFFFFFFFFFFFFFFFFFFFFFFFFFFFFFFFFF DUP3 AND SWAP1 POP SWAP2 SWAP1 POP JUMP JUMPDEST PUSH1 0x0 PUSH2 0x632 DUP3 PUSH2 0x607 JUMP JUMPDEST SWAP1 POP SWAP2 SWAP1 POP JUMP JUMPDEST PUSH2 0x642 DUP2 PUSH2 0x627 JUMP JUMPDEST DUP2 EQ PUSH2 0x64D JUMPI PUSH1 0x0 DUP1 REVERT JUMPDEST POP JUMP JUMPDEST PUSH1 0x0 DUP2 CALLDATALOAD SWAP1 POP PUSH2 0x65F DUP2 PUSH2 0x639 JUMP JUMPDEST SWAP3 SWAP2 POP POP JUMP JUMPDEST PUSH1 0x0 PUSH1 0x20 DUP3 DUP5 SUB SLT ISZERO PUSH2 0x67B JUMPI PUSH2 0x67A PUSH2 0x5FD JUMP JUMPDEST JUMPDEST PUSH1 0x0 PUSH2 0x689 DUP5 DUP3 DUP6 ADD PUSH2 0x650 JUMP JUMPDEST SWAP2 POP POP SWAP3 SWAP2 POP POP JUMP JUMPDEST PUSH1 0x0 DUP2 SWAP1 POP SWAP2 SWAP1 POP JUMP JUMPDEST PUSH2 0x6A5 DUP2 PUSH2 0x692 JUMP JUMPDEST DUP2 EQ PUSH2 0x6B0 JUMPI PUSH1 0x0 DUP1 REVERT JUMPDEST POP JUMP JUMPDEST PUSH1 0x0 DUP2 CALLDATALOAD SWAP1 POP PUSH2 0x6C2 DUP2 PUSH2 0x69C JUMP JUMPDEST SWAP3 SWAP2 POP POP JUMP JUMPDEST PUSH1 0x0 DUP1 REVERT JUMPDEST PUSH1 0x0 DUP1 REVERT JUMPDEST PUSH1 0x0 PUSH1 0x1F NOT PUSH1 0x1F DUP4 ADD AND SWAP1 POP SWAP2 SWAP1 POP JUMP JUMPDEST PUSH32 0x4E487B7100000000000000000000000000000000000000000000000000000000 PUSH1 0x0 MSTORE PUSH1 0x41 PUSH1 0x4 MSTORE PUSH1 0x24 PUSH1 0x0 REVERT JUMPDEST PUSH2 0x71B DUP3 PUSH2 0x6D2 JUMP JUMPDEST DUP2 ADD DUP2 DUP2 LT PUSH8 0xFFFFFFFFFFFFFFFF DUP3 GT OR ISZERO PUSH2 0x73A JUMPI PUSH2 0x739 PUSH2 0x6E3 JUMP JUMPDEST JUMPDEST DUP1 PUSH1 0x40 MSTORE POP POP POP JUMP JUMPDEST PUSH1 0x0 PUSH2 0x74D PUSH2 0x5F3 JUMP JUMPDEST SWAP1 POP PUSH2 0x759 DUP3 DUP3 PUSH2 0x712 JUMP JUMPDEST SWAP2 SWAP1 POP JUMP JUMPDEST PUSH1 0x0 PUSH8 0xFFFFFFFFFFFFFFFF DUP3 GT ISZERO PUSH2 0x779 JUMPI PUSH2 0x778 PUSH2 0x6E3 JUMP JUMPDEST JUMPDEST PUSH2 0x782 DUP3 PUSH2 0x6D2 JUMP JUMPDEST SWAP1 POP PUSH1 0x20 DUP2 ADD SWAP1 POP SWAP2 SWAP1 POP JUMP JUMPDEST DUP3 DUP2 DUP4 CALLDATACOPY PUSH1 0x0 DUP4 DUP4 ADD MSTORE POP POP POP JUMP JUMPDEST PUSH1 0x0 PUSH2 0x7B1 PUSH2 0x7AC DUP5 PUSH2 0x75E JUMP JUMPDEST PUSH2 0x743 JUMP JUMPDEST SWAP1 POP DUP3 DUP2 MSTORE PUSH1 0x20 DUP2 ADD DUP5 DUP5 DUP5 ADD GT ISZERO PUSH2 0x7CD JUMPI PUSH2 0x7CC PUSH2 0x6CD JUMP JUMPDEST JUMPDEST PUSH2 0x7D8 DUP5 DUP3 DUP6 PUSH2 0x78F JUMP JUMPDEST POP SWAP4 SWAP3 POP POP POP JUMP JUMPDEST PUSH1 0x0 DUP3 PUSH1 0x1F DUP4 ADD SLT PUSH2 0x7F5 JUMPI PUSH2 0x7F4 PUSH2 0x6C8 JUMP JUMPDEST JUMPDEST DUP2 CALLDATALOAD PUSH2 0x805 DUP5 DUP3 PUSH1 0x20 DUP7 ADD PUSH2 0x79E JUMP JUMPDEST SWAP2 POP POP SWAP3 SWAP2 POP POP JUMP JUMPDEST PUSH1 0x0 DUP1 PUSH1 0x0 PUSH1 0x60 DUP5 DUP7 SUB SLT ISZERO PUSH2 0x827 JUMPI PUSH2 0x826 PUSH2 0x5FD JUMP JUMPDEST JUMPDEST PUSH1 0x0 PUSH2 0x835 DUP7 DUP3 DUP8 ADD PUSH2 0x650 JUMP JUMPDEST SWAP4 POP POP PUSH1 0x20 PUSH2 0x846 DUP7 DUP3 DUP8 ADD PUSH2 0x6B3 JUMP JUMPDEST SWAP3 POP POP PUSH1 0x40 DUP5 ADD CALLDATALOAD PUSH8 0xFFFFFFFFFFFFFFFF DUP2 GT ISZERO PUSH2 0x867 JUMPI PUSH2 0x866 PUSH2 0x602 JUMP JUMPDEST JUMPDEST PUSH2 0x873 DUP7 DUP3 DUP8 ADD PUSH2 0x7E0 JUMP JUMPDEST SWAP2 POP POP SWAP3 POP SWAP3 POP SWAP3 JUMP JUMPDEST PUSH1 0x0 DUP1 REVERT JUMPDEST PUSH1 0x0 DUP1 REVERT JUMPDEST PUSH1 0x0 DUP1 DUP4 PUSH1 0x1F DUP5 ADD SLT PUSH2 0x89D JUMPI PUSH2 0x89C PUSH2 0x6C8 JUMP JUMPDEST JUMPDEST DUP3 CALLDATALOAD SWAP1 POP PUSH8 0xFFFFFFFFFFFFFFFF DUP2 GT ISZERO PUSH2 0x8BA JUMPI PUSH2 0x8B9 PUSH2 0x87D JUMP JUMPDEST JUMPDEST PUSH1 0x20 DUP4 ADD SWAP2 POP DUP4 PUSH1 0x1 DUP3 MUL DUP4 ADD GT ISZERO PUSH2 0x8D6 JUMPI PUSH2 0x8D5 PUSH2 0x882 JUMP JUMPDEST JUMPDEST SWAP3 POP SWAP3 SWAP1 POP JUMP JUMPDEST PUSH1 0x0 DUP1 PUSH1 0x20 DUP4 DUP6 SUB SLT ISZERO PUSH2 0x8F4 JUMPI PUSH2 0x8F3 PUSH2 0x5FD JUMP JUMPDEST JUMPDEST PUSH1 0x0 DUP4 ADD CALLDATALOAD PUSH8 0xFFFFFFFFFFFFFFFF DUP2 GT ISZERO PUSH2 0x912 JUMPI PUSH2 0x911 PUSH2 0x602 JUMP JUMPDEST JUMPDEST PUSH2 0x91E DUP6 DUP3 DUP7 ADD PUSH2 0x887 JUMP JUMPDEST SWAP3 POP SWAP3 POP POP SWAP3 POP SWAP3 SWAP1 POP JUMP JUMPDEST PUSH1 0x0 DUP2 MLOAD SWAP1 POP SWAP2 SWAP1 POP JUMP JUMPDEST PUSH1 0x0 DUP3 DUP3 MSTORE PUSH1 0x20 DUP3 ADD SWAP1 POP SWAP3 SWAP2 POP POP JUMP JUMPDEST PUSH1 0x0 DUP2 SWAP1 POP PUSH1 0x20 DUP3 ADD SWAP1 POP SWAP2 SWAP1 POP JUMP JUMPDEST PUSH2 0x95F DUP2 PUSH2 0x692 JUMP JUMPDEST DUP3 MSTORE POP POP JUMP JUMPDEST PUSH1 0x0 DUP2 MLOAD SWAP1 POP SWAP2 SWAP1 POP JUMP JUMPDEST PUSH1 0x0 DUP3 DUP3 MSTORE PUSH1 0x20 DUP3 ADD SWAP1 POP SWAP3 SWAP2 POP POP JUMP JUMPDEST PUSH1 0x0 JUMPDEST DUP4 DUP2 LT ISZERO PUSH2 0x99F JUMPI DUP1 DUP3 ADD MLOAD DUP2 DUP5 ADD MSTORE PUSH1 0x20 DUP2 ADD SWAP1 POP PUSH2 0x984 JUMP JUMPDEST PUSH1 0x0 DUP5 DUP5 ADD MSTORE POP POP POP POP JUMP JUMPDEST PUSH1 0x0 PUSH2 0x9B6 DUP3 PUSH2 0x965 JUMP JUMPDEST PUSH2 0x9C0 DUP2 DUP6 PUSH2 0x970 JUMP JUMPDEST SWAP4 POP PUSH2 0x9D0 DUP2 DUP6 PUSH1 0x20 DUP7 ADD PUSH2 0x981 JUMP JUMPDEST PUSH2 0x9D9 DUP2 PUSH2 0x6D2 JUMP JUMPDEST DUP5 ADD SWAP2 POP POP SWAP3 SWAP2 POP POP JUMP JUMPDEST PUSH1 0x0 PUSH1 0x40 DUP4 ADD PUSH1 0x0 DUP4 ADD MLOAD PUSH2 0x9FC PUSH1 0x0 DUP7 ADD DUP3 PUSH2 0x956 JUMP JUMPDEST POP PUSH1 0x20 DUP4 ADD MLOAD DUP5 DUP3 SUB PUSH1 0x20 DUP7 ADD MSTORE PUSH2 0xA14 DUP3 DUP3 PUSH2 0x9AB JUMP JUMPDEST SWAP2 POP POP DUP1 SWAP2 POP POP SWAP3 SWAP2 POP POP JUMP JUMPDEST PUSH1 0x0 PUSH2 0xA2D DUP4 DUP4 PUSH2 0x9E4 JUMP JUMPDEST SWAP1 POP SWAP3 SWAP2 POP POP JUMP JUMPDEST PUSH1 0x0 PUSH1 0x20 DUP3 ADD SWAP1 POP SWAP2 SWAP1 POP JUMP JUMPDEST PUSH1 0x0 PUSH2 0xA4D DUP3 PUSH2 0x92A JUMP JUMPDEST PUSH2 0xA57 DUP2 DUP6 PUSH2 0x935 JUMP JUMPDEST SWAP4 POP DUP4 PUSH1 0x20 DUP3 MUL DUP6 ADD PUSH2 0xA69 DUP6 PUSH2 0x946 JUMP JUMPDEST DUP1 PUSH1 0x0 JUMPDEST DUP6 DUP2 LT ISZERO PUSH2 0xAA5 JUMPI DUP5 DUP5 SUB DUP10 MSTORE DUP2 MLOAD PUSH2 0xA86 DUP6 DUP3 PUSH2 0xA21 JUMP JUMPDEST SWAP5 POP PUSH2 0xA91 DUP4 PUSH2 0xA35 JUMP JUMPDEST SWAP3 POP PUSH1 0x20 DUP11 ADD SWAP10 POP POP PUSH1 0x1 DUP2 ADD SWAP1 POP PUSH2 0xA6D JUMP JUMPDEST POP DUP3 SWAP8 POP DUP8 SWAP6 POP POP POP POP POP POP SWAP3 SWAP2 POP POP JUMP JUMPDEST PUSH1 0x0 PUSH1 0x20 DUP3 ADD SWAP1 POP DUP2 DUP2 SUB PUSH1 0x0 DUP4 ADD MSTORE PUSH2 0xAD1 DUP2 DUP5 PUSH2 0xA42 JUMP JUMPDEST SWAP1 POP SWAP3 SWAP2 POP POP JUMP JUMPDEST PUSH1 0x0 DUP2 SWAP1 POP SWAP2 SWAP1 POP JUMP JUMPDEST PUSH1 0x0 PUSH2 0xAFE PUSH2 0xAF9 PUSH2 0xAF4 DUP5 PUSH2 0x607 JUMP JUMPDEST PUSH2 0xAD9 JUMP JUMPDEST PUSH2 0x607 JUMP JUMPDEST SWAP1 POP SWAP2 SWAP1 POP JUMP JUMPDEST PUSH1 0x0 PUSH2 0xB10 DUP3 PUSH2 0xAE3 JUMP JUMPDEST SWAP1 POP SWAP2 SWAP1 POP JUMP JUMPDEST PUSH1 0x0 PUSH2 0xB22 DUP3 PUSH2 0xB05 JUMP JUMPDEST SWAP1 POP SWAP2 SWAP1 POP JUMP JUMPDEST PUSH2 0xB32 DUP2 PUSH2 0xB17 JUMP JUMPDEST DUP3 MSTORE POP POP JUMP JUMPDEST PUSH1 0x0 PUSH1 0x20 DUP3 ADD SWAP1 POP PUSH2 0xB4D PUSH1 0x0 DUP4 ADD DUP5 PUSH2 0xB29 JUMP JUMPDEST SWAP3 SWAP2 POP POP JUMP JUMPDEST PUSH1 0x0 PUSH1 0x20 DUP3 DUP5 SUB SLT ISZERO PUSH2 0xB69 JUMPI PUSH2 0xB68 PUSH2 0x5FD JUMP JUMPDEST JUMPDEST PUSH1 0x0 PUSH2 0xB77 DUP5 DUP3 DUP6 ADD PUSH2 0x6B3 JUMP JUMPDEST SWAP2 POP POP SWAP3 SWAP2 POP POP JUMP JUMPDEST PUSH2 0xB89 DUP2 PUSH2 0x692 JUMP JUMPDEST DUP3 MSTORE POP POP JUMP JUMPDEST PUSH1 0x0 DUP3 DUP3 MSTORE PUSH1 0x20 DUP3 ADD SWAP1 POP SWAP3 SWAP2 POP POP JUMP JUMPDEST PUSH1 0x0 PUSH2 0xBAB DUP3 PUSH2 0x965 JUMP JUMPDEST PUSH2 0xBB5 DUP2 DUP6 PUSH2 0xB8F JUMP JUMPDEST SWAP4 POP PUSH2 0xBC5 DUP2 DUP6 PUSH1 0x20 DUP7 ADD PUSH2 0x981 JUMP JUMPDEST PUSH2 0xBCE DUP2 PUSH2 0x6D2 JUMP JUMPDEST DUP5 ADD SWAP2 POP POP SWAP3 SWAP2 POP POP JUMP JUMPDEST PUSH1 0x0 PUSH1 0x40 DUP3 ADD SWAP1 POP PUSH2 0xBEE PUSH1 0x0 DUP4 ADD DUP6 PUSH2 0xB80 JUMP JUMPDEST DUP2 DUP2 SUB PUSH1 0x20 DUP4 ADD MSTORE PUSH2 0xC00 DUP2 DUP5 PUSH2 0xBA0 JUMP JUMPDEST SWAP1 POP SWAP4 SWAP3 POP POP POP JUMP JUMPDEST PUSH32 0x4E487B7100000000000000000000000000000000000000000000000000000000 PUSH1 0x0 MSTORE PUSH1 0x22 PUSH1 0x4 MSTORE PUSH1 0x24 PUSH1 0x0 REVERT JUMPDEST PUSH1 0x0 PUSH1 0x2 DUP3 DIV SWAP1 POP PUSH1 0x1 DUP3 AND DUP1 PUSH2 0xC50 JUMPI PUSH1 0x7F DUP3 AND SWAP2 POP JUMPDEST PUSH1 0x20 DUP3 LT DUP2 SUB PUSH2 0xC63 JUMPI PUSH2 0xC62 PUSH2 0xC09 JUMP JUMPDEST JUMPDEST POP SWAP2 SWAP1 POP JUMP JUMPDEST PUSH1 0x0 DUP2 SWAP1 POP DUP2 PUSH1 0x0 MSTORE PUSH1 0x20 PUSH1 0x0 KECCAK256 SWAP1 POP SWAP2 SWAP1 POP JUMP JUMPDEST PUSH1 0x0 PUSH1 0x20 PUSH1 0x1F DUP4 ADD DIV SWAP1 POP SWAP2 SWAP1 POP JUMP JUMPDEST PUSH1 0x0 DUP3 DUP3 SHL SWAP1 POP SWAP3 SWAP2 POP POP JUMP JUMPDEST PUSH1 0x0 PUSH1 0x8 DUP4 MUL PUSH2 0xCCB PUSH32 0xFFFFFFFFFFFFFFFFFFFFFFFFFFFFFFFFFFFFFFFFFFFFFFFFFFFFFFFFFFFFFFFF DUP3 PUSH2 0xC8E JUMP JUMPDEST PUSH2 0xCD5 DUP7 DUP4 PUSH2 0xC8E JUMP JUMPDEST SWAP6 POP DUP1 NOT DUP5 AND SWAP4 POP DUP1 DUP7 AND DUP5 OR SWAP3 POP POP POP SWAP4 SWAP3 POP POP POP JUMP JUMPDEST PUSH1 0x0 PUSH2 0xD08 PUSH2 0xD03 PUSH2 0xCFE DUP5 PUSH2 0x692 JUMP JUMPDEST PUSH2 0xAD9 JUMP JUMPDEST PUSH2 0x692 JUMP JUMPDEST SWAP1 POP SWAP2 SWAP1 POP JUMP JUMPDEST PUSH1 0x0 DUP2 SWAP1 POP SWAP2 SWAP1 POP JUMP JUMPDEST PUSH2 0xD22 DUP4 PUSH2 0xCED JUMP JUMPDEST PUSH2 0xD36 PUSH2 0xD2E DUP3 PUSH2 0xD0F JUMP JUMPDEST DUP5 DUP5 SLOAD PUSH2 0xC9B JUMP JUMPDEST DUP3 SSTORE POP POP POP POP JUMP JUMPDEST PUSH1 0x0 SWAP1 JUMP JUMPDEST PUSH2 0xD4B PUSH2 0xD3E JUMP JUMPDEST PUSH2 0xD56 DUP2 DUP5 DUP5 PUSH2 0xD19 JUMP JUMPDEST POP POP POP JUMP JUMPDEST JUMPDEST DUP2 DUP2 LT ISZERO PUSH2 0xD7A JUMPI PUSH2 0xD6F PUSH1 0x0 DUP3 PUSH2 0xD43 JUMP JUMPDEST PUSH1 0x1 DUP2 ADD SWAP1 POP PUSH2 0xD5C JUMP JUMPDEST POP POP JUMP JUMPDEST PUSH1 0x1F DUP3 GT ISZERO PUSH2 0xDBF JUMPI PUSH2 0xD90 DUP2 PUSH2 0xC69 JUMP JUMPDEST PUSH2 0xD99 DUP5 PUSH2 0xC7E JUMP JUMPDEST DUP2 ADD PUSH1 0x20 DUP6 LT ISZERO PUSH2 0xDA8 JUMPI DUP2 SWAP1 POP JUMPDEST PUSH2 0xDBC PUSH2 0xDB4 DUP6 PUSH2 0xC7E JUMP JUMPDEST DUP4 ADD DUP3 PUSH2 0xD5B JUMP JUMPDEST POP POP JUMPDEST POP POP POP JUMP JUMPDEST PUSH1 0x0 DUP3 DUP3 SHR SWAP1 POP SWAP3 SWAP2 POP POP JUMP JUMPDEST PUSH1 0x0 PUSH2 0xDE2 PUSH1 0x0 NOT DUP5 PUSH1 0x8 MUL PUSH2 0xDC4 JUMP JUMPDEST NOT DUP1 DUP4 AND SWAP2 POP POP SWAP3 SWAP2 POP POP JUMP JUMPDEST PUSH1 0x0 PUSH2 0xDFB DUP4 DUP4 PUSH2 0xDD1 JUMP JUMPDEST SWAP2 POP DUP3 PUSH1 0x2 MUL DUP3 OR SWAP1 POP SWAP3 SWAP2 POP POP JUMP JUMPDEST PUSH2 0xE14 DUP3 PUSH2 0x965 JUMP JUMPDEST PUSH8 0xFFFFFFFFFFFFFFFF DUP2 GT ISZERO PUSH2 0xE2D JUMPI PUSH2 0xE2C PUSH2 0x6E3 JUMP JUMPDEST JUMPDEST PUSH2 0xE37 DUP3 SLOAD PUSH2 0xC38 JUMP JUMPDEST PUSH2 0xE42 DUP3 DUP3 DUP6 PUSH2 0xD7E JUMP JUMPDEST PUSH1 0x0 PUSH1 0x20 SWAP1 POP PUSH1 0x1F DUP4 GT PUSH1 0x1 DUP2 EQ PUSH2 0xE75 JUMPI PUSH1 0x0 DUP5 ISZERO PUSH2 0xE63 JUMPI DUP3 DUP8 ADD MLOAD SWAP1 POP JUMPDEST PUSH2 0xE6D DUP6 DUP3 PUSH2 0xDEF JUMP JUMPDEST DUP7 SSTORE POP PUSH2 0xED5 JUMP JUMPDEST PUSH1 0x1F NOT DUP5 AND PUSH2 0xE83 DUP7 PUSH2 0xC69 JUMP JUMPDEST PUSH1 0x0 JUMPDEST DUP3 DUP2 LT ISZERO PUSH2 0xEAB JUMPI DUP5 DUP10 ADD MLOAD DUP3 SSTORE PUSH1 0x1 DUP3 ADD SWAP2 POP PUSH1 0x20 DUP6 ADD SWAP5 POP PUSH1 0x20 DUP2 ADD SWAP1 POP PUSH2 0xE86 JUMP JUMPDEST DUP7 DUP4 LT ISZERO PUSH2 0xEC8 JUMPI DUP5 DUP10 ADD MLOAD PUSH2 0xEC4 PUSH1 0x1F DUP10 AND DUP3 PUSH2 0xDD1 JUMP JUMPDEST DUP4 SSTORE POP JUMPDEST PUSH1 0x1 PUSH1 0x2 DUP9 MUL ADD DUP9 SSTORE POP POP POP JUMPDEST POP POP POP POP POP POP JUMP JUMPDEST PUSH1 0x0 DUP2 SWAP1 POP SWAP3 SWAP2 POP POP JUMP JUMPDEST PUSH1 0x0 PUSH2 0xEF3 DUP3 PUSH2 0x965 JUMP JUMPDEST PUSH2 0xEFD DUP2 DUP6 PUSH2 0xEDD JUMP JUMPDEST SWAP4 POP PUSH2 0xF0D DUP2 DUP6 PUSH1 0x20 DUP7 ADD PUSH2 0x981 JUMP JUMPDEST DUP1 DUP5 ADD SWAP2 POP POP SWAP3 SWAP2 POP POP JUMP JUMPDEST PUSH1 0x0 PUSH2 0xF25 DUP4 DUP6 PUSH2 0xEDD JUMP JUMPDEST SWAP4 POP PUSH2 0xF32 DUP4 DUP6 DUP5 PUSH2 0x78F JUMP JUMPDEST DUP3 DUP5 ADD SWAP1 POP SWAP4 SWAP3 POP POP POP JUMP JUMPDEST PUSH1 0x0 PUSH2 0xF4A DUP3 DUP8 PUSH2 0xEE8 JUMP JUMPDEST SWAP2 POP PUSH2 0xF57 DUP3 DUP6 DUP8 PUSH2 0xF19 JUMP JUMPDEST SWAP2 POP PUSH2 0xF63 DUP3 DUP5 PUSH2 0xEE8 JUMP JUMPDEST SWAP2 POP DUP2 SWAP1 POP SWAP6 SWAP5 POP POP POP POP POP JUMP JUMPDEST PUSH2 0xF7A DUP2 PUSH2 0x627 JUMP JUMPDEST DUP3 MSTORE POP POP JUMP JUMPDEST PUSH1 0x0 PUSH1 0x40 DUP3 ADD SWAP1 POP PUSH2 0xF95 PUSH1 0x0 DUP4 ADD DUP6 PUSH2 0xF71 JUMP JUMPDEST DUP2 DUP2 SUB PUSH1 0x20 DUP4 ADD MSTORE PUSH2 0xFA7 DUP2 DUP5 PUSH2 0xBA0 JUMP JUMPDEST SWAP1 POP SWAP4 SWAP3 POP POP POP JUMP JUMPDEST PUSH1 0x0 PUSH1 0x20 DUP3 ADD SWAP1 POP DUP2 DUP2 SUB PUSH1 0x0 DUP4 ADD MSTORE PUSH2 0xFCA DUP2 DUP5 PUSH2 0xBA0 JUMP JUMPDEST SWAP1 POP SWAP3 SWAP2 POP POP JUMP INVALID PUSH28 0x22456E67696E65223A2022646F636B6572222C225665726966696572 0x22 GASPRICE KECCAK256 0x22 PUSH15 0x6F6F70222C225075626C6973686572 0x22 GASPRICE KECCAK256 0x22 PUSH6 0x737475617279 0x22 0x2C 0x22 DIFFICULTY PUSH16 0x636B6572223A207B22496D616765223A KECCAK256 0x22 PUSH8 0x6863722E696F2F62 PUSH2 0x6361 PUSH13 0x6861752D70726F6A6563742F65 PUSH25 0x616D706C65732F737461626C652D646966667573696F6E2D67 PUSH17 0x753A302E302E31222C22456E747279706F PUSH10 0x6E74223A205B22707974 PUSH9 0x6F6E222C20226D6169 PUSH15 0x2E7079222C20222D2D6F222C20222E 0x2F PUSH16 0x757470757473222C20222D2D70222C20 0x22 0x22 0x5D PUSH30 0x2C225265736F7572636573223A207B22475055223A202231227D2C224F75 PUSH21 0x70757473223A205B7B224E616D65223A20226F7574 PUSH17 0x757473222C202250617468223A20222F6F PUSH22 0x7470757473227D5D2C224465616C223A207B22436F6E PUSH4 0x75727265 PUSH15 0x6379223A20317D7DA2646970667358 0x22 SLT KECCAK256 SHL PUSH14 0x3087C79618349814465450640A56 0xD1 0xDB SELFBALANCE STOP DUP11 0xB5 RETURN ADD DUP13 SHL PUSH15 0x450C24994C64736F6C634300081100 CALLER DIFFICULTY PUSH6 0x706C6F79696E PUSH8 0x20537461626C6544 PUSH10 0x66667573696F6E20636F PUSH15 0x747261637400000000000000000000 "},"methodIdentifiers":{"StableDiffusion(string)":"c3357f4e","bridge()":"e78cea92","fetchAllJobs()":"ce4af1d7","lilypadJobs(uint256)":"f1cb28ad","lilypadReceiver(address,uint256,string)":"35c764e3","setLPEventsAddress(address)":"0972c2fa"}}}}}